:020000040800F2
:10000000D80C002035020008430200084502000811
:1000100047020008490200084B02000800000000E7
:100020000000000000000000000000004D02000879
:100030004F020008000000005102000853020008AF
:100040005502000855020008550200085502000834
:100050005502000855020008550200085502000824
:100060005502000855020008550200085502000814
:100070005502000855020008550200085502000804
:1000800055020008550200085502000855020008F4
:1000900055020008550200085502000855020008E4
:1000A00055020008550200085502000855020008D4
:1000B00055020008550200085502000855020008C4
:1000C00055020008550200085502000855020008B4
:1000D000550200085502000855020008F9090008F9
:1000E0005502000855020008550200085502000894
:1000F0005502000855020008550200085502000884
:100100005502000855020008550200085502000873
:100110005502000855020008550200085502000863
:100120005502000855020008550200085502000853
:100130005502000855020008550200085502000843
:100140005502000855020008550200085502000833
:100150005502000855020008550200085502000823
:100160005502000855020008550200085502000813
:100170005502000855020008550200085502000803
:10018000550200085502000800F002F800F03EF8A1
:100190000AA090E8000C82448344AAF10107DA45E2
:1001A00001D100F033F8AFF2090EBAE80F0013F0F6
:1001B000010F18BFFB1A43F001031847AC0C0000F5
:1001C000CC0C0000103A24BF78C878C1FAD8520786
:1001D00024BF30C830C144BF04680C6070470000C1
:1001E0000023002400250026103A28BF78C1FBD840
:1001F000520728BF30C148BF0B60704700207047CE
:100200001FB500F02BFE1FBD10B510BD00F0A8F803
:100210001146FFF7F5FF00F0DFFC00F0C6F803B46D
:10022000FFF7F2FF03BC00F005FC000080F3088834
:10023000704700000B48016841F4700101600A48F2
:100240000047FEE7FEE7FEE7FEE7FEE7FEE7FEE724
:10025000FEE7FEE7FEE7000004480549034A054BB8
:100260007047000088ED00E089010008D8080020F0
:10027000D80C0020D8080020704700000FB40449B3
:1002800010B503AA029800F03DF810BC5DF814FB0D
:10029000040000202DE9F0410E46044600202062B3
:1002A0002046E168884730B3252805D0D4E90121EC
:1002B0009047206A401CF2E7E16820460027884703
:1002C000050018D0A5F14100192802D820354FF4B7
:1002D00000673246294620462760FFF78FFF40B16E
:1002E000012804D0F61D26F007060836D8E7361D8B
:1002F000D6E72846DAE7206ABDE8F0817047704704
:1003000070477047074B70B50D467B4400F011F8FD
:100310000446284600F020F810B14FF0FF3070BDC1
:10032000204670BD1B08000001694A1C0261087864
:10033000704700B58FB0CDE9013100210591054925
:100340007944CDE9031011466846FFF7A3FF0FB0CB
:1003500000BD0000E5FFFFFF007B00F0800070475C
:10036000754600F02BF8AE4605006946534620F06E
:100370000700854618B020B5FFF76EFFBDE82040A6
:100380004FF000064FF000074FF000084FF0000B51
:1003900021F00701AC46ACE8C009ACE8C009ACE804
:1003A000C009ACE8C0098D46704710B50446AFF3EC
:1003B00000802046BDE81040FFF731BF004870477D
:1003C00078080020F0B504460D4616461F4614482E
:1003D000006840F00100124908600020104908310F
:1003E00008600F4800680F4908400D4908600E4832
:1003F000091D0860081F006820F48020091F08609C
:10040000002007490C3108603B4632462946204609
:1004100000F06CFA0021084600F060FAF0BD000020
:1004200000380240FFFFF6FE1030002470B505468C
:100430000024194800F0BEF8044654BB1748006871
:1004400020F44070154908600846006840F40070C8
:1004500008600846006820F0F80008600846006858
:1004600040EAC50008600846006840F002000860E5
:100470000846006840F480300860074800F09AF8A9
:100480000446012C05D00548006820F0020003490D
:100490000860204670BD0000400D0300103C024083
:1004A00001461C48814201D2002070471A4881420F
:1004B00001D20120F9E71948814201D20220F4E774
:1004C0001748814201D20320EFE71648814201D24A
:1004D0000420EAE71448814201D20520E5E71348E9
:1004E000814201D20620E0E71148814201D2072073
:1004F000DBE71048814201D20820D6E70E4881424E
:1005000001D20920D1E70D48814201D20A20CCE76F
:100510000B20CAE7004000080080000800C0000867
:10052000000001080000020800000408000006089E
:100530000000080800000A0800000C0800000E086F
:1005400000210E48016801F4803008B10120704795
:1005500001F0100008B10220F9E701F0200008B115
:100560000220F4E701F0400008B10220EFE701F0BB
:10057000800008B10220EAE70020E8E70C3C0240D6
:100580000348006840F000400149086070470000DF
:10059000103C0240014608687047000002480349C9
:1005A000086003480860704723016745043C024027
:1005B000AB89EFCD70B5044600BFFFF7C1FF05461C
:1005C000012D00D005E00A2000F072FA641E002C14
:1005D000F3D100BF04B9FF25284670BD2DE9F047CF
:1005E00004460E4617464FF000080025A946B4F110
:1005F000006F02D304F0030008B1BDE8F087FFF7F5
:10060000CDFF1D48006820F480601B490860254626
:1006100004EB87091948854214D210E02846FFF7F9
:10062000B9FF401C50B12846FFF73AFF8246FFF75A
:10063000FDFE8046B8F1000F01D002E02D1D4D45B2
:10064000ECD300BFB8F1000F0BD107E020463168B2
:1006500000F016F800B103E0241D361D4C45F5D31B
:1006600000BF0548006840F4806003490860FFF758
:1006700087FF00BFC1E70000003C02400000FF1FF1
:1006800070B505460E46FF20FFF794FF0446E4B917
:100690000F48006820F440700D4908600846006863
:1006A00040F4007008600846006840F001000860EF
:1006B0002E60FF20FFF77EFF0446012C05D0044882
:1006C000006820F0010002490860204670BD00006B
:1006D000103C024030B5CC1000F1200353F8243018
:1006E0004C07E50E0F24AC40A343CD1000F12004CD
:1006F00044F82530CC1000F1200353F824304C0787
:10070000E40E02FA04F42343CD1000F1200444F86F
:10071000253030BD2DE9F0470C46DDE908670021A2
:1007200000258C4600BF60E04FF0010808FA01F593
:1007300004EA050CAC4557D1D0F800804FEA410AD5
:100740004FF0030909FA0AF928EA0908C0F80080FD
:10075000D0F800804FEA410902FA09F948EA09088D
:10076000C0F80080012A01D0022A27D1D0F80880E1
:100770004FEA410A4FF0030909FA0AF928EA090881
:10078000C0F80880D0F808804FEA410906FA09F954
:1007900048EA0908C0F80880D0F804904FF0010832
:1007A00008FA01F829EA0809C0F80490D0F8048092
:1007B00003FA01F948EA0908C0F80480D0F80C806F
:1007C0004FEA410A4FF0030909FA0AF928EA090831
:1007D000C0F80C80D0F80C804FEA410907FA09F9FB
:1007E00048EA0908C0F80C80491C10299CD3BDE8D0
:1007F000F08700001CB50D48006840F020000B4950
:1008000008600120032100230246CDE900101C21CD
:100810000748FFF77FFF0120064908600649C1F835
:100820008C020449083108601CBD000030380240C9
:100830000014024088824242008042422DE9F04189
:100840000746884614461D46284600F033F8C5F191
:10085000040007FA00F60F20284100EA08000643CA
:1008600006F00F06E21704EBD2625211920002F179
:10087000E022D2F800212146E31704EBD3635B1199
:10088000A4EB431C012303FA0CF31A432046E3179D
:1008900004EBD3635B119B0003F1E023C3F8002159
:1008A0000348005D40EA061001490855BDE8F081A3
:1008B00000E400E00146072323EA01021202054B8F
:1008C00018684FF6FF031840034B18431043014BC1
:1008D000186070470CED00E00000FA054A0A520269
:1008E0000243014B1A60704708ED00E0F0B5044682
:1008F0000D46002100203D4E366846F480363B4FC1
:100900003E6001E04E1CB1B2384E366806F4003647
:100910001EB941F6FF76B142F4DB41F6FF76B142F3
:1009200001D1012060E0314E4036366846F08056F5
:100930002E4F40373E602E4E366846F440462C4FD0
:100940003E602A4E0836366846F41446274F08376C
:100950003E60264E366826F08076244F3E6045EA9B
:1009600084160127C7EB520746EA074646EA0366A4
:1009700046F480061D4F3F1D3E603E1F366846F020
:1009800080763F1F3E6000BF184E366806F0007646
:10099000002EF9D0174E366846F48076154F3E602B
:1009A0003E46366846F400763E603E46366846F47B
:1009B00080663E603E46366846F005063E600B4E59
:1009C0000836366826F00306084F08373E603E4674
:1009D000366846F002063E6000BF044E08363668B0
:1009E00006F00C06082EF8D1F0BD000000380240D9
:1009F00000700040003C02400B49098801F02001D2
:100A000081B10949091D0988C8B2084909686429E2
:100A100008D20749054A1268885404490968491CE4
:100A2000024A116070470000004800400C0000209E
:100A30001400002000BF70474FF0E021096921F049
:100A400004014FF0E0221161C21700EB5272C2F3B1
:100A5000C702074B1A701946097801EB4102C2EB35
:100A6000C1114FF6FF7202EAC101024A11807047BC
:100A7000000000200200002070B504464FF407700B
:100A800094FBF0F0C6B24FF4077094FBF0F100FB5A
:100A9000114085B205E04FF4077000F027F8701E92
:100AA000C6B2002EF7D115B1284600F01FF870BD70
:100AB00001460D4A12784A434FF0E0235A61002262
:100AC0009A6101221A6100BF4FF0E022106900F024
:100AD00001021AB100F48032002AF5D000224FF052
:100AE000E0231A619A6170470000002001460D4A18
:100AF00012884A434FF0E0235A6100229A61012292
:100B00001A6100BF4FF0E022106900F001021AB133
:100B100000F48032002AF5D000224FF0E0231A6161
:100B20009A6170470200002000BF054A128802F057
:100B30004002002AF9D0C2B2014B1B1D1A80704737
:100B40000048004010B50446206807490840B0F14D
:100B5000005F08D16068054908602068FFF766FB00
:100B600002480068804710BD0000FE2F10000020E2
:100B70002DE9F05F0746884691460025BB4644466E
:100B8000AA461DE0E0780606A07846EA00466078AE
:100B900046EA002620780643241D2846691C8DB2AB
:100BA0000C4941F82060B5F5007F07D100254FF4CE
:100BB00000725846FFF712FD0BF5006B0AF1040AAC
:100BC000CA45DFD325B12A4602495846FFF706FD3C
:100BD000BDE8F09F7800002000BF00240025092315
:100BE000022219210801FFF7EDFBC820FFF724FFBF
:100BF0004FF4E131642000F0ADF8FFF7FBFD002079
:100C00003A4908604FF47A70FFF736FF38A0FFF7D3
:100C100035FB6AE0002D5ED03BA0FFF72FFB3F487D
:100C2000406800F07F40B0F1006F51D122463C494E
:100C30003C48FFF79DFF2D480830006808B90120A7
:100C400000E000202949083108604FF4FA70FFF7EE
:100C500013FF3548D0F8900208B9012000E00020C9
:100C60002249083108604FF4FA70FFF705FF2E485B
:100C7000D0F8900208B9012000E000201B4908319B
:100C800008604FF4FA70FFF7F7FE2748D0F88802A3
:100C900008B9012000E00020144908604FF4FA7000
:100CA000FFF7EAFE2048D0F88C0208B9012000E0E6
:100CB00000200E49091D08604FF4FA70FFF7DCFEB2
:100CC00000201949C1F8900218A0FFF7D7FA02E0F6
:100CD0001AA0FFF7D3FA1E48406800F07F40B0F139
:100CE000006F02D11A48FFF72DFF93E78882424236
:100CF0004941502050726F6772616D20626567696B
:100D00006E202E2E2E0A0000BFAACABCB8FCD0C28C
:100D1000B9CCBCFE2E2E2E0D0A00000000100020C3
:100D2000001000200000020800804242B9CCBCFE46
:100D3000B8FCD0C2CDEAB3C9210D0A00B7C7464CF2
:100D4000415348D3A6D3C3B3CCD0F2210D0A00003F
:100D500000000108F0B52DED028B83B005460E466C
:100D60003A4905FB01F000EE100AF8EE400A3001A6
:100D700000EE100AB8EE400A80EE801AB0EE418A0A
:100D8000BCEEC80A10EE100A84B200EE104AB8EEAB
:100D9000400A38EE400AF3EE000A20EE200ABCEECC
:100DA000C00A10EE107A4FF6FF7000EA0414E01942
:100DB00084B22748006840F00100254908602448B3
:100DC0001430006840F010002149143108600120FF
:100DD000022100230A46CDE900104FF4C0611D48EE
:100DE000FFF798FC072209211A48FFF773FC072236
:100DF0000A211848FFF76EFC17480480001D008880
:100E000020F400401449091D08800846008840F07D
:100E1000080008800846008840F004000880084662
:100E2000008840F020000880022327220321084682
:100E3000FFF704FD0848001D008840F400500649F3
:100E4000091D088003B0BDEC028BF0BD40420F00CD
:100E50003038024000000240084800404FF0407027
:100E6000E1EE100A70470000880E00080000002024
:100E700014000000C40100089C0E000814000020AB
:100E8000EC4F0000E001000800000000000000003E
:0C0E900000000000000000000000000056
:040000050800018965
:00000001FF
