:020000040800F2
:10000000D8080020A101000829080008E507000819
:100010002508000805070008EF0F00080000000091
:100020000000000000000000000000004D0A000871
:100030000907000800000000E1080008770A00082E
:10004000BB010008BB010008BB010008BB010008A0
:10005000BB010008BB010008BB010008BB01000890
:10006000BB010008BB010008BB010008BB01000880
:10007000BB010008BB010008BB010008BB01000870
:10008000BB010008BB010008BB010008BB01000860
:10009000BB010008BB010008BB010008BB01000850
:1000A000BB010008BB010008BB010008BB01000840
:1000B000BB010008BB010008BB010008BB01000830
:1000C000BB010008BB010008BB010008BB01000820
:1000D000BB010008BB010008590C0008C10C000856
:1000E000BB010008BB010008BB010008BB01000800
:1000F000BB010008BB010008BB010008BB010008F0
:10010000BB010008BB010008BB010008BB010008DF
:10011000BB010008BB010008BB010008BB010008CF
:10012000BB010008BB010008BB010008BB010008BF
:10013000BB010008BB010008BB010008BB010008AF
:10014000BB010008BB010008BB010008BB0100089F
:10015000BB010008BB010008BB010008BB0100088F
:10016000BB010008BB010008BB010008BB0100087F
:10017000BB010008BB010008BB0100080000000033
:10018000BB010008BB010008DFF810D000F098FAAE
:100190000048004731190008AFF30080D80800205C
:1001A0000648804706480047FEE7FEE7FEE7FEE711
:1001B000FEE7FEE7FEE7FEE7FEE7FEE7810A00084E
:1001C000890100082DE9FE4F804681EA0300C00F37
:1001D0000C46009021F0004123F00045B8EB0200EE
:1001E000A94105D24046214690461C460B46024690
:1001F00023F00040104347D0270DC7F30A00C3F394
:100200000A510290401A019040286BDAC3F31300A0
:1002100040F4801B0098924620B10023D2EB030AE1
:1002200063EB0B0B01985946C0F14002504600F0B9
:1002300026F906460D4650465946019A00F02EF919
:1002400010EB08006141002487EA115284EAE77349
:100250001A4340D0009A62B3019A012A4FEA07522A
:1002600015DC001B61EB02014FF0004202EA07526D
:10027000CDE90042001C41F5801132462B4600F0CA
:100280002EF903B0BDE8F08F40462146F9E7001B88
:1002900061EB0201001C41F5801300185B4120183E
:1002A000A2F5001747EB030140EAD570B6196D417E
:1002B00011E06D084FEA360645EAC0754FEA07526D
:1002C000001B61EB0201001C41F5801149084FEA57
:1002D00030000019514132462B4603B0BDE8F04FC3
:1002E00000F0EEB80098012240000023D0EB02029B
:1002F00063EBE073009821464FEAE074B8EB00002E
:1003000061EB0401E9E783F000435BE781F0004122
:1003100058E72DE9F04D81EA030404F0004B21F089
:10032000004514464FF0000A23F0004150EA050250
:1003300020D054EA01021DD0C5F30A570246C5F386
:100340001303C1F31300C1F30A5640F4801543F4BC
:100350008013A7EB0608101BD64608F2FD3873EB96
:10036000050002D308F1010801E092185B41B8F1E1
:10037000000F03DA00200146BDE8F08D00204FF4A5
:100380008011064684460EE0171B73EB050705D364
:10039000121B63EB050306434CEA010C49084FEAC4
:1003A000300092185B4150EA0107EDD152EA030098
:1003B00012D082EA040083EA0501084305D0101B2D
:1003C000AB4106D20122002306E000224FF0004399
:1003D00002E06FF0010253101AEB06004CEB0851DB
:1003E00010EB0A0041EB0B01BDE8F04D00F068B8DE
:1003F00030B50B46014600202022012409E021FAF5
:1004000002F59D4205D303FA02F5491B04FA02F5F1
:100410002844151EA2F10102F1DC30BD2DE9F05F88
:100420000546002092469B46884606468146402463
:100430001BE0284641464746224600F053F9534602
:100440005A46C01A914110D311461846224600F070
:1004500016F82D1A67EB01084F46224601200021AD
:1004600000F00DF817EB00094E41201EA4F1010425
:10047000DFDC484631462A464346BDE8F09F202A45
:1004800004DB203A00FA02F1002070479140C2F1EB
:10049000200320FA03F3194390407047202A06DB1B
:1004A000CB17203A41FA02F043EAE07306E041FA42
:1004B00002F3D040C2F12002914008431946704730
:1004C00010B5141E73F1000408DA401C41F100015C
:1004D00092185B411A4301D120F0010010BD2DE9B3
:1004E000F04D92469B4611B1B1FA81F202E0B0FAAA
:1004F00080F220329046FFF7C2FF04460F4640EAE2
:100500000A0041EA0B0153465A46084313D01146EC
:1005100053EA010019D0C8F14002504600F0E2F859
:1005200005460E46504659464246FFF7A8FF084387
:1005300005D0012004E020463946BDE8F08D0020BA
:10054000054346EAE0762C4337430A986305E40AFC
:10055000A0EB08000022FD0A44EA47540A3002D505
:1005600000200146E9E7010510196941DDE9084568
:1005700000196941BDE8F04DA2E72DE9FE4F81EA7F
:10058000030404F0004421F0004100944FF0000BFC
:1005900023F0004350EA01045ED052EA03045BD02A
:1005A000C3F30A54C1F30A552C44A4F2F334019462
:1005B000A0FB0254C1F3130141F48011C3F31303F0
:1005C00043F4801301FB024400FB034E840A970AA4
:1005D00044EA815447EA8357A4FB076802958D0AD1
:1005E00005FB07854FEA932C04FB0C542705029D5D
:1005F0004FEA065847EA1637B5EB08056EEB070CCD
:10060000870E920E47EA811742EA8312A7FB020186
:10061000B6EB0B0164EB00042B0D43EA0C335E18C0
:1006200044EB1C50DA465146E7FB0201C5F31304C4
:100630004FEA0B3343EA14534FEA0432019C43EA76
:100640000603A4F10C040294009CCDE900B4FFF76A
:1006500046FF03B0BDE8F08F00200146F9E7C1F383
:100660000A52C1F3130140F2FF3341F480119A4260
:1006700002DA00200146704740F233439A42A2F268
:10068000334202DC524200F02DB8FFF7F8BE000002
:1006900030B5041E71F1000404DB4FF00044404209
:1006A00064EB0101141E73F1000405DB1C464FF0DE
:1006B0000043524263EB0403994208BF904230BDAD
:1006C000064C074D06E0E06840F0010394E807009F
:1006D00098471034AC42F6D3FFF75AFD981C000837
:1006E000B81C0008202A04DB203A21FA02F000217D
:1006F000704721FA02F3D040C2F120029140084332
:100700001946704700BFFEE77047F0B50A46002162
:100710000023002400BF3DE0012505FA01F3156820
:1007200005EA03049C4234D105684F000326BE400D
:10073000B543056015794E00B54006683543056040
:100740001579012D02D01579022D16D185684F003B
:100750000326BE40B543856055794E00B540866896
:1007600035438560456801268E40B5434560456840
:1007700096798E40B6B235434560C5684F00032672
:10078000BE40B543C560D5794E00B540C668354317
:10079000C560491C1029BFD3F0BDF0B5002300246B
:1007A0004D07ED0E02FA05F3CE1000F1200555F8C5
:1007B00026504E07F70E0F26BE40B543CF1000F16E
:1007C000200646F82750CE1000F1200555F8265097
:1007D00045EA0304CE1000F1200545F82640F0BD9F
:1007E0000183704700BFFEE71CB50121202000F007
:1007F00079F81C20009001208DF8040000208DF86D
:10080000060003208DF8050001208DF807006946D9
:100810000348FFF77AFF1C210148FFF7E1FF1CBDE9
:100820000014024000BFFEE77047000070B50021D1
:1008300000230F22C4781CB3174C246804F4E0642E
:10084000C4F5E064C4F30721C1F10404E3B20A4132
:1008500044789C40E1B28478144021430C07210E77
:100860000E4C05786155047804F01F050124AC4056
:1008700005786D11AD0005F1E025C5F8004109E0EE
:10088000047804F01F050124AC40054D067876116C
:1008900045F8264070BD00000CED00E000E400E0EB
:1008A00080E100E002490143024A11607047000004
:1008B0000000FA050CED00E010B5002807DA0A0781
:1008C000140E054A00F00F031B1FD45403E00A075F
:1008D000130E024A135410BD18ED00E000E400E0CE
:1008E0007047000029B1064A12680243044B1A609F
:1008F00004E0034A12688243014B1A60704700000B
:100900003038024029B1064A12680243044B1A608B
:1009100004E0034A12688243014B1A6070470000EA
:100920004038024029B1064A12680243044B1A605B
:1009300004E0034A12688243014B1A6070470000CA
:100940002038024029B1064A12680243044B1A605B
:1009500004E0034A12688243014B1A6070470000AA
:1009600024380240F0B50021002200240225002690
:100970000223324F3F6807F00C0121B1042905D052
:10098000082937D105E02E4F076036E02D4F07606C
:1009900033E02A4F3F1F3F68C7F38056274F3F1F62
:1009A0003F6807F03F036EB1264FB7FBF3F7DFF860
:1009B0008CC0ACF1040CDCF800C0CCF3881C07FB45
:1009C0000CF40CE01E4FB7FBF3F7DFF870C0ACF18E
:1009D000040CDCF800C0CCF3881C07FB0CF4174FA8
:1009E0003F1F3F68C7F301477F1C7D00B4FBF5F74D
:1009F000076002E0124F076000BF00BF0F4F3F6863
:100A000007F0F0010909104F7A5C0768D74047608A
:100A10000A4F3F6807F4E051890A0B4F7A5C476838
:100A2000D7408760054F3F6807F46041490B064F88
:100A30007A5C4768D740C760F0BD000008380240C4
:100A40000024F40000366E010400002070470428E2
:100A500008D14FF0E021096941F004014FF0E02294
:100A6000116107E04FF0E021096921F004014FF026
:100A7000E0221161704710B500F022FF10BD0000A8
:100A800008B52F48006840F470002D4908602D48D3
:100A9000006840F001002B49086000BF2948006849
:100AA00000F002000028F9D000BF26480830006896
:100AB0002449083108600020009002E00098401CA2
:100AC000009000985028F9D31E480830006840F084
:100AD00090001C49083108600020009002E0009856
:100AE000401C009000985028F9D300BF15480830EA
:100AF000006820F0030013490831086011480068BD
:100B0000114908400F4908600846006820F4802019
:100B1000086000200B490831086000BF0948083010
:100B2000006800200028F9D108480649091D08601E
:100B3000002004490C31086000F094FF08BD00005B
:100B400088ED00E000380240FFFFF6FE1030002480
:100B50007FB505460C4601210846FFF7D3FE0295F6
:100B6000ADF804400020ADF80600ADF80C0001A976
:100B70004FF0804000F02EF801221146900700F05F
:100B800020F80121880700F010F81C208DF80000E3
:100B900001208DF8010000208DF8020001208DF861
:100BA00003006846FFF742FE7FBD21B1028842F094
:100BB0000102028004E002884FF6FE731A400280B0
:100BC00070471AB183890B43838102E083898B4389
:100BD0008381704700220288184B98420ED0184B30
:100BE00098420BD0B0F1804F08D0164B984205D0F8
:100BF000154B984202D0154B984204D14FF68F7393
:100C00001A404B881A43124B984207D0114B984216
:100C100004D04FF6FF431A400B891A4302804B68F9
:100C2000C3620B880385054B984202D0044B98425F
:100C300001D18B7A03860123838270470000014033
:100C4000000401400004004000080040000C004087
:100C5000001000400014004010B52021124800F0A0
:100C6000F7F8F8B1104800F0B9F9C4B20F480078AD
:100C7000C0B90F480088B0F5C87F10DA0C4800886A
:100C800010B901200B49087000200B490880084961
:100C90000888411C064A118008490C5402E00020D3
:100CA0000249087010BD00000044004027000020E9
:100CB00022000020260000202400002048030020FD
:100CC00010B540F225511D4800F0CFF810B31B4875
:100CD00000F084F9C4B21A48008800F40040C8B992
:100CE0001748008800F4804060B10A2C03D000202F
:100CF0001349088021E01248008840F40040104960
:100D000008801AE00D2C06D10D48008840F4804080
:100D10000B49088011E00A480088C0F30D0009491A
:100D20000C5407480088401C054908800846008884
:100D3000B0F5C87F01DB0020088010BD00480040EE
:100D4000200000202800002021B1828942F40052B6
:100D5000828104E082894DF6FF731A4082817047D8
:100D600010B504463248844208D101211020FFF713
:100D7000E9FD00211020FFF7E5FD57E02D488442F2
:100D800009D101214804FFF7CDFD00214FF40030C7
:100D9000FFF7C8FD4AE02848844209D101218804B0
:100DA000FFF7C0FD00214FF48020FFF7BBFD3DE0C1
:100DB0002248844209D10121C804FFF7B3FD002174
:100DC0004FF40020FFF7AEFD30E01D48844209D10A
:100DD00001210805FFF7A6FD00214FF48010FFF761
:100DE000A1FD23E01748844208D101212020FFF70C
:100DF000A9FD00212020FFF7A5FD17E0124884423D
:100E000009D101218807FFF78DFD00214FF08040B7
:100E1000FFF788FD0AE00D48844207D10121400513
:100E2000FFF780FD00216005FFF77CFD10BD00008D
:100E3000001001400044004000480040004C0040C9
:100E4000005000400014014000780040007C004049
:100E500002460020B1F5007F00D100BF13880B408F
:100E60000BB1012000E00020704770B5024600245D
:100E700000230025002040F66A16B14200D100BFD1
:100E8000C1F3421501F01F03012606FA03F3012DF9
:100E900002D19689334006E0022D02D1168A3340F2
:100EA00001E0968A33400C12012606FA04F41688F3
:100EB000344013B10CB1012000E0002070BDF0B54A
:100EC0000346002400260025002040F66A17B94298
:100ED00000D100BF1846C1F3421401F01F060127DC
:100EE00007FA06F5012C01D10C3004E0022C01D1E7
:100EF000103000E014301AB107682F43076002E099
:100F00000768AF430760F0BD2DE9FF4705460E4671
:100F10000024A14600BFA046B08900B100BF2C8AC2
:100F200024F44054F08804432C82AC8941F20C60D4
:100F30008443B08831890843718908430443AC81F4
:100F4000AC8A24F44074B0890443AC826846FFF74D
:100F500009FD2048854202D01F48854202D1DDF8B4
:100F60000C9001E0DDF80890A88900F4004040B141
:100F700009EBC90000EB091031684900B0FBF1F73B
:100F800007E009EBC90000EB091031688900B0FBEC
:100F9000F1F76420B7FBF0F004012009642101FBA4
:100FA0001078A88900F4004040B1322000EBC8005E
:100FB000B0FBF1F000F00700044308E0322000EB42
:100FC00008106421B0FBF1F000F00F0004432C8105
:100FD000BDE8FF87001001400014014001468888E9
:100FE000C0F308007047C1F308028280704700BF59
:100FF000FEE700000FB4054B10B503A9044A0298A0
:1010000000F0DAF810BC5DF814FB000015190008B8
:101010001C00002002E008C8121F08C1002AFAD1F3
:1010200070477047002001E001C1121F002AFBD168
:10103000704700002DE9FF5F82B00021DDE9043038
:10104000020DDDF840B0034318D044F61050A2F270
:10105000FF3242431514119801281FD0A5EB0B0055
:10106000401C5FEA000A4FF000064E4FDFF838914F
:10107000B046504615D5CAF1000413E0119801247A
:101080004AA3012801D16FEA0B010298119AC0E925
:101090000031C0E9024206B0BDE8F09FCBF100008C
:1010A000DFE704460021404A491842EB0450CDE9ED
:1010B000001012E0E00707D032463B464046494662
:1010C000FFF75BFA8046894632463B461046194692
:1010D000FFF753FA06460F466410002CEAD1DDE90B
:1010E0000401DDE90023BAF1000F06DAFFF745FA43
:1010F00042464B46FFF741FA05E0FFF70AF9424640
:101100004B46FFF706F904460E460022284BFFF730
:10111000BFFA03D84FF0FF30014607E00022254B0D
:1011200020463146FFF74EF8FFF799FA102409E000
:10113000002C0ADB0A220023FFF770F9039B3032F0
:101140001A55641E50EA0102F2D1641C039AC4F1DC
:1011500011031444119A012A03D0012208430DD12E
:101160000AE0084304D000204FF0110B119072E701
:10117000A3EB0B056D1E0DE05B4504DD4FF0000297
:1011800005F1010504E003DA4FF00002A5F10105C5
:10119000002AECD002981199C0E90231C0E900455B
:1011A00079E70000000014400000F03F300000002C
:1011B0000000F0430000E03F2DE9FF4F95B09A4654
:1011C000884606460025EEE1252877D100242746EB
:1011D000F94A0121039400E0044316F8013F203B43
:1011E00001FA03F01042F7D130782A2811D06FF0BD
:1011F0002F033078A0F13002092A16D8039A44F060
:10120000020402EB820203EB42021044761C0390BC
:10121000EFE758F8042B0392002A03DA504244F413
:101220000054039044F00204761C30782E2816D126
:1012300016F8010F44F004042A280DD06FF02F0295
:101240003078A0F13003092B09D807EB870302EBB4
:101250004303C718761CF3E758F8047B761C3078F4
:101260006C280FD006DC4C2817D068280DD06A28CF
:1012700014D104E0742810D07A280FD10DE044F482
:1012800000140AE044F4801401E044F4401472783D
:10129000824202D104F58014761C761C30786628D0
:1012A0000BD013DC582877D009DC002875D04528EE
:1012B000F6D04628F4D047281AD193E118E06328E5
:1012C00035D0642879D0652812D18BE1702873D08D
:1012D00008DC6728F1D069286FD06E280DD06F2800
:1012E00006D1ACE073282CD0752874D0782853D060
:1012F0005246179990476D1C54E1C4F302500228DE
:1013000009D003280DD0D8F8001004280DD00D60A6
:1013100008F1040846E1D8F80010EA17C1E90052C4
:10132000F6E7D8F800100D80F2E70D70F0E718F836
:10133000041B8DF8001000208DF80100EB46012001
:1013400003E058F804BB4FF0FF3061074FF0000195
:1013500002D40DE009F101018946B9420FDA814555
:10136000F8DB1BF809100029F4D108E009F10101AC
:1013700089468142FADB1BF809100029F6D103984F
:101380005346A0EB090721463846179A00F080FA29
:10139000284400EB090507E044E008E10DE01BF8F4
:1013A000010B524617999047B9F10109F7D25346FC
:1013B00021463846179AF2E039E00A21C4F3025276
:1013C0004FF0000B0091022A06D058F8040BC11709
:1013D000032A09D00AE023E008F1070020F0070201
:1013E000F2E80201904605E000B2C117042A01D1DB
:1013F00040B2C117002906DA0A460021404261EBDB
:1014000002012D2202E0220504D52B228DF80420B2
:10141000012203E0E20701D02022F7E7914657E0DE
:101420000A2100E010214FF0000B00910BE0102189
:101430004FF0000B44F004040827009103E008205B
:101440004FF0000B0090C4F30252022A05D058F866
:10145000040B0021032A08D008E008F1070020F05F
:101460000702F2E80201904603E080B2042A00D1AC
:10147000C0B24FF0000922072AD53278702A07D06F
:10148000DDF800C08CF0100C5CEA0B0C05D00EE00F
:1014900040228DF80420012208E050EA010306D022
:1014A00030238DF804308DF8052002229146009BF0
:1014B00083F0080353EA0B030AD150EA010201D179
:1014C000620705D530228DF804204FF001097F1EF8
:1014D0003278582A04D039A20C920CAA02920BE05E
:1014E0003BA2F9E75B46009AFEF798FF0C9B9B5CDA
:1014F000029A521E0292137050EA0102F2D102982F
:1015000004A9081A00F1200B600702D524F48034E6
:1015100000E001275F4502DDA7EB0B0000E00020A3
:1015200000EB0B01009003984944401A0390E0033C
:1015300006D453462146179A039800F0A9F90544AA
:10154000002706E001A85246C05D179990476D1C20
:101550007F1C4F45F6DBE0030CD553462146179A16
:10156000039800F095F9054404E03020524617999D
:1015700090476D1C0099481E00900029F5DC08E09A
:101580000298029952460078491C02911799904797
:101590006D1CBBF10001ABF1010BF1DC5BE100F074
:1015A00065F90544761C307800287FF40DAE19B03B
:1015B0002846BDE8F08F00000928010030313233A1
:1015C000343536373839616263646566000000007F
:1015D0003031323334353637383941424344454669
:1015E00000000000600700D4062708F1070020F083
:1015F0000700F0E80223804603F0004C5FEA0C008D
:1016000001D097A009E0200501D596A005E0E007EC
:1016100001D095A001E0AFF24C001390307823F098
:10162000004365280CD006DC452809D046281DD08B
:1016300047287FD13BE0662818D067287AD136E06A
:101640000021112F01DB112000E0781CCDE9000101
:1016500004A90CA8FFF7EEFCDDE90D010C9A4FF090
:10166000000B07F10109109200914EE04FF000408D
:101670000097CDE9011004A90CA8FFF7DBFCDDE918
:101680000D020C9B0F994FF0000B914610930092A6
:1016900011B9791C00EB0109B7EB090003D4C0F1C3
:1016A000FF3B07F10109A9EB0700019042E0012F80
:1016B00000DA01270021112F01DD112000E038465A
:1016C000CDE9000104A90CA8FFF7B4FCDDE90D0188
:1016D0000C9A00914FF0000BB946109221070FD4DD
:1016E000009A4A4503DA914601E0A9F10109B9F1EE
:1016F000010F05DD109AA9F10101515C3029F4D0E8
:10170000B84202DA10F1040F03DA0121CDE9011029
:1017100010E0002803DC8344A9EB000102E0411C37
:10172000494500DD8946A0EB0B00401C01904FF0BD
:1017300000400290200705D40198484502DB4FF095
:10174000FF30019000208DF84B0002980DF14B07FF
:10175000B0F1004F25D002200C902B200D90029864
:1017600000280CDA404202902D200D9007E00A215B
:101770000298FEF73DFE3031029007F8011D0C99EA
:10178000481E0C900029F2DC02980028EFD1791E47
:101790000D980870307800F0200040F0450007F800
:1017A000020D11A8C01BC01D02901398007800B153
:1017B000012000EB0901019801EBE071029801445E
:1017C0000398401A401E0390E00306D45346214676
:1017D000179A039800F05CF805441398007818B144
:1017E0005246179990476D1CE00323D55346214676
:1017F000179A039800F04CF805441BE0BBF1000F6A
:1018000007DB0098584504DD1098179910F80B0075
:1018100001E0179930205246904701980BF1010BD7
:10182000401E05F10105019004D12E205246179962
:1018300090476D1CB9F10001A9F10109DEDC05E05A
:1018400017F8010B5246179990476D1C0299481ED4
:1018500002900029F4DC53462146179A03989EE62D
:101860002D0000002B000000200000002DE9F041B9
:10187000044600251E461746880404D405E0394670
:101880002020B0476D1C641EF9D52846BDE8F081C4
:101890002DE9F041044600251E469046C80301D5B7
:1018A000302700E02027880404D505E0414638466B
:1018B000B0476D1C641EF9D52846BDE8F0810000D4
:1018C0000448006820B103480068401E01490860D0
:1018D000704700001400002010B504466FF00400AB
:1018E000FFF7B5F8E11704EB5171C1F3C701074ADF
:1018F00011701046007800EB4001C1EBC0104FF6AC
:10190000FF7101EAC0000249088010BD18000020E4
:101910001A00002000BF054A128802F04002002A87
:10192000F9D0C2B2014B1B1D1A807047004800401D
:101930004FF4A060FEF7B6FF00F098F8C820FFF75C
:10194000CBFFFEF751FF40F2E7316320FFF700F9CC
:101950004FF4E13000F0B2F84FF4E13000F00CF950
:1019600001E000F05FF9FCE7002000213A4A12682C
:1019700042F48032384B1A6000BF401C364A12686D
:1019800002F4003119B94FF6FF729042F5D1324A94
:10199000126802F400320AB900BFFEE72E4A403254
:1019A000126842F080522C4B40331A602B4A126866
:1019B00042F44042294B1A60274A08321268264BEB
:1019C00008331A601A46126842F400421A601A4636
:1019D000126842F4A0521A60214A1B1F1A601A1F93
:1019E000126842F080721B1F1A6000BF1A4A126808
:1019F00002F00072002AF9D0184A126842F48032CC
:101A0000164B1A6000BF154A526802F48032002A51
:101A1000F9D0124A126842F40032104B1A6000BF2B
:101A20000E4A526802F40032002AF9D00A4A0832FB
:101A3000126822F00302084B08331A601A46126833
:101A400042F002021A6000BF034A0832126802F034
:101A50000802002AF8D070470038024000700040A9
:101A60001864400910B5FFF77FFF10BD10B512488C
:101A700000684FF47A71B0FBF1F4601EB0F1807F22
:101A800001D301200FE0601E4FF0E02148610F21DB
:101A90004FF0FF30FEF710FF00204FF0E02188618B
:101AA00007200861002008B100BFFEE70021481EA2
:101AB000FEF702FF10BD00000000002010B588B046
:101AC00004462A48FFF74CF901210846FEF70AFFB1
:101AD00001214804FEF716FF0C20059002208DF826
:101AE00018008DF8190000208DF81A0001208DF8DB
:101AF0001B0005A91E48FEF708FE07220B211C4803
:101B0000FEF74BFE07220A211948FEF746FE019414
:101B10000020ADF80800ADF80A00ADF80C00ADF8F3
:101B200010000C20ADF80E0001A91048FFF7ECF9E9
:101B3000012240F225510D48FFF7C1F901210B4860
:101B4000FFF702F926208DF81C0002208DF81D00F9
:101B500000208DF81E0001208DF81F0007A8FEF759
:101B600065FE00200349088008B010BD0044004015
:101B7000000002402200002010B588B00446012178
:101B80000220FEF7AFFE01218804FEF7BBFE07220C
:101B90000A212248FEF701FE07220B211F48FEF70B
:101BA000FCFD4FF44060069002208DF81C008DF87B
:101BB0001D0000208DF81E0001208DF81F0006A9D1
:101BC0001648FEF7A2FD02940020ADF80C00ADF817
:101BD0000E00ADF81000ADF814000C20ADF81200A6
:101BE00002A90F48FFF790F901210D48FFF7ACF863
:101BF000012240F225510A48FFF761F927208DF8AC
:101C0000040002208DF805008DF8060001208DF8F3
:101C1000070001A8FEF70AFE08B010BD000402404C
:101C20000048004070B500251148008800F40040CD
:101C3000E8B10F480088C5B20EA0FFF7DBF9002419
:101C40000DE01148015D1148FFF7CDF900BF4021BB
:101C50000E48FFF7FDF80128F9D1601CC4B2AC4270
:101C6000EFDB0BA0FFF7C6F900200149088070BD2B
:101C7000200000200D0A5265636569766520646165
:101C80007461203A0D0A000028000020004800403E
:101C90000D0A0D0A00000000B81C0008000000201A
:101CA0002800000014100008E01C00082800002094
:101CB000B00800002410000800C2EB0B0000000078
:101CC00001020304010203040607080900000000E2
:101CD0000000000000000000000000000000000004
:040000050800018965
:00000001FF
