:020000040800F2
:1000000008040020A1010008C902000883020008BA
:10001000C5020008E9010008F5030008000000001F
:1000200000000000000000000000000019030008AC
:10003000ED01000800000000F50200081B030008A5
:10004000BB010008BB010008BB010008BB010008A0
:10005000BB010008BB010008BB010008BB01000890
:10006000BB010008BB010008BB010008BB01000880
:10007000BB010008BB010008BB010008BB01000870
:10008000BB010008BB010008BB010008BB01000860
:10009000BB010008BB010008BB010008BB01000850
:1000A000BB010008BB010008BB010008BB01000840
:1000B000BB010008BB010008BB010008BB01000830
:1000C000BB010008BB010008BB010008BB01000820
:1000D000BB010008BB010008BB010008BB01000810
:1000E000BB010008BB010008BB010008BB01000800
:1000F000BB010008BB010008BB010008BB010008F0
:10010000BB010008BB010008BB010008BB010008DF
:10011000BB010008BB010008BB010008BB010008CF
:10012000BB010008BB010008BB010008BB010008BF
:10013000BB010008BB010008BB010008BB010008AF
:10014000BB010008BB010008BB010008BB0100089F
:10015000BB010008BB010008BB010008BB0100088F
:10016000BB010008BB010008BB010008BB0100087F
:10017000BB010008BB010008BB0100080000000033
:10018000BB010008BB010008DFF810D000F01AF82E
:100190000048004745040008AFF300800804002031
:1001A0000648804706480047FEE7FEE7FEE7FEE711
:1001B000FEE7FEE7FEE7FEE7FEE7FEE725030008B1
:1001C00089010008064C074D06E0E06840F0010395
:1001D00094E8070098471034AC42F6D3FFF7D8FFF5
:1001E000CC050008EC05000800BFFEE77047F0B53D
:1001F0000A4600210023002400BF3DE0012505FA46
:1002000001F3156805EA03049C4234D105684F00E8
:100210000326BE40B543056015794E00B54006681B
:10022000354305601579012D02D01579022D16D1BF
:1002300085684F000326BE40B543856055794E0062
:10024000B540866835438560456801268E40B543D4
:100250004560456896798E40B6B235434560C568BD
:100260004F000326BE40B543C560D5794E00B5406A
:10027000C6683543C560491C1029BFD3F0BD018352
:10028000704700BFFEE700001CB50121202000F0F0
:1002900033F81C20009001208DF8040000208DF818
:1002A000060003208DF8050001208DF8070069463F
:1002B0000348FFF79CFF1C210148FFF7E0FF1CBD2E
:1002C0000014024000BFFEE77047000010B5002890
:1002D00007DA0A07140E054A00F00F031B1FD45457
:1002E00003E00A07130E024A135410BD18ED00E094
:1002F00000E400E07047000029B1064A126802439A
:10030000044B1A6004E0034A12688243014B1A60EE
:100310007047000030380240704710B500F086F892
:1003200010BD000008B52F48006840F470002D494A
:1003300008602D48006840F001002B49086000BFAC
:100340002948006800F002000028F9D000BF2648C4
:10035000083000682449083108600020009002E05D
:100360000098401C009000985028F9D31E4808308F
:10037000006840F090001C4908310860002000909F
:1003800002E00098401C009000985028F9D300BF6C
:1003900015480830006820F0030013490831086050
:1003A00011480068114908400F4908600846006874
:1003B00020F48020086000200B490831086000BF4D
:1003C00009480830006800200028F9D1084806498B
:1003D000091D0860002004490C31086000F0CAF8CB
:1003E00008BD000088ED00E000380240FFFFF6FE87
:1003F0001030002400BFFEE702E008C8121F08C149
:10040000002AFAD170477047002001E001C1121F95
:10041000002AFBD1704700000349086000BF024971
:1004200009680029FBD170470400002004480068D7
:1004300020B103480068401E014908607047000071
:100440000400002000F09AF8FFF71EFF0EE00020E5
:10045000074908604FF47A70FFF7DEFF0120054975
:10046000C1F890024FF47A70FFF7D6FFEFE7000073
:100470009082424200804242002000213A4A1268A3
:1004800042F48032384B1A6000BF401C364A126872
:1004900002F4003119B94FF6FF729042F5D1324A99
:1004A000126802F400320AB900BFFEE72E4A403259
:1004B000126842F080522C4B40331A602B4A12686B
:1004C00042F44042294B1A60274A08321268264BF0
:1004D00008331A601A46126842F400421A601A463B
:1004E000126842F4A0521A60214A1B1F1A601A1F98
:1004F000126842F080721B1F1A6000BF1A4A12680D
:1005000002F00072002AF9D0184A126842F48032D0
:10051000164B1A6000BF154A526802F48032002A56
:10052000F9D0124A126842F40032104B1A6000BF30
:100530000E4A526802F40032002AF9D00A4A083200
:10054000126822F00302084B08331A601A46126838
:1005500042F002021A6000BF034A0832126802F039
:100560000802002AF8D070470038024000700040AE
:100570001964400910B5FFF77FFF10BD10B5124890
:1005800000684FF47A71B0FBF1F4601EB0F1807F27
:1005900001D301200FE0601E4FF0E02148610F21E0
:1005A0004FF0FF30FFF792FE00204FF0E02188610E
:1005B00007200861002008B100BFFEE70021481EA7
:1005C000FFF784FE10BD000000000020EC050008CD
:1005D0000000002008000000F8030008F4050008EF
:1005E00008000020000400000804000800C2EB0B13
:0405F0000000000007
:040000050800018965
:00000001FF
