:020000040800F2
:100000009808002031020008350A0008550500084C
:100010001D0A000839050008DD0E00080000000078
:10002000000000000000000000000000370B000886
:100030003D05000800000000350B0008390B0008E2
:100040004B0200084B0200084B0200084B0200085C
:100050004B0200084B0200084B0200084B0200084C
:100060004B0200084B0200084B0200084B0200083C
:100070004B0200084B0200084B0200084B0200082C
:100080004B0200084B0200084B0200084B0200081C
:100090004B0200084B0200084B0200084105000813
:1000A0004B0200084B0200084B0200084B020008FC
:1000B000650C00084B0200084B0200084B020008C8
:1000C0004B0200084B0200084B0200084B020008DC
:1000D0004B0200084B0200084B0200084B020008CC
:1000E0004B0200084B0200084B0200084B020008BC
:1000F0004B0200084B0200084B0200084B020008AC
:100100004B0200084B0200084B0200084B0200089B
:100110004B0200084B0200084B0200084B0200088B
:100120004B0200084B0200084B0200084B0200087B
:100130004B0200084B0200084B0200084B0200086B
:100140004B0200084B0200084B0200084B0200085B
:100150004B0200084B0200084B0200084B0200084B
:100160004B0200084B0200084B0200084B0200083B
:100170004B0200084B0200084B0200080000000080
:100180004B0200084B02000800F002F800F041F8B2
:100190000AA090E8000C82448344AAF10107DA45E2
:1001A00001D100F036F8AFF2090EBAE80F0013F0F3
:1001B000010F18BFFB1A43F001031847081800008D
:1001C00028180000103A24BF78C878C1FAD852071E
:1001D00024BF30C830C144BF04680C6070470000C1
:1001E0000023002400250026103A28BF78C1FBD840
:1001F000520728BF30C148BF0B607047642900F028
:100200004580002070471FB501F0D6FB1FBD10B51B
:1002100010BD00F05FF91146FFF7F5FF01F044F85B
:1002200000F07DF903B4FFF7F2FF03BC00F058FEC5
:100230000948804709480047FEE7FEE7FEE7FEE77A
:10024000FEE7FEE7FEE7FEE7FEE7FEE704480549B6
:10025000054A064B70470000410B00088901000861
:10026000980000209808002098040020980400209E
:10027000704700000FB4044910B503AA029800F0BB
:10028000FBF810BC5DF814FB180000202DE9F041CC
:100290000646002410687529314616A510D0AFF324
:1002A0000080002802DA404213A507E031688A077F
:1002B00001D512A502E0490704D511A5012401E0EA
:1002C000AFF3008000210A2206F1240709E0B0FB09
:1002D000F2FCB0FBF2F302FB1C00303078541846FD
:1002E000491C0028F3D123462A463046BDE8F04198
:1002F00000F068B8000000002D0000002B00000096
:10030000200000002DE9F0410F460546002028623C
:100310002846E968884770B3252805D0D5E901212A
:100320009047286A401CF2E7E9682846002688477B
:100330006C2804460AD0682C08D04C2C35D06A2C86
:1003400031D0742C31D07A2C2FD016E0E9680646D3
:1003500028468847B042044608D16C2E23D04FF47B
:1003600080662846E9688847044606E06C2E03D07C
:100370004FF4807601E01EE04026E4B1A4F1410094
:10038000192802D8203446F400663A462146284609
:100390002E60FFF733FF60B1012808D0FF1D27F062
:1003A00007070837B4E78026DBE70026D9E73F1DBB
:1003B000AEE72046B2E7286ABDE8F0817047704793
:1003C000704770472DE9F0470D469946924604461E
:1003D00000F124080168880604D5E06921F01001C5
:1003E000216000E00120A84201DD471B00E000275A
:1003F000A1697A1902EB0900081AA0612078C006E9
:1004000002D42046AFF30080002608E0D4E90121A1
:100410001AF806009047206A401C761C20624E4560
:10042000F4DB2078C0060AD52046AFF3008006E052
:10043000D4E9012130209047206A401C2062381EF8
:10044000A7F10107F4DC07E0D4E9012118F8050061
:100450009047206A401C2062281EA5F10105F3DCAC
:100460002046AFF300802078000602D50220BDE8C8
:10047000F0870120FBE70000074B70B50D467B4479
:1004800000F011F80446284600F020F810B14FF0B3
:10049000FF3070BD204670BD570B000001694A1C3B
:1004A00002610878704700B58FB0CDE901310021B5
:1004B000059105497944CDE9031011466846FFF7D7
:1004C00021FF0FB000BD0000E5FFFFFF007B00F043
:1004D00080007047754600F02BF8AE46050069466F
:1004E000534620F00700854618B020B5FFF7AEFE52
:1004F000BDE820404FF000064FF000074FF0000825
:100500004FF0000B21F00701AC46ACE8C009ACE8A5
:10051000C009ACE8C009ACE8C0098D46704710B509
:100520000446AFF300802046BDE81040FFF77ABED6
:10053000004870473400002000BFFEE7704700000D
:1005400010B5202000F042FD01200149087010BDC7
:100550000600002000BFFEE710B540F6014000F0A5
:10056000F1FF40220421294800F048FD80220421A7
:10057000264800F043FD402301220221234800F0D9
:1005800075FD402302220121204800F096FD8023C2
:10059000012202211D4800F069FD80230222012171
:1005A0001A4800F08AFD41F2150000F0CBFF184C0C
:1005B00000221849204600F0B9FD462300221146CA
:1005C000204600F058FE204600F023FE0121204680
:1005D00000F094FD00BF4FF4406000F0B3FF202313
:1005E000022200210C4800F041FD002202211720C8
:1005F00000F0AAFE00221146202000F089FC2020F5
:1006000000F0E4FCB42000F06DFC10BD00040240DA
:1006100000540040A08601000000024010B540F6E2
:10062000014000F08FFF102300220121044800F058
:100630001DFD102302220021014800F03EFD10BDE7
:100640000004024010B51021014800F006FD10BD65
:100650000004024010B51021014800F000FD10BD5B
:10066000000402401FB50446062202A93B2000F008
:10067000BFF89DF809009DF8081040EA012000B27B
:10068000ADF800009DF80B009DF80A1040EA01202B
:1006900000B2ADF802009DF80D009DF80C1040EA84
:1006A000012000B2ADF80400002020E03DF9101058
:1006B00000290CDB3DF810204FF4FA6312FB03F124
:1006C000CA1701EB5242D21344F820200EE03DF944
:1006D0001020C2F1010252424FF4FA6302FB03F10F
:1006E000CA1701EB5242D21344F82020401C0328C1
:1006F000DCD31FBD1FB50446062202A9432000F02B
:1007000077F89DF809009DF8081040EA012000B232
:10071000ADF800009DF80B009DF80A1040EA01209A
:1007200000B2ADF802009DF80D009DF80C1040EAF3
:10073000012000B2ADF80400002020E03DF91010C7
:1007400000290CDB3DF810204FF4FA6312FB03F193
:10075000CA1701EB5242D21344F820200EE03DF9B3
:100760001020C2F1010252424FF4FA6302FB03F17E
:10077000CA1701EB5242D21344F82020401C032830
:10078000DCD31FBD08B5002000900122694675200A
:1007900000F02EF89DF80000682801D0002008BD68
:1007A0000120FCE770B50024002500BF06E000250D
:1007B00000E06D1CB5F57A7FFBDB641CB4F57A7F35
:1007C000F5DB00216B2000F0BFF80721192000F0B5
:1007D000BBF806211A2000F0B7F800211C2000F019
:1007E000B3F818211B2000F0AFF800F003F970BD3A
:1007F00070B506460D46144600BF40F201615148EF
:1008000000F020FD0028F8D1022C03D100214D4832
:1008100000F080FC4B4800F03CFD00BF4FF4A061AD
:10082000484800F00FFD0028F8D06FF00102D021F9
:10083000444800F016FD00BF40F20151414800F06D
:1008400001FD0028F8D040F201513E4800F0E6FCDE
:1008500000BF40F207513B4800F0F4FC0128F8D1FA
:10086000384800F0D6FC3146364800F0CFFC00BFD7
:1008700040F20251334800F0E5FC0028F8D031483E
:1008800000F007FD00BF4FF4A0612E4800F0DAFC35
:100890000028F8D00122D0212A4800F0E2FC032CE5
:1008A00003DA0021274800F029FC00BF40F2015183
:1008B000244800F0C7FC0028F8D040F2015121483C
:1008C00000F0ACFC012C02D11E4800F0E7FC27E050
:1008D000032C0BD100BF40F202511A4800F0B2FCC9
:1008E0000028F8D00021174800F008FC022C0AD19B
:1008F00000BF40F20251134800F0A4FC0028F8D0D9
:10090000104800F0CBFC40F206510E4800F09AFC73
:1009100030B10C4800F076FC28706D1C601EC4B22B
:10092000002CD5D100BF0748006800F400700028F3
:10093000F9D10121034800F0E1FB0121014800F059
:10094000E9FB70BD0054004070B504460D4600BF81
:1009500040F20161264800F075FC0028F8D12448D7
:1009600000F097FC00BF4FF4A061214800F06AFC42
:100970000028F8D06FF00102D0211D4800F071FC72
:1009800000BF40F201511A4800F05CFC0028F8D08A
:1009900040F20151164800F041FC00BF40F20751FF
:1009A000134800F04FFC0128F8D12146104800F010
:1009B0002DFC00BF40F202510D4800F043FC00281E
:1009C000F8D029460A4800F021FC00BF40F202514D
:1009D000074800F037FC0028F8D0054800F05EFC1E
:1009E00000BF0348006800F400700028F9D170BD12
:1009F0000054004010B500F013F804211A20FFF74E
:100A0000A3FF04211C20FFF79FFF1C213720FFF7C5
:100A10009BFF40213820FFF797FF10BD00BFFEE786
:100A200010B51E211F20FFF78FFF14212020FFF794
:100A30008BFF10BD7047000010B5002807DA0A07C9
:100A4000140E054A00F00F031B1FD45403E00A07DD
:100A5000130E024A135410BD18ED00E000E400E04C
:100A600070B5002419E004F1B001C8B2002100F013
:100A700017F80021084600F013F80021102000F0BC
:100A80000FF8002505E00121002000F009F8681C9E
:100A9000C5B2802DF7DB601CC4B2082CE3DB70BD4F
:100AA00070B504460E462EB1012291031E4800F097
:100AB000D8FA05E000224FF480411B4800F0D1FA3B
:100AC00000224FF48061184800F0CBFA00251DE0A9
:100AD00000224FF48071154800F0C3FA04F0800042
:100AE00028B101225102124800F0BBFA05E00022B1
:100AF0004FF400710E4800F0B4FA012211020B48C5
:100B000000F0AFFA6006040E681CC5B2082DDFDBEA
:100B100001229102044800F0A4FA01229103024844
:100B200000F09FFA70BD0000000C0240000002407F
:100B3000000802407047704710B500F0DDF910BDA5
:100B400008B52948006840F4700027490860274824
:100B5000006840F00100254908602448083000681A
:100B600040F080002149083108600020009002E038
:100B70000098401C00904CF2503100988842F7D306
:100B80001A480830006840F09000184908310860A1
:100B90000020009002E00098401C00904CF2503180
:100BA00000988842F7D3002010490831086000BF40
:100BB0000E480830006800200028F9D10B48006872
:100BC0000B490840094908600A48091D0860081FC8
:100BD000006820F48020091F0860002003490C31C0
:100BE000086000F075FD08BD88ED00E000380240A7
:100BF000FFFFF6FE103000240748007800F02000C8
:100C000038B10548007800F0DF0003490870012082
:100C100070470020FCE70000100000200748007823
:100C200000F0100038B10548007800F0EF000349EB
:100C30000870012070470020FCE700001000002031
:100C40000748007800F0080038B10548007800F047
:100C5000F70003490870012070470020FCE70000FE
:100C60001000002010B50121880700F07DFE00284B
:100C700059D02F480068401C2D490860084600786C
:100C800000F0010028B92B48007840F00100294904
:100C90000870274800680521B0FBF1F201FB120043
:100CA00028B92448007840F0020022490870204802
:100CB00000680A21B0FBF1F201FB120028B91D48BF
:100CC000007840F004001B4908701948006814219E
:100CD000B0FBF1F201FB120028B91648007840F091
:100CE000080014490870124800686421B0FBF1F252
:100CF00001FB120028B90F48007840F010000D49A0
:100D000008700B4800684FF47A71B0FBF1F201FBF8
:100D1000120040B90748007840F0200005490870EB
:100D20000020034908600121880700F0CAFD10BDBA
:100D300014000020100000201FB54FF4805000F078
:100D400001FC4FF0807000F033FC4FF0804000F069
:100D5000F1FCA720ADF800000020ADF80200ADF8CE
:100D6000040040F2E73002900020ADF806008DF854
:100D70000C0069464FF0804000F0A6FD4FF4C060C3
:100D800000F044FB012200211C2000F0DDFA0121CB
:100D9000880700F0E5FD4FF0804000F0C5FC4FF003
:100DA000804000F089FD1FBD10B54FF4406000F099
:100DB000C9FB41F2041000F0C5FB4FF4007207219B
:100DC000154800F01BF94FF400730022022112486D
:100DD00000F04CF94FF40073022200210E4800F09D
:100DE0006CF94FF4806207210B4800F007F94FF4CB
:100DF000806300220221084800F038F94FF4806334
:100E000002220021044800F058F900220121252087
:100E100000F09AFA10BD00000000024010B540F644
:100E2000024000F08FFB41F2051000F08BFB4022E6
:100E30000821104800F0E2F84023012202210D4869
:100E400000F014F94023022200210A4800F035F98D
:100E500080220821074800F0D1F8802301220221D6
:100E6000044800F003F9802302220021024800F028
:100E700024F910BD0008024000000240F8B5044605
:100E80000E4600251448204418B1B0F5806F13D1E8
:100E900008E0FFF789FF01208DF800008DF80100C0
:100EA00025250AE0FFF7BAFF01208DF80000002099
:100EB0008DF80100472500E000BF00BF9DF801202C
:100EC0009DF80010284600F03FFA40F20531204618
:100ED00000F065FDF8BD000000F0FEBF00BFFEE7BA
:100EE00000BF70470349086000BF02490968002934
:100EF000FBD170470C0000200448006820B1034873
:100F00000068401E01490860704700000C00002086
:100F100010B52D4B1B6883432B4C2360231D1B688E
:100F20008343241D2360231D1B688343241D2360EA
:100F3000231D1B688343241D236011B101290ED199
:100F400005E0214B1B6803431F4C236008E01E4B48
:100F50001B1D1B6803431C4C241D236000E000BFC5
:100F600000BF32B1012A11D0022A1CD0032A27D196
:100F700027E0154B08331B680343134C08342360E8
:100F8000231D1B688343241D23601BE00E4B083385
:100F90001B6883430C4C08342360231D1B680343E8
:100FA000241D23600EE0084B08331B680343064CE6
:100FB00008342360231D1B680343241D236001E0C4
:100FC00000BF00BF00BF10BD003C014001490860E8
:100FD00070470000143C014070B504460D4600BF48
:100FE0000621054800F0CCFC0028F9D0C4F3080025
:100FF00001494860204670BD00100140F0B503462D
:101000001C6A5D6A00200DE00126864016403EB154
:1010100087000F26BE40B443860001FA06F634432B
:10102000461CB0B20828EFD3082011E00126864004
:1010300016405EB1A0F10806B7000F26BE40B543CA
:10104000A0F10806B60001FA06F63543461CB0B218
:101050001028EBD31C625D62F0BD81627047816134
:1010600070470AB1816100E081627047F0B50446C3
:101070000D4616462168E268002019E001278740E6
:101080001F409FB14FEA400C032707FA0CF7B94302
:10109000470005FA07F739434FEA400C032707FAE0
:1010A0000CF7BA43470006FA07F73A43471CB8B2B1
:1010B0001028E3D32160E260F0BDF0B50C46154680
:1010C000012C03D146681E43466002E046689E43F9
:1010D0004660826800210DE001268E401E403EB130
:1010E0004F000326BE40B2434E0005FA06F63243D7
:1010F0004E1CB1B21029EFD38260F0BD012904D19A
:10110000026842F48062026003E0026822F48062B6
:101110000260704721B9026842F40062026003E095
:10112000026822F400620260704700002DE9F05F5F
:1011300004460E469346022000F072F907462E48F8
:10114000B7FBF0F8B8F1320F01D34FF03208D4F802
:1011500004A02AF03F0A4AEA080AC4F804A0274873
:10116000864218D82448B7FBF0F000F10109B9F124
:10117000320F02D33220206201E0C4F820907000C8
:10118000B7FBF0F5042D00D20425E069C5F30B018F
:101190000843E0612EE01A4886422BD84FF496703F
:1011A00008FB00F04FF47A71B0FBF1F0401C2062B4
:1011B000BBF1000F08D106EB4600B7FBF0F5E06984
:1011C00020F48040E06109E006EBC60000EB061069
:1011D000B7FBF0F5E06940F48040E061C5F30B0037
:1011E00008B945F00105E06940F40040E061E069BC
:1011F0002843E061BDE8F09F40420F00A086010057
:10120000801A060001460869C0B27047CAB202617E
:101210007047016841F001010160704710B540F26C
:101220000152914202D1426982690AE000EB9112B7
:10123000126801F01F040123A3409A4300EB9113AD
:101240001A6010BD10B5024602EB9110006801F063
:101250001F040123A340184008B1012010BD002045
:10126000FCE712F1020F02D121F0010101E041F08F
:1012700001010161704730B50C460021016821F081
:10128000020121430160C3F3090342EA03058560BB
:1012900030BD016841F4807101607047016841F41C
:1012A000007101607047000000F016FAFFF7B6F910
:1012B000FFF752F94FF4E1311948FFF7DFFDFFF76F
:1012C00071FAFFF75FFA08B900BFFEE7FFF734FDD8
:1012D00025E0FFF7B5FC08B1FFF7C2FBFFF79EFC66
:1012E00068B11048007880F001000E490870084687
:1012F000007810B1FFF7A6F901E0FFF7ABF9FFF7AF
:101300007BFC30B1084883684268016807A0FEF79B
:10131000B1FF0C48FFF7A6F90348FFF7EBF9D8E750
:10132000001001400800002028000020783A256CB9
:10133000642C20793A256C642C207A3A256C640A56
:10134000000000001C0000202DE9F04103460D467E
:10135000164600240027A0462A48006800F4E060F2
:10136000B0F5E06F03D100BF4FF0040830E025482E
:10137000006800F4E060B0F5C06F03D101274FF0C2
:10138000030825E01F48006800F4E060B0F5A06F96
:1013900002D10227B8461BE01A48006800F4E0605A
:1013A000B0F5806F03D103274FF0010810E0154816
:1013B000006800F4E060B0F5407F03D104274FF0EF
:1013C000000805E04FF4A06000F020F80227B846BE
:1013D000C7F1040005FA00F4C8F104010F20C84069
:1013E0003040044324010848C45403F01F01012085
:1013F00088405911890001F1E021C1F80001BDE8E0
:10140000F08100000CED00E000E400E0024901433F
:10141000024A1160704700000000FA050CED00E080
:101420002DE9F04F8CB0064600200A903EA090E8CF
:10143000004CC068CDE905BECDF810A007900FF2B2
:10144000EC0ADAE9000ACDE9020A0FF2E00ADAE969
:10145000000ACDE9000A38480068C0F381000B900B
:101460000B9820B1012804D0022828D103E0334989
:1014700027E0334925E03048001F006800F03F07AF
:101480002D48001F0068C0F3881C2B48001F00680F
:10149000C0F30140401C4FEA40092748001F006884
:1014A00000F48008B8F5800F01D1254B00E0234BF4
:1014B000B3FBF7F000FB0CF0B0FBF9F101E01F49C2
:1014C00000BF00BF1C480068C0F3031404A8055DFA
:1014D00021FA05F218480068C0F3822402A8055DCD
:1014E00022FA05F0099014480068C0F342341DF850
:1014F000045022FA05F0089036B1012E06D0022ED3
:1015000006D0032E0AD106E00A9108E00A9206E00E
:1015100009980A9003E008980A9000E000BF00BF15
:101520000A980CB0BDE8F08F000000000000000039
:101530000102030406070809083802400024F400E9
:1015400000127A00074A02EB9011D1F8001800F05F
:101550001F0301229A401143024B03EB9012C2F881
:101560000018704700300240074A02EB9011D1F892
:10157000001800F01F0301229A409143024B03EB35
:101580009012C2F80018704700300240074A02EB80
:101590009011D1F8001800F01F0301229A40114366
:1015A000024B03EB9012C2F8001870470030024063
:1015B0006FF08071884205D1054909680140044AED
:1015C000116004E0024909680143014A1160704753
:1015D0008C38024000203B49096841F48031394A87
:1015E000116000BF3749096801F4003129B901468B
:1015F000401C4FF6FF729142F4D13249096801F460
:10160000003109B900BFFEE72E494031096841F0B9
:1016100080512C4A403211602B49096841F4404105
:10162000294A1160274908310968264A08321160A1
:101630001146096841F4004111601146096841F4FE
:10164000A05111602149121F1160111F096841F05A
:101650008071121F116000BF1A49096801F0007102
:101660000029F9D01849096841F48031164A1160FF
:1016700000BF1549496801F480310029F9D01249A9
:10168000096841F40031104A116000BF0E494968F1
:1016900001F400310029F9D00A490831096821F024
:1016A0000301084A083211601146096841F002013D
:1016B000116000BF03490831096801F008010029E1
:1016C000F8D07047003802400070004008544007CE
:1016D00010B5FFF77FFF10BD10B5124800684FF43A
:1016E0007A71B0FBF1F4601EB0F1807F01D301206C
:1016F0000FE0601E4FF0E02148610F214FF0FF30F6
:10170000FFF79AF900204FF0E02188610720086177
:10171000002008B100BFFEE70021481EFFF78CF94A
:1017200010BD000000000020016841F08001016050
:101730007047000010B504465C49601A8C426FD0B7
:1017400019DC5B49A4EB01008C424ED009DCB4F1FA
:10175000804F2ED057482044A0B3B0F5806F72D18F
:101760003AE0B0F5806F49D0B0F5006F4FD0B0F5DA
:10177000406FF4D17BE0B0F5923F5BD009DCB0F56F
:10178000806F73D0B0F5644F0AD0B0F5684F5AD16E
:1017900047E0B0F5943F57D0B0F5963F53D15CE0A9
:1017A0004FF41060FFF7F2FE4FF41060FFF7DCFE1D
:1017B00079E04FF40060FFF7E9FE4FF40060FFF7B7
:1017C000D3FE70E0FFE740F60100FFF7DFFE40F6D2
:1017D0000100FFF7C9FE66E040F60200FFF7D6FE03
:1017E00040F60200FFF7C0FE5DE040F60300FFF7A1
:1017F000CDFE40F60300FFF7B7FE54E040F60400CC
:10180000FFF7C4FE40F60400FFF7AEFE4BE040F6E3
:101810000500FFF7BBFE40F60500FFF7A5FE42E01E
:101820002EE040F60110FFF7B1FE40F60110FFF781
:101830009BFE38E04FF41160FFF7A8FE4FF41160F3
:10184000FFF792FE2FE02DE040F61110FFF79EFE0D
:1018500040F61110FFF788FE25E040F61210FFF762
:1018600095FE40F61210FFF77FFE1CE011E040F6F7
:101870000600FFF78BFE40F60600FFF775FE12E04C
:1018800040F60700FFF782FE40F60700FFF76CFE08
:1018900009E040F60800FFF779FE40F60800FFF780
:1018A00063FE00E000BF00BF10BD0000001C004050
:1018B000000C004000FCFFBF016841F00101016025
:1018C0007047CA43026170470A8882621D4A90428B
:1018D0000ED0B0F1804F0BD01B4A904208D01B4A6B
:1018E000904205D01A4A904202D01A4A90420BD137
:1018F000026822F07002026002684B881A4302609C
:1019000002688B881A4302608A68C262124A904257
:101910000AD0124A904207D0026822F44072026054
:101920000268CB881A430260064A904202D0094AF4
:10193000904201D10A7B0263426942F00102426196
:101940007047000000000140000400400008004013
:10195000000C004000040140001000400014004052
:10196000C2680A43C26070470246D06800EA0103B9
:101970001069084010B10BB1012070470020FCE74E
:1019800010B5024602EB9110006801F01F0401231C
:10199000A340184008B1012010BD0020FCE710B59D
:1019A00000EB9112126801F01F040123A3401A43B7
:1019B00000EB91131A6010BD4FF04070E1EE100A79
:1019C00070470000E4190008000000201C0000001F
:1019D000C4010008001A00081C0000207C08000058
:1019E000E0010008007A030A000000000000000087
:1019F00000000000000000000000000000000000E7
:040000050800018965
:00000001FF
