:020000040800F2
:10000000D80F0020D5020008BD250008DD2000081B
:10001000A5250008BF1D00084D32000800000000A3
:10002000000000000000000000000000EB250008B8
:10003000C31D000800000000E9250008ED250008A8
:10004000EF020008EF020008EF020008EF020008CC
:10005000EF020008EF020008EF020008EF020008BC
:10006000EF020008EF020008EF020008EF020008AC
:10007000EF020008EF020008EF020008EF0200089C
:10008000EF020008EF020008EF020008EF0200088C
:10009000EF020008EF020008EF020008C920000884
:1000A000EF020008EF020008EF020008EF0200086C
:1000B000592D0008A52E0008EF020008EF020008E5
:1000C000EF020008EF020008EF020008EF0200084C
:1000D000EF020008992F0008EF020008EF02000865
:1000E000EF020008EF020008EF020008EF0200082C
:1000F000EF020008EF020008EF020008EF0200081C
:10010000EF020008EF020008EF020008EF0200080B
:10011000EF020008EF020008EF020008EF020008FB
:10012000EF020008EF020008EF020008EF020008EB
:10013000EF020008EF020008EF020008EF020008DB
:10014000EF020008EF020008EF020008EF020008CB
:10015000EF020008EF020008EF020008A1300008DB
:10016000EF020008EF020008EF020008EF020008AB
:10017000EF020008EF020008EF0200080000000094
:10018000EF020008EF02000800F002F800F092F819
:100190000AA090E8000C82448344AAF10107DA45E2
:1001A00001D100F087F8AFF2090EBAE80F0013F0A2
:1001B000010F18BFFB1A43F0010318470440000069
:1001C00024400000103A24BF78C878C1FAD85207FA
:1001D00024BF30C830C144BF04680C6070470000C1
:1001E0000023002400250026103A28BF78C1FBD840
:1001F000520728BF30C148BF0B6070476E2900F01E
:100200004083702900F0AB84662903F05687652986
:1002100003F05387672903F05087612903F04F8764
:1002200003681B0A28BF41F08001692900F0D280D1
:10023000642900F0CF80752900F0CC806F2900F090
:100240003984782900F07784E92900F0D383E42900
:1002500000F0D083F52900F0CD83EF2900F036843B
:10026000F82900F076840368DB0928BF41F080019B
:10027000632900F04283732900F04783E32901F0EA
:100280008580F32901F08A80002070471FB503F0B4
:100290000FFF01F0D9F804000020002103F0F2FE66
:1002A000401C60600020002103F0D6FEE0601FBD0E
:1002B00010B510BD01F09AF81146FFF7E7FF03F003
:1002C000C5F901F073F903B4FFF7F2FF03BC02F0C4
:1002D000DEFF00000948804709480047FEE7FEE7C7
:1002E000FEE7FEE7FEE7FEE7FEE7FEE7FEE7FEE7E6
:1002F00004480549054A064B70470000F5250008EB
:1003000089010008D8070020D80F0020D80B002052
:10031000D80B0020704700001CB50C46064B7B44F0
:1003200069460090204600F0C6FA0446002069465F
:1003300000F0D4FA20461CBDBB0500000FB40449F0
:1003400010B503AA029800F0E5FA10BC5DF814FBA2
:10035000340000200FB41CB5084B06AA7B44694644
:100360000090059800F0A7FA04460020694600F0C6
:10037000B5FA20461CBC5DF814FB00007D050000AA
:1003800070B50C460546012A05D02878800600D5B0
:10039000EA69002302E0012305E05B1C934202D2DC
:1003A000E05C0028F9D1A869E618C01AA861286A9B
:1003B00018442862284600F0D2F904E0D5E901216A
:1003C00014F8010B9047B442F8D3284600F0DDF949
:1003D00070BD00002DE9F041064600241068752923
:1003E000314616A510D000F0E1F9002802DA4042AB
:1003F00013A507E031688A0701D512A502E0490775
:1004000004D511A5012401E000F0D9F900210A2248
:1004100006F1240709E0B0FBF2FCB0FBF2F302FBAB
:100420001C00303078541846491C0028F3D123466C
:100430002A463046BDE8F04100F0CAB9000000008D
:100440002D0000002B000000200000002DE9F05FCF
:10045000894604464FF0000ADFF874B1FB44C0F847
:1004600020A02046E1688847002874D0252806D0BF
:10047000D4E901219047206A401C2062F1E7002660
:100480005F462046E16888472028054607DB312D76
:1004900005D2781910F8200C08B10643F1E7B0072F
:1004A00001D526F00406C4F81CA00027C4F818A043
:1004B0002A2D09D0284602F0E3FE38B304EB870862
:1004C000303DC8F8185019E059F8041B204604EBD9
:1004D00087029161E1688847012F054618D1E069DC
:1004E000002820DA26F020061DE0D8F8180000EBDE
:1004F000800005EB40003038C8F818002046E1685D
:100500008847054602F0BCFE0028EED1012F0AD034
:100510002E2D08D12046E16888477F1C0546022F12
:1005200046F02006C4DBA069002803DA404246F00A
:100530000106A061F00701D026F010066C2D0BD04B
:10054000682D09D04C2D39D06A2D35D0742D35D079
:100550007A2D33D016E038E0E1682F4620468847F0
:10056000B842054609D16C2F26D04FF48060E1686F
:10057000064320468847054604E06C2F1AD04FF406
:10058000807006430DB3A5F14100192802D820352B
:1005900046F400664A462946204626604E46FFF746
:1005A0002DFE80B101280BD0F61D26F0070000F1CA
:1005B000080956E74020E4E78020D8E70020D6E786
:1005C00006F104094DE7284652E7206ABDE8F09F8E
:1005D000623C000030B505460B462A4613F8014B35
:1005E00012F8010B08B1A042F8D01CB1002802D0CB
:1005F0006D1CF1E7284630BD40EA0103024630B5E4
:100600009B0710D14FF0013400E008C208C91D1B40
:100610009D4315EAC41FF8D013F0FF0102F8011B37
:100620000DD01B0AF8E711F8013B002B02F8013B43
:1006300005D011F8013B002B02F8013BF3D130BD8E
:1006400010B5431C02E010F8011B71B18107FAD10B
:100650004FF0013202C88C1A8C4314EAC211F9D04F
:10066000C01A0A0603D0C01E10BDC01A10BD0A046D
:1006700001D0801E10BD0902FCD0401E10BD032A0F
:1006800040F2308010F0030C00F0158011F8013BAF
:10069000BCF1020F624498BF11F801CB00F8013B96
:1006A00038BF11F8013BA2F1040298BF00F801CB5A
:1006B00038BF00F8013B11F0030300F05B82083AF9
:1006C000C0F0088051F8043B083A51F804CBA0E888
:1006D0000810F5E7121D5CBF51F8043B40F8043BDD
:1006E000AFF30080D20724BF11F8013B11F801CB12
:1006F00048BF11F8012B24BF00F8013B00F801CBE3
:1007000048BF00F8012B70474FF0000200B51346B8
:1007100094469646203922BFA0E80C50A0E80C5021
:10072000B1F12001BFF4F7AF090728BFA0E80C50D2
:1007300048BF0CC05DF804EB890028BF40F8042BCB
:1007400008BF704748BF20F8022B11F0804F18BF38
:1007500000F8012B7047704770477047704770B5BD
:10076000044685690068C10601D5302600E02026D0
:10077000C00707D070BDD4E9012130469047206AF8
:10078000401C20626D1EF6D570BD70B504468569AB
:100790000078C00707D170BDD4E90121202090471F
:1007A000206A401C20626D1EF6D570BD09684A059E
:1007B00001D540B27047C905FCD500B27047096841
:1007C0004A0501D5C0B27047C905FCD580B2704753
:1007D0002DE9F0470D4699469246044600F124085B
:1007E0000168880604D5E06921F01001216000E06D
:1007F0000120A84201DD471B00E00027A1697A190A
:1008000002EB0900081AA0612078C00602D4204635
:10081000FFF7A5FF002608E0D4E901211AF8060039
:100820009047206A401C761C20624E45F4DB2078FD
:10083000C0060AD52046FFF792FF06E0D4E9012161
:1008400030209047206A401C2062381EA7F1010723
:10085000F4DC07E0D4E9012118F805009047206A8C
:10086000401C2062281EA5F10105F3DC2046FFF79D
:100870008CFF2078000602D50220BDE8F087012019
:10088000FBE711680268006A530501D508700AE0A9
:10089000D30501D5088006E0130603D5C217C1E9C8
:1008A000000200E0086001207047000001694A1C56
:1008B00002610878704700B58FB0CDE901310021A1
:1008C000059105497944CDE9031011466846FFF7C3
:1008D000BDFD0FB000BD0000E5FFFFFF0A6802F894
:1008E000010B0A60704710B5436913B1AFF3008084
:1008F00001E0FFF745FD012010BD127800F1240151
:100900000A7000224A700122EDE711684FF0FF32B1
:10091000E9E70000074B70B50D467B44FFF7CBFFBE
:100920000446284600F03EFD10B14FF0FF3070BD88
:10093000204670BD6B2A00002DE9FF5F15468A46F0
:100940000446DFF8AC80F8440027D8E900103E46A2
:10095000CDE9001010E03AF816106A4602A800F03F
:1009600025FD411C07D02178890603D5E269391895
:1009700091420DD80744761C2078800602D5E069A4
:10098000B84205DDAE42E6DB3AF816000028E2D1B7
:10099000A069C01BA0612046FFF7E1FED8E9001066
:1009A000CDE90010002017E03AF818106A4602A8B6
:1009B00000F0FCFCB0F1FF3F81460BD000250DF1AB
:1009C000080B05E0D4E901211BF8050090476D1CD8
:1009D0004D45F7D308F10100B0428046E4DB206AC0
:1009E000384420622046FFF7D0FEBDE8FF9F00009C
:1009F0008A3700002DE9F0418046D21D22F007021F
:100A00000025D2E90002F52915A614D0011E72F1C5
:100A1000000106DA0023D0EB030063EB020211A60B
:100A200008E0D8F800108B0701D50FA602E04907AF
:100A300001D50EA601251146002408F1240704E083
:100A400000F0CAF830323A55641C50EA0102F7D17E
:100A50002B46324621464046BDE8F041FFF7B8BE7E
:100A6000000000002D0000002B000000200000000E
:100A700030B4002100F1240408E002F00705D20898
:100A8000303542EA4372DB086554491C52EA0305DB
:100A9000F3D10468002310A2250708D504F0200430
:100AA0000C4304D0C46901230CA2641EC46130BC91
:100AB000FFF78EBE10B5044621461068FFF77FFE93
:100AC00002462046BDE810400023D1E7D21D22F0A7
:100AD0000701D1E90023CBE700000000300000004F
:100AE000F0B40D460188090502D5214C7C4402E092
:100AF0001F4C7C440E34002100F1240608E002F073
:100B00000F071209E75D42EA03721B097754491C7B
:100B100052EA0307F3D102780023120704D5702D9F
:100B200006D009B1022311342246F0BCFFF750BEB3
:100B300001231034F8E770B504460D4621461068CD
:100B4000FFF73DFE024629462046BDE870400023DF
:100B5000C6E7D21D22F00703D3E90023C0E70368EC
:100B6000126843F0200303600823C3610023B7E742
:100B7000EC35000010B5203AC0F00B80B1E81850F9
:100B8000203AA0E81850B1E81850A0E81850BFF477
:100B9000F5AF5FEA027C24BFB1E81850A0E8185016
:100BA00044BF18C918C0BDE810405FEA827C24BF6A
:100BB00051F8043B40F8043B08BF7047D20728BFF8
:100BC00031F8023B48BF11F8012B28BF20F8023B47
:100BD00048BF00F8012B704730B5B0F10A024FEA68
:100BE000900E71F100034EEA817EB0EB0E0061EBD6
:100BF00091014FEA101E4EEA017E10EB0E0041EB10
:100C000011114FEA102E4EEA016E10EB0E0041EB6F
:100C100011214FEA104E4EEA014E10EB0E0041EB4F
:100C20001141401841F100014FEAD00040EA417003
:100C30004FEAD10110EB80054FEA810444EA907439
:100C400044EB01046D1944EB0404521BA3414FF023
:100C5000000348BF0A3200D530BD401C41F10001FD
:100C600030BD70472DE9FF4F0C461E464FF0FF3751
:100C70008BB0D2E90001DDF860800A908A46C1F3AA
:100C80000A5505B93D46002108464FF00000BAF16B
:100C9000000F00F4400005DA00EB80004FF4400143
:100CA00001EA50004FEA9059B9F1010F00DDB94651
:100CB0000A9850EA4A000ED044F61050A5F2FF35CB
:100CC00045432F14B8F1000F1ED07542291E1EDDBA
:100CD000C9F100021CE0B8F1010F4FF0000001D093
:100CE000302103E0F24305E02154401CB042FBDB1D
:100CF00030460022002121540B99C1F80880C1E937
:100D000000200FB0BDE8F08FBD1B6D1CDEE74A462A
:100D100000DA694206A800F0DBFB06AB93E80700A7
:100D200003AB83E8070050460A9900F08DFC8DE87C
:100D30000700A0F500501F3800900398002D09DD32
:100D400042F21F014A46084403A90390684600F096
:100D5000ECFE08E0A0F500504A461F3803A90390B6
:100D6000684600F0F6FE8DE807000004000C03D092
:100D70004FF0FF30410800E01046B8F1000F03D0FB
:100D80000022009215461EE0751E05D4FFF724FFD1
:100D9000303262556D1EF9D5B3460122084302D0A8
:100DA00000227F1C04E02078302801D100227F1E21
:100DB000002A099786D01DE0112D07DAFFF70CFFF6
:100DC000303262556D1C50EA0102F5D1084302D061
:100DD0000098C8B10EE00021681E05E0235C625C4B
:100DE00063542254401E491C8142F7DBAB46A81BCA
:100DF000401E0990002004F80B000B98099AC0F8D7
:100E00000880C0E9002B7CE711264FF0000859E765
:100E10002DE9F04F88460446D21D22F0070191B01B
:100E2000D1E90001CDE90A0102F012FA02460B985D
:100E3000C00F01D02D2007E02068810701D52B20AD
:100E400002E0202101EAC000032A099001D0072A0C
:100E500005DB03464146204600F0FAFA0BE1207814
:100E6000800601D5E06900E00620B8F1650F8146F3
:100E700006D0B8F1660F18D0B8F1670F70D131E025
:100E80000020B9F1110F009001DB112301E009F1FD
:100E900001030AAA01A90CA8FFF7E4FEDDE90C7022
:100EA000002609F10105834647E001204B460090EA
:100EB0004FF000470AAA01A90CA8FFF7D3FEDDE90D
:100EC0000DB00C995D46002610B909F101000D180E
:100ED000B9EB050003D4C0F1FF3609F10105A5EB1C
:100EE00009002BE0B9F1010F01DA4FF001090020F0
:100EF000B9F1110F0090484601DD112300E00346CF
:100F00000AAA01A90CA8FFF7ADFEDDE90C704D4659
:100F100000268346207800070AD4AB4500DA5D46F8
:100F200001A8012D04DD411911F8011C302907D059
:100F30004F4502DA17F1040F04DA012082460FE070
:100F40006D1EEEE7002F02DCED1B3E4403E0781C33
:100F5000A84200DD7D1CB81B00F1010A4FF00047DC
:100F60002078000703D4AA4501DB4FF0FF3A0021A7
:100F7000B7F1004F0DF143088DF8431024D0022043
:100F80002B23002F01DA7F422D230A21021EA0F11C
:100F9000010000DC5FB197FBF1FC97FBF1F201FB74
:100FA0001C7C17460CF1300C08F801CDEEE7A8F1D7
:100FB000010003702188090501D5452100E0652164
:100FC000A0F1010800F8011C09980FA9A1EB08077E
:100FD000FF1D00B10120411901EBEA70A1693844FD
:100FE000081A401EA0612078C00602D42046FFF7F0
:100FF000B6FB099828B1D4E901219047206A401C2A
:1010000020622078C00622D52046FFF7A8FB1EE00C
:10101000002E04DBB34502DD01A8805D00E0302036
:10102000D4E901219047206A401C2062761CAAF175
:1010300001005FEA000A0AD100F006FAC068016800
:10104000405CD4E901219047206A401C2062281EA0
:10105000A5F10105DCDC07E0D4E9012118F8010B5A
:101060009047206A401C2062381EA7F10107F3DC7C
:101070002046FFF78AFB032011B043E62DE9F04F2D
:1010800004460D46D21D22F0070089B0D0E9009732
:101090004846394602F0DCF80246F80F01D02D230D
:1010A00007E02068810701D52B2302E0202101EA17
:1010B000C0038DF820300BB1012000E00020032A8E
:1010C000824601D0072A04DB2946204600F0C0F9F9
:1010D0003FE12078800601D40D2500E0E569C7F3E3
:1010E0000A560D2D49DA00214FEA175B08464FF0EA
:1010F0000000002F00F4400007DA00EB80004FF4FE
:10110000400100EBD07001EA60008115012901DD8A
:101110004FF0FF3100224FEA850CBCF1180F06D3C7
:101120001346ACF118004FF08052C24003E04FF478
:10113000801323FA0CF30CF10C0CBCF1200F04D338
:10114000ACF1200C09FA0CF001E007FA0CF00029D0
:101150004FF0004801DD18B90FE00ED140450CD327
:1011600019EB02095F4121B9404502D19F4329EAA9
:101170000209BBEB175F00D0761C2088000502D562
:101180007B48784402E07A487844193808AA30232A
:1011900002F80A30037C0AF10101002E0AF1020A6A
:1011A00053546A4602DC4FF0300101E04FF0310148
:1011B0004FF001088DF8001002D0A6F2FF3603E0D0
:1011C00059EA470100D06B4E002D02DC2178090757
:1011D00004D54FF002082E218DF80110C4460021DD
:1011E0000BE0C7F303433F01C35C491C6D1E02F8CB
:1011F0000830052908F1010801DA002DF1DC002191
:101200000CE000EB1973491C1B786D1E082902F8CD
:1012100008304FEA091908F1010801DA002DF0DC65
:1012200021688B0602D516E0A8F10108E04505DD2E
:1012300002EB080313F8013C302BF5D0B8F1000F96
:1012400009DD02EB080313F8013C2E2B03D109073B
:1012500001D4A8F10108002D05DD3E2102F8081097
:101260006D1E08F10108407C002E02F8080008F10C
:10127000010804DA2D20764202F8080002E02B2053
:1012800002F808000A214FF47A70864208F101083A
:101290000BDB96FBF0F3303302F8083096FBF0F3EB
:1012A00008F1010800FB136601E0642E0CDB6420EA
:1012B00096FBF0F3303302F8083096FBF0F308F1B8
:1012C000010800FB136601E00A2E06DB96FBF1F035
:1012D000303002F8080008F1010896FBF1F001FB3C
:1012E0001060303002F80800A16908F1010808EB2D
:1012F000050202EB0A00081AA0612078C00602D499
:101300002046FFF72CFA216A08AE01EB0A002062A2
:1013100004E0D4E9012116F8010B9047BAF1010A63
:10132000F7D22078C00602D52046FFF718FA6E469D
:1013300009E016F8010B3E280FD0D4E901219047AF
:10134000206A401C2062B8F10108F2D22046FFF763
:101350001CFA09B00320BDE8F08F206A28442062FF
:1013600003E0D4E90121302090476D1EEBD3F8E76C
:10137000912F000002FCFFFF10B5436913B1AFF3DA
:10138000008001E0FFF7D8FA012010BD128800F1BB
:10139000240182840022C2840122EDE711684FF00B
:1013A000FF32E9E7007B00F08000704770B5164619
:1013B0000C46054600F040F8036893F80101012847
:1013C00006D0FF2C0FD8185D68B101202C7070BDBD
:1013D000D3F807013246214603F207130344284697
:1013E000BDE8704018474FF0FF3070BD754600F003
:1013F000E7F8AE4605006946534620F007008546EB
:1014000018B020B5FEF774FFBDE820404FF000068D
:101410004FF000074FF000084FF0000B21F00701DC
:10142000AC46ACE8C009ACE8C009ACE8C009ACE81F
:10143000C0098D467047000010B500F005F8001D8A
:1014400010BD00BF412C00000048704798070020E5
:101450002DE9F0411F46044603260168072A01F4DE
:10146000006004DB08B116A505E016A503E008B18D
:1014700015A500E015A521F010002060A069C01E90
:10148000A0610FB1401EA0612046FFF768F94FB17F
:10149000D4E9012138469047206A401C2062C01CD4
:1014A000206206E0206AFAE7D4E9012115F8010B71
:1014B0009047761EF8D22046FFF767F9BDE8F08125
:1014C0004E414E006E616E00494E4600696E6600E8
:1014D0002DE9F047814616468AB0334878440DC856
:1014E0008DE80D0030487844801C03AC0DC884E8BA
:1014F0000D0041F69B300844372190FBF1F290FB40
:10150000F1F5A5F1800501FB12041B3C02D56442F4
:10151000012000E00020DFF890A080460027FA4478
:10152000AAF1BE0A0DE0E00709D03246684607EB93
:1015300047010AEB810100F00CFB8DE80700641005
:101540007F1C002CEFD1184F7F44AC3F18E0E80718
:1015500014D007EB04100DF1180A90E80E008AE889
:101560000E00C068F04201D198190890324606A9D1
:1015700003A800F0EEFA03AB83E807006D10641CCB
:10158000002DE4D132466946B8F1000F03A802D01D
:1015900000F0CBFA01E000F0DCFAC9E90001C9F87B
:1015A00008200AB0BDE8F087C82C000010B504463A
:1015B000AFF300802046BDE81040FEF784BE000077
:1015C00000487047780700204FF0013C50F8042B8A
:1015D00051F8043B9A4221D1A2EB0C03934313EA46
:1015E000CC1317D150F8042B51F8043B9A4215D173
:1015F000A2EB0C03934313EACC130BD150F8042B4A
:1016000051F8043B9A4209D1A2EB0C03934313EA2D
:10161000CC13DBD04FF00000704700BFD01A01BAE6
:10162000B1FA81F101F0180122FA01F0CB40C1F1C9
:101630002001DBB2C0B2C01A2CFA01F3D11A9143D7
:1016400011EAC311E6D170475FEA400C08BF91F080
:10165000000F4FEA8C234FEAC12243EA51514FEA6F
:101660001C5018BF00F5F0404FEA300018BF41F0A1
:1016700000415FEA6C5C00F02980BCF1FF3F08BFCD
:1016800040F080407047130C06BF12044FF0100C5E
:101690004FF0000C130E04BF12020CF1080C130FD4
:1016A00004BF12010CF1040C930F04BF92000CF163
:1016B000020CD30F04BF52000CF1010C11464FF085
:1016C0000002A0F11F00A0EB0C00704711F0004FCA
:1016D00008BF704731F000413FF4D5AF0B0C06BF97
:1016E00009044FF0100C4FF0000C0B0E04BF090260
:1016F0000CF1080C0B0F04BF09010CF1040C8B0F4B
:1017000004BF89000CF1020CCB0F04BF49000CF19F
:10171000010CCCF12003A0EB0C0022FA03F302FA37
:101720000CF241EA030100F10100704720F07F4C08
:1017300080EA030023F07F47ACEB070303F57C53FB
:1017400000F0004003F1FF032DE980494FEA154BFB
:1017500009B44FEA144325EA0B4E24EA03480FF27A
:10176000042606EB132749083E785FEA320203FBA2
:101770000667C7F5000707FB06F64FEA54374FEA3E
:10178000D64606F1020607FB066CCCF1005C4FEA78
:101790001C472CEA074C07FB06F40CFB06F504EB90
:1017A00015464FEA961634BF00204FF000404FEA2E
:1017B000D13706FB07FC4FEA1C4C0CFB0BF7D21B86
:1017C00003FB0CF761EB07010CFB0EF7B0EB0740D6
:1017D00072EB17420CFB08F734BFA2EB0742B2EBE7
:1017E000074261EB17414FEA0C444FEA910706FBB1
:1017F00007FC4FEA1C4C0CFB0BF7B0EBC74072EB3D
:10180000573203FB0CF734BFA2EBC742B2EBC7421F
:1018100061EB57310CFB0EF7B0EBC70072EB577260
:101820000CFB08F734BFA2EBC702B2EBC70261EBB7
:101830005771039F4FEA816141EA921104EBCC0496
:101840004FEAD1374FEA826206FB07FC42EA901268
:101850004FEA80604FEA1C4C0CFB0BF7D21B03FBDA
:101860000CF761EB07010CFB0EF7B0EB074072EBD6
:1018700017420CFB08F734BFA2EB0742B2EB07425A
:1018800061EB17414FEA8C554FEA910704EB9C241A
:1018900006FB07FC4FEA1C4C0CFB0BF7B0EBC740F8
:1018A00072EB573203FB0CF734BFA2EBC742B2EB2B
:1018B000C74261EB57310CFB0EF7B0EBC70072EB80
:1018C00057720CFB08F734BFA2EBC702B2EBC7029A
:1018D00061EB577115EB4C254FEA816141EA92119A
:1018E0004FEA82624FEAD13742EA901206FB07FCC8
:1018F00044F100044FEA80604FEA1C4C0CFB0BF7EC
:10190000D21B03FB0CF761EB07010CFB0EF7B0EBEE
:10191000074072EB17420CFB08F734BFA2EB0742FB
:10192000B2EB074261EB174115EB1C154FEA813111
:1019300041EA92414FEA823242EA90424FEA8030D5
:101940004FEA0C7644F1000448EA03434EEA0B48A0
:101950004FF0000EB2EB080C71EB030724BF624698
:1019600039464EEB0E0E4FF0000B00185241494124
:101970004BEB0B0BB2EB080C71EB03077BF1000B8D
:1019800024BF624639464EEB0E0E4FF0000B001896
:10199000524149414BEB0B0BB2EB080C71EB0307C7
:1019A0007BF1000B24BF624639464EEB0E0E51EA26
:1019B000020718BF46F0010616EB0E7655F100023D
:1019C00054F1000103D5BDE88901BDE80088BDE8F8
:1019D0008901BDE80048B619524141EB0101A3F16C
:1019E0000103704780807F7E7D7C7B7A7978777673
:1019F00076757473727171706F6E6E6D6C6C6B6AEC
:101A00006A69686867666665646463636261616089
:101A1000605F5F5E5E5D5D5C5C5B5B5A5A59595806
:101A20005857575656555555545453535252525170
:101A3000515050504F4F4F4E4E4D4D4D4C4C4C4BC6
:101A40004B4B4A4A4A49494948484847474747460D
:101A50004646454545444444444343434342424249
:101A600042414141002B26D4770021D01CB54FEADA
:101A7000370703B44FF010004FF010014FF0000093
:101A80000FBCBDE810400BF1010BBBF1010F08BF0B
:101A90005FEA170722BF12F1010211F101014FF0B5
:101AA000004143F1000300F0004043EA00007047AA
:101AB000F9D35708DAE746EA064613F1400F4FEA32
:101AC00016461FDD13F1200FDFBF16430A46002123
:101AD00020335B42C8D0C3F1200746EA064602FA2B
:101AE00007F74FEA164646EA0706C3F1200722FA2F
:101AF00003F201FA07F721FA03F14FF0000342EA7B
:101B00000702B1E746EA020646EA06464FEA1646EB
:101B100046EA0106BCBF46EA0646360C4FF0000313
:101B20004FF000024FF000019EE72DE9C0489346B8
:101B300030B491E8380007C831EA400C48BF34EAB5
:101B4000430C03D5FFF7F2FDFFF78CFFF0BCBDE8B7
:101B500000882DE9C048934630B491E8380007C8A2
:101B600010F0804F08BF13F0804F03D100F005F84C
:101B7000FFF778FFF0BCBDE8008820F07F4780EADF
:101B8000030023F07F4C07EB0C03A3F57C5300F01C
:101B90000040A3F1FE0392F0000F00F0B38095F037
:101BA000000F00F077802DE901494FEA11404FEA1C
:101BB000144621EA004800FB06FC24EA064708FB1D
:101BC00006F607FB08F800FB07F718EB06484CEB96
:101BD000164C4FEA124B18EB07484FEA15464CEBF0
:101BE000174022EA0B4E0BFB06FC25EA06470EFBCC
:101BF00006F607FB0EFE0BFB07F71EEB064E4CEB43
:101C0000164C4FF000061EEB074E4CEB174B18EB33
:101C10000B0840F1000018EB0E0B58EB000840F1E8
:101C200000008F1A4FF000013CBFC943661B14BF70
:101C3000B5EB040C00213CBFC943F61B4FEA174427
:101C40004EEA8E0E27EA04454FEA1C4704FB076262
:101C50002CEA074C05FB07F70CFB05F604FB0CFC14
:101C600016EB074642EB174216EB0C4642EB1C42C2
:101C70001BEB060658EB0202414146EA9E0601D5DF
:101C8000BDE80189B619524141EB0101A3F10103FD
:101C9000BDE801894FEA14454FEA114724EA054699
:101CA00021EA074C05FB07F406FB07F70CFB06F1DE
:101CB00005FB0CFC11EB074144EB17444FEA1247BC
:101CC00011EB0C4144EB1C4422EA074C05FB07F2E4
:101CD00006FB07F70CFB06F605FB0CFC16EB0746AC
:101CE00042EB174216EB0C4642EB1C456A1854F1C6
:101CF000000148BF7047B619524141EB0101A3F101
:101D00000103704795F0000F37D04FEA11424FEAB8
:101D1000144721EA024624EA074C02FB07F106FBBE
:101D200007F70CFB06F402FB0CFC14EB074441EB39
:101D300017414FEA154714EB0C4441EB1C4125EACF
:101D4000074C02FB07F506FB07F70CFB06F602FB48
:101D50000CFC16EB074645EB174516EB0C4645EB1E
:101D60001C42121951F1000148BF7047B619524187
:101D700041EB0101A3F1010370474FEA14454FEA1B
:101D8000114724EA054621EA074C05FB07F106FB4B
:101D900007F70CFB06F24FF0000605FB0CFC12EBFC
:101DA000074241EB174112EB0C4251EB1C4148BF7B
:101DB0007047921841EB0101A3F10103704700BF86
:101DC000FEE7704710B5044603A001F0D5FF04A15B
:101DD0002046FEF711FC10BD41540D0A0000000022
:101DE0004F4B000010B5044603A001F0C5FF0AA147
:101DF0002046FEF701FC10BD41542B554152545F63
:101E00004445463D3131353230302C382C312C3080
:101E10002C300D0A000000004F4B000070B59EB042
:101E200004460D4616462B46224607A16846FEF795
:101E300091FA684601F0A0FF09A13046FEF7DCFBED
:101E400001201EB070BD000041542B43574A415041
:101E50003D222573222C222573220D0A000000004A
:101E60005749464920474F542049500010B59AB071
:101E7000044601A801F04AF948B1214601A8FEF73D
:101E8000A9FB10B101201AB010BD0020FBE7002013
:101E9000F9E7000030B585B004460D460CB10120CD
:101EA00000E00020024607A16846FEF753FA6946A3
:101EB00008A001F061FF09A12846FEF79DFB012063
:101EC00005B030BD41542B4349504D55583D256414
:101ED0000000000025730D0A000000004F4B0000B9
:101EE00010B540F6024001F023FD4FF400530022EC
:101EF0000121064801F08DFA4FF40053022200211F
:101F0000024801F0ADFA00F099F810BD0008024057
:101F10002DE9F041B8B007460E4614461D46DDF8DF
:101F2000F88064211FA8FEF7EFFB17B1012F10D135
:101F300007E0334614A215A11FA80094FEF70AFA81
:101F400008E0334615A211A11FA80094FEF702FA7B
:101F500000E000BF00BF052D06DA1FAB2A4610A126
:101F600001A8FEF7F7F904E01FAA12A101A8FEF7E5
:101F7000F1F901A801F000FF13A14046FEF73CFB78
:101F8000012038B0BDE8F08154435000222573226F
:101F90002C222573222C257300000000554450008C
:101FA00041542B43495053544152543D25642C25F0
:101FB000730D0A0041542B43495053544152543D30
:101FC00025730D0A000000004F4B000070B5054658
:101FD0000C4625B1012D06D0022D0CD107E00AA038
:101FE00001F0CAFE09E00CA001F0C6FE05E00EA05B
:101FF00001F0C2FE01E0002070BD00BF0EA120462E
:10200000FEF7FAFA0120F7E741542B43574D4F44AE
:10201000453D310D0A00000041542B43574D4F44BC
:10202000453D320D0A00000041542B43574D4F44AB
:10203000453D330D0A0000004F4B000010B54FF432
:102040000051064801F0E1F94FF4FA7001F022F96D
:102050004FF40051014801F0DAF910BD00080240C8
:1020600010B512480068A8B911480078022804DBAE
:1020700000200F490870292010BD4FF47A700B49D9
:1020800008600B480078401C0949087009A001F05D
:1020900073FE08E00BA0FFF7E9FE20B10020044921
:1020A00008700120E8E70020E6E7000018000020A3
:1020B0002000002041542B434950434C4F53450DC1
:1020C0000A0000004F4B000010B5202001F056F927
:1020D00001200149087010BD0400002000BFFEE788
:1020E00010B540F6014001F023FC402204212948AC
:1020F00001F05CF980220421264801F057F94023C1
:1021000001220221234801F084F940230222012107
:10211000204801F0A5F98023012202211D4801F089
:1021200078F98023022201211A4801F099F941F23D
:10213000150001F0FDFB184C00221849204601F063
:10214000C7F9462300221146204601F066FA2046D0
:1021500001F031FA0121204601F0A3F900BF4FF44C
:10216000406001F0E5FB2023022200210C4801F031
:1021700050F900220221172001F0DCFA002211465A
:10218000202001F09DF8202001F0F8F8B42001F0A3
:1021900081F810BD0004024000540040A0860100F8
:1021A0000000024010B540F6014001F0C1FB1023D1
:1021B00000220121044801F02CF910230222002101
:1021C000014801F04DF910BD0004024010B5102186
:1021D000014801F01AF910BD0004024010B51021A9
:1021E000014801F014F910BD000402401FB5044677
:1021F000062202A93B2000F0BFF89DF809009DF8D7
:10220000081040EA012000B2ADF800009DF80B0074
:102210009DF80A1040EA012000B2ADF802009DF8D6
:102220000D009DF80C1040EA012000B2ADF804004A
:10223000002020E03DF9101000290CDB3DF81020B3
:102240004FF4FA6312FB03F1CA1701EB5242D213A7
:1022500044F820200EE03DF91020C2F10102524264
:102260004FF4FA6302FB03F1CA1701EB5242D21397
:1022700044F82020401C0328DCD31FBD1FB50446B2
:10228000062202A9432000F077F89DF809009DF886
:10229000081040EA012000B2ADF800009DF80B00E4
:1022A0009DF80A1040EA012000B2ADF802009DF846
:1022B0000D009DF80C1040EA012000B2ADF80400BA
:1022C000002020E03DF9101000290CDB3DF8102023
:1022D0004FF4FA6312FB03F1CA1701EB5242D21317
:1022E00044F820200EE03DF91020C2F101025242D4
:1022F0004FF4FA6302FB03F1CA1701EB5242D21307
:1023000044F82020401C0328DCD31FBD08B5002062
:10231000009001226946752000F02EF89DF800001B
:10232000682801D0002008BD0120FCE770B500241A
:10233000002500BF06E0002500E06D1CB5F57A7FA2
:10234000FBDB641CB4F57A7FF5DB00216B2000F029
:10235000BFF80721192000F0BBF806211A2000F071
:10236000B7F800211C2000F0B3F818211B2000F062
:10237000AFF800F003F970BD70B506460D4614467F
:1023800000BF40F20161514801F02EF90028F8D158
:10239000022C03D100214D4801F08FF84B4801F089
:1023A0004AF900BF4FF4A061484801F01DF9002828
:1023B000F8D06FF00102D021444801F024F900BFA9
:1023C00040F20151414801F00FF90028F8D040F2E5
:1023D00001513E4801F0F4F800BF40F207513B487C
:1023E00001F002F90128F8D1384801F0E4F831464B
:1023F000364801F0DDF800BF40F20251334801F0E9
:10240000F3F80028F8D0314801F015F900BF4FF477
:10241000A0612E4801F0E8F80028F8D00122D02170
:102420002A4801F0F0F8032C03DA0021274801F0D4
:1024300038F800BF40F20151244801F0D5F80028D7
:10244000F8D040F20151214801F0BAF8012C02D134
:102450001E4801F0F5F827E0032C0BD100BF40F235
:1024600002511A4801F0C0F80028F8D0002117489E
:1024700001F017F8022C0AD100BF40F202511348B4
:1024800001F0B2F80028F8D0104801F0D9F840F275
:1024900006510E4801F0A8F830B10C4801F084F85C
:1024A00028706D1C601EC4B2002CD5D100BF074837
:1024B000006800F400700028F9D10121034800F001
:1024C000F0FF0121014800F0F8FF70BD005400400A
:1024D00070B504460D4600BF40F20161264801F088
:1024E00083F80028F8D1244801F0A5F800BF4FF484
:1024F000A061214801F078F80028F8D06FF00102BF
:10250000D0211D4801F07FF800BF40F201511A4868
:1025100001F06AF80028F8D040F20151164801F0A5
:102520004FF800BF40F20751134801F05DF8012851
:10253000F8D12146104801F03BF800BF40F20251AB
:102540000D4801F051F80028F8D029460A4801F05A
:102550002FF800BF40F20251074801F045F800286B
:10256000F8D0054801F06CF800BF0348006800F49B
:1025700000700028F9D170BD0054004010B500F083
:1025800013F804211A20FFF7A3FF04211C20FFF7F2
:102590009FFF1C213720FFF79BFF40213820FFF7CA
:1025A00097FF10BD00BFFEE710B51E211F20FFF7EB
:1025B0008FFF14212020FFF78BFF10BD7047000014
:1025C00010B5002807DA0A07140E054A00F00F03B9
:1025D0001B1FD45403E00A07130E024A135410BD04
:1025E00018ED00E000E400E07047704710B500F01F
:1025F0005BFE10BD08B52948006840F4700027490B
:1026000008602748006840F0010025490860244818
:102610000830006840F0800021490831086000203F
:10262000009002E00098401C00904CF2503100985D
:102630008842F7D31A480830006840F090001849E3
:10264000083108600020009002E00098401C0090D3
:102650004CF2503100988842F7D3002010490831DD
:10266000086000BF0E480830006800200028F9D13B
:102670000B4800680B490840094908600A48091DD1
:102680000860081F006820F48020091F08600020EF
:1026900003490C31086001F011FA08BD88ED00E033
:1026A00000380240FFFFF6FE1030002410B59AB04B
:1026B000002449480068002859D14848007800287B
:1026C00015DD464800784649097888420FDB00202E
:1026D000424908700120424908704248007800F1E0
:1026E000140400203F490870E0B21AB010BD3B4806
:1026F0000078401C394908703A48007820B1012818
:102700000FD0022829D118E04FF4FA60324908604E
:10271000052033490870344A34A137A0FFF77EFB07
:1027200024E04FF4FA602C49086005202C49087019
:102730002D490020FFF7AEFB18E003202849087060
:1027400041F2883024490860274805232DA22FA193
:1027500000900020FFF7DCFB08E000201F49087014
:102760002049087001201E490870BEE731E001A829
:1027700000F0CCFC68B31C4901A8FDF72BFF50B159
:102780000020154908601549087016480078401C5B
:10279000144908701DE021A101A8FDF71BFF50B1ED
:1027A00000200D4908600D4908700E480078401C53
:1027B0000C4908700DE01DA101A8FDF70BFF40B109
:1027C0000020054908600549087006490870202066
:1027D0008BE7002089E7000018000020240000207B
:1027E0002600002025000020580000206361693188
:1027F00031303132330000005869616F6D69323019
:102800003141000038303836000000003130312EC0
:1028100033372E38392E313537000000414C5245C0
:1028200041445920434F4E4E454354004552524F68
:102830005200000010B53648007820B1012811D0B0
:1028400002285BD131E0002032490870304800781E
:10285000401C2F49087040F2DC502F49086000F0FE
:10286000DDFB52E02C480068F0B92A4800780228C5
:1028700008DB00202749087025480078401C2449BF
:10288000087011E023480178491C24A0FDF756FD8B
:1028900040F2DC50204908601E480078401C1D4969
:1028A000087023A001F068FA2FE01B480068B8B94F
:1028B00018480078052806DB0020164908701449DE
:1028C00008700A2010BD40F2DC501349086011481E
:1028D0000078401C0F49087016A001F04DFA0CE07A
:1028E00016A0FFF7C3FA40B100200B490860094960
:1028F0000870074908700120E4E706E00020054958
:102900000870034908700A20DCE700BF0020D9E7FF
:102910001F0000201E000020180000202B2B2B0D74
:102920000A4154C3FCC1EEB2E2CAD425640D0A00C8
:102930002B2B2B0041540D0A000000004F4B0000D0
:1029400010B500245B480088062877D2DFE800F045
:10295000030F293F4F8400F0D5F838B1554800885F
:10296000401C544908800020534908709FE0FFF73D
:1029700061FF0446012C02D0022C0FD108E04D4823
:102980000088401C4B49088000204B49087006E035
:1029900000204949087000F095F800E000BF00BF32
:1029A00085E000F02FF9044614B1012C0AD100E0B3
:1029B0000BE00020404908703E480088401C3D491B
:1029C000088002E000F07EF800BF00BF6FE000F07A
:1029D0008BF9044604B908E00020374908703548EF
:1029E0000088401C3349088000BF00BF5FE0FFF74C
:1029F0005DFE044614B1012C16D100E02AE000204F
:102A00002D4908702D48007820F00100401C2B490A
:102A100008700846007820F00200087025480088F9
:102A20000A302449088015E023480078032806DB93
:102A300000202149087000F045F80AE015E01E4822
:102A40000078401C1C4908701A480088401C19492D
:102A5000088000BF00BF2AE0FFF702FB20B1154845
:102A60000088401E1349088021E014480078C0F314
:102A7000800098B11248008800280FDC0F480078C9
:102A800020F004000D4908700846007820F001008D
:102A900008700846007820F00200087007480078A7
:102AA00000F0010010B905200249088000BF00BFF6
:102AB00010BD00000E000020270000201C00002098
:102AC0001000002010B500200A4908804FF4005182
:102AD000094800F09AFC002008490860084800787E
:102AE00020F00100064908700846007820F0020036
:102AF000087010BD0E0000200008024018000020E1
:102B00001C00002010B51748006848BB1648007824
:102B100010B101281ED10EE04FF40051134800F00F
:102B200074FC4FF4FA700F4908600F480078401C9D
:102B30000D49087013E04FF400510C4800F067FC99
:102B400043F698200749086007480078401C06496A
:102B5000087004E0002004490870012010BD00BF87
:102B60000020FBE7180000201D00002000080240A4
:102B700070B504460D460F48007800F0010000B91A
:102B800070BD29460CA001F0F7F80A2000F082FB86
:102B90002946204600F0DCFA0648007820F00400C0
:102BA000001D0449087047F230500749088000BFF3
:102BB000E6E700001C00002041542B4349505345D8
:102BC0004E443D25640D0A00100000200A480068AC
:102BD00020B109480068401E07490860074800788E
:102BE000C0F3800038B10648008820B1044800884E
:102BF000401E034908807047180000201C00002078
:102C00001000002010B5002432480068002851D17F
:102C100031480078002814DD2F4800782F490978C2
:102C200088420EDB00202C49087001202B490870D7
:102C30002B48007800F11404002029490870E0B204
:102C400010BD25480078401C2349087024480078AE
:102C500020B101280DD0022822D115E02148FFF72C
:102C6000B1F84FF4FA601B49086003201B49087053
:102C70001FE01C48FFF7B6F84FF4FA6015490860EA
:102C800005201649087014E04FF4FA6011490860F5
:102C900005201249087013490020FFF797F908E052
:102CA00000200D4908700E49087001200B4908707A
:102CB000C6E70DE00B48FFF7D9F848B100200549F9
:102CC00008600549087006480078401C04490870EF
:102CD0000020B5E71800002021000020230000207C
:102CE000220000205800002001207047074800788B
:102CF00000F0200038B10548007800F0DF000349FB
:102D00000870012070470020FCE700002800002028
:102D10000748007800F0100038B10548007800F04E
:102D2000EF0003490870012070470020FCE7000015
:102D3000280000200748007800F0080038B1054856
:102D4000007800F0F7000349087001207047002068
:102D5000FCE700002800002010B50121880700F0E2
:102D6000FFFF002861D00121880700F0A5FFFFF7D1
:102D70002DFF00F005FA2D480068401C2B49086023
:102D80000846007800F0010028B92948007840F092
:102D9000010027490870254800680521B0FBF1F2C1
:102DA00001FB120028B92248007840F002002049B7
:102DB00008701E4800680A21B0FBF1F201FB120006
:102DC00028B91B48007840F00400194908701748DA
:102DD00000681421B0FBF1F201FB120028B914487D
:102DE000007840F00800124908701048006864211B
:102DF000B0FBF1F201FB120028B90D48007840F059
:102E000010000B490870094800684FF47A71B0FB54
:102E1000F1F201FB120040B90548007840F02000B3
:102E20000349087000200149086010BD2C000020F3
:102E3000280000201FB54FF4805000F079FD4FF0BE
:102E4000807000F0ABFD4FF0804000F069FEA720DD
:102E5000ADF800000020ADF80200ADF8040040F22B
:102E6000E73002900020ADF806008DF80C006946AE
:102E70004FF0804000F024FF4FF4C06000F0BCFC35
:102E8000012200211C2000F055FC0121880700F0E0
:102E900063FF4FF0804000F03DFE4FF0804000F0B7
:102EA00006FF1FBD10B50121044800F059FF18B1FD
:102EB0000121024800F000FF10BD000000040040A6
:102EC0001FB541F2010000F033FD4FF0807000F0BB
:102ED00065FD164800F024FE44F23C10ADF80000F9
:102EE0000020ADF80200ADF8040040F2E730029097
:102EF0000020ADF806008DF80C0069460B4800F084
:102F0000DFFE4FF4C06000F077FC012200211D209D
:102F100000F010FC0121054800F01EFF034800F0FE
:102F2000F9FD024800F0C3FE1FBD00000004004090
:102F300010B54FF4406000F0FBFC41F2041000F0CB
:102F4000F7FC4FF400720721124800F02FFA4FF4FB
:102F50000073002202210F4800F05BFA4FF4007367
:102F6000022200210B4800F07BFA4FF48062072117
:102F7000084800F01BFA4FF4806300220221054844
:102F800000F047FA4FF4806302220021014800F06C
:102F900067FA10BD0000024010B505211C4800F082
:102FA000FAFF08B31A484068C4B21A48008800F40F
:102FB0000040C8B91748008800F4804060B10A2C6E
:102FC00003D000201349088020E01248008840F414
:102FD00000401049088019E00D2C06D10D480088EA
:102FE00040F480400B49088010E00A480088C0F394
:102FF0000D0009490C5407480088401C0549088009
:1030000008460088C72801DD0020088010BD0000A8
:1030100000100140380000207000002010B54FF46F
:1030200048710448FDF770FB0020034908800349FC
:10303000087010BD580400203A0000203E00002017
:1030400010B540F6024000F073FC41F2051000F0AC
:103050006FFC40220821104800F0A8F9402301220B
:1030600002210D4800F0D5F94023022200210A4830
:1030700000F0F6F980220821074800F097F9802334
:1030800001220221044800F0C4F980230222002119
:10309000024800F0E5F910BD0008024000000240BF
:1030A00010B51349134800F092FFF8B11148001D04
:1030B0000068C4B210480078C0B910480088B0F564
:1030C000487F10DA0D48008810B901200C490870BB
:1030D00000200C49087009490888411C074A1180E2
:1030E00009490C5402E000200349087010BD00009B
:1030F00005030500001401403E0000203A000020B6
:103100003D0000203C0000205804002070B505461A
:103110000C4804880C48007890B100200A490870D7
:10312000002C09DD09490855621C2846FDF7A7FA5D
:10313000FFF774FF204670BDFFF770FF0020FAE72D
:103140000020F8E73A0000203E000020580400204C
:1031500070B504460D460BE000BF0621074800F09D
:103160001AFF0028F9D014F8010B0449091D086062
:10317000281EA5F101018DB2EED170BD00140140F1
:103180000948007878B109480078401CC0B2074966
:103190000870322807DD0120054908700020024927
:1031A00008700249087070473D0000203C00002074
:1031B0003E000020F8B504460D4600262248204473
:1031C00018B1B0F5806F12D108E0FFF7B1FE012011
:1031D0008DF800008DF80100252609E0FFF730FF8B
:1031E00000208DF800008DF80100472600E000BFA8
:1031F00000BF204600F05CFE2946204600F0E4FDBA
:103200000021204600F01FFF0021204600F00BFFA8
:103210000021204600F0F7FE0821204600F00BFFB9
:103220000421204600F0F7FE204600F0AFFE9DF896
:1032300001209DF80010304600F07CFA40F2053184
:10324000204600F0B7FEF8BD00F0FEBF00BFFEE76D
:1032500003B401984100009850EAC12018BF04202F
:103260004A0D18BF40F0010040F2FF72B2EB515F0F
:1032700008BF40F00200012808BF052002B07047D7
:1032800030380A2801D2012070470020704700BF63
:10329000704700000349086000BF0249096800291F
:1032A000FBD17047080000200448006820B10348A3
:1032B0000068401E014908607047000008000020B7
:1032C00010B52D4B1B6883432B4C2360231D1B68BB
:1032D0008343241D2360231D1B688343241D236017
:1032E000231D1B688343241D236011B101290ED1C6
:1032F00005E0214B1B6803431F4C236008E01E4B75
:103300001B1D1B6803431C4C241D236000E000BFF1
:1033100000BF32B1012A11D0022A1CD0032A27D1C2
:1033200027E0154B08331B680343134C0834236014
:10333000231D1B688343241D23601BE00E4B0833B1
:103340001B6883430C4C08342360231D1B68034314
:10335000241D23600EE0084B08331B680343064C12
:1033600008342360231D1B680343241D236001E0F0
:1033700000BF00BF00BF10BD003C01400149086014
:1033800070470000143C014070B504460D4600BF74
:103390000621054800F0FFFD0028F9D0C4F308001D
:1033A00001494860204670BD00100140F0B5034659
:1033B0001C6A5D6A00200DE00126864016403EB181
:1033C00087000F26BE40B443860001FA06F6344358
:1033D000461CB0B20828EFD3082011E00126864031
:1033E00016405EB1A0F10806B7000F26BE40B543F7
:1033F000A0F10806B60001FA06F63543461CB0B245
:103400001028EBD31C625D62F0BD81627047816160
:103410007047F0B504460D4616462168E268002064
:1034200019E0012787401F409FB14FEA400C032756
:1034300007FA0CF7B943470005FA07F739434FEA93
:10344000400C032707FA0CF7BA43470006FA07F7C0
:103450003A43471CB8B21028E3D32160E260F0BDC4
:10346000F0B50C461546012C03D146681E43466054
:1034700002E046689E434660826800210DE0012616
:103480008E401E403EB14F000326BE40B2434E0068
:1034900005FA06F632434E1CB1B21029EFD3826012
:1034A000F0BD012904D1026842F48062026003E0A9
:1034B000026822F480620260704721B9026842F417
:1034C0000062026003E0026822F40062026070475A
:1034D0002DE9F05F04460E469346022000F096F96F
:1034E00007462E48B7FBF0F8B8F1320F01D34FF082
:1034F0003208D4F804A02AF03F0A4AEA080AC4F8BD
:1035000004A02748864218D82448B7FBF0F000F101
:103510000109B9F1320F02D33220206201E0C4F870
:1035200020907000B7FBF0F5042D00D20425E0696F
:10353000C5F30B010843E0612EE01A4886422BD800
:103540004FF4967008FB00F04FF47A71B0FBF1F085
:10355000401C2062BBF1000F08D106EB4600B7FB10
:10356000F0F5E06920F48040E06109E006EBC60078
:1035700000EB0610B7FBF0F5E06940F48040E06135
:10358000C5F30B0008B945F00105E06940F40040BF
:10359000E061E0692843E061BDE8F09F40420F0030
:1035A000A0860100801A060001460869C0B2704773
:1035B000CAB202617047016841F0010101607047C1
:1035C00010B540F20152914202D1426982690AE08B
:1035D00000EB9112126801F01F040123A3409A43EB
:1035E00000EB91131A6010BD10B5024602EB91106A
:1035F000006801F01F040123A340184008B1012016
:1036000010BD0020FCE712F1020F02D121F00101F0
:1036100001E041F001010161704730B50C46002125
:10362000016821F0020121430160C3F3090342EA6A
:103630000305856030BD016841F480710160704709
:10364000016841F4007101607047000029A400F096
:1036500039FAFEF7A7FDFEF743FDFFF7EBFBFFF797
:103660002FFC274800F01EFB0020264908804FF45D
:10367000E1312548FFF79EFD4FF4E1312348FFF784
:1036800099FDFEF753FE00BFFEF740FE0028FBD079
:10369000FEF726FC2CE0FFF753F9FFF74BFBFFF793
:1036A00037FB68B11A48007880F0010018490870AB
:1036B0000846007810B1FEF789FD01E0FEF78EFDA7
:1036C000FFF714FB70B1134883684268016812A0C9
:1036D000FCF734FE2046FCF7B3FF85B229462046AE
:1036E000FFF746FA1248FEF781FD0A48FEF7C6FDCD
:1036F000D1E70000746370207465737400000000EB
:10370000000400403A000020001001400014014075
:103710000600002040000020783A256C642C2079B7
:103720003A256C642C207A3A256C640A000000006B
:103730004C0000202DE9F04103460D4616460024BA
:103740000027A0462A48006800F4E060B0F5E06F6A
:1037500003D100BF4FF0040830E02548006800F4B2
:10376000E060B0F5C06F03D101274FF0030825E0FA
:103770001F48006800F4E060B0F5A06F02D1022796
:10378000B8461BE01A48006800F4E060B0F5806FAE
:1037900003D103274FF0010810E01548006800F43A
:1037A000E060B0F5407F03D104274FF0000805E04A
:1037B0004FF4A06000F020F80227B846C7F10400DB
:1037C00005FA00F4C8F104010F20C840304004435A
:1037D00024010848C45403F01F01012088405911F6
:1037E000890001F1E021C1F80001BDE8F08100008D
:1037F0000CED00E000E400E002490143024A1160E0
:10380000704700000000FA050CED00E02DE9F04FD4
:103810008CB0064600200A903EA090E8004CC0689C
:10382000CDE905BECDF810A007900FF2EC0ADAE959
:10383000000ACDE9020A0FF2E00ADAE9000ACDE94E
:10384000000A38480068C0F381000B900B9820B143
:10385000012804D0022828D103E0334927E0334966
:1038600025E03048001F006800F03F072D48001F8A
:103870000068C0F3881C2B48001F0068C0F301409B
:10388000401C4FEA40092748001F006800F48008E8
:10389000B8F5800F01D1254B00E0234BB3FBF7F0C7
:1038A00000FB0CF0B0FBF9F101E01F4900BF00BFC5
:1038B0001C480068C0F3031404A8055D21FA05F252
:1038C00018480068C0F3822402A8055D22FA05F0BA
:1038D000099014480068C0F342341DF8045022FADD
:1038E00005F0089036B1012E06D0022E06D0032E28
:1038F0000AD106E00A9108E00A9206E009980A90C7
:1039000003E008980A9000E000BF00BF0A980CB0DE
:10391000BDE8F08F00000000000000000102030479
:1039200006070809083802400024F40000127A0053
:10393000074A02EB9011D1F8001800F01F03012292
:103940009A401143024B03EB9012C2F800187047E3
:1039500000300240074A02EB9011D1F8001800F045
:103960001F0301229A409143024B03EB9012C2F8CD
:103970000018704700300240074A02EB9011D1F85E
:10398000001800F01F0301229A401143024B03EB81
:103990009012C2F800187047003002406FF080713A
:1039A000884205D1054909680140044A116004E0D4
:1039B000024909680143014A116070478C3802408E
:1039C00000203B49096841F48031394A116000BF49
:1039D0003749096801F4003129B90146401C4FF606
:1039E000FF729142F4D13249096801F4003109B9FA
:1039F00000BFFEE72E494031096841F080512C4A52
:103A0000403211602B49096841F44041294A116054
:103A1000274908310968264A0832116011460968A9
:103A200041F4004111601146096841F4A051116050
:103A30002149121F1160111F096841F08071121F86
:103A4000116000BF1A49096801F000710029F9D01E
:103A50001849096841F48031164A116000BF1549C0
:103A6000496801F480310029F9D01249096841F40C
:103A70000031104A116000BF0E49496801F400315D
:103A80000029F9D00A490831096821F00301084AE0
:103A9000083211601146096841F00201116000BF4F
:103AA00003490831096801F008010029F8D070477E
:103AB00000380240007000400854400710B5FFF77E
:103AC0007FFF10BD10B5124800684FF47A71B0FB4B
:103AD000F1F4601EB0F1807F01D301200FE0601E81
:103AE0004FF0E02148610F214FF0FF30FEF768FDF5
:103AF00000204FF0E021886107200861002008B114
:103B000000BFFEE70021481EFEF75AFD10BD000071
:103B100000000020016841F0800101607047000052
:103B200010B504465C49601A8C426FD019DC5B49C1
:103B3000A4EB01008C424ED009DCB4F1804F2ED0B2
:103B400057482044A0B3B0F5806F72D13AE0B0F589
:103B5000806F49D0B0F5006F4FD0B0F5406FF4D111
:103B60007BE0B0F5923F5BD009DCB0F5806F73D09D
:103B7000B0F5644F0AD0B0F5684F5AD147E0B0F5C0
:103B8000943F57D0B0F5963F53D15CE04FF41060AE
:103B9000FFF7F2FE4FF41060FFF7DCFE79E04FF420
:103BA0000060FFF7E9FE4FF40060FFF7D3FE70E01E
:103BB000FFE740F60100FFF7DFFE40F60100FFF7E8
:103BC000C9FE66E040F60200FFF7D6FE40F60200AE
:103BD000FFF7C0FE5DE040F60300FFF7CDFE40F6C4
:103BE0000300FFF7B7FE54E040F60400FFF7C4FE01
:103BF00040F60400FFF7AEFE4BE040F60500FFF78D
:103C0000BBFE40F60500FFF7A5FE42E02EE040F6C1
:103C10000110FFF7B1FE40F60110FFF79BFE38E000
:103C20004FF41160FFF7A8FE4FF41160FFF792FE0A
:103C30002FE02DE040F61110FFF79EFE40F6111028
:103C4000FFF788FE25E040F61210FFF795FE40F6DC
:103C50001210FFF77FFE1CE011E040F60600FFF7B0
:103C60008BFE40F60600FFF775FE12E040F60700F7
:103C7000FFF782FE40F60700FFF76CFE09E040F612
:103C80000800FFF779FE40F60800FFF763FE00E04A
:103C900000BF00BF10BD0000001C0040000C004031
:103CA00000FCFFBF016821F001010160704701685D
:103CB00041F0010101607047CA4302617047000092
:103CC0000A8882621D4A90420ED0B0F1804F0BD01C
:103CD0001B4A904208D01B4A904205D01A4A904293
:103CE00002D01A4A90420BD1026822F070020260A0
:103CF00002684B881A43026002688B881A4302608C
:103D00008A68C262124A90420AD0124A904207D090
:103D1000026822F4407202600268CB881A43026093
:103D2000064A904202D0094A904201D10A7B0263BE
:103D3000426942F001024261704700000000014008
:103D40000004004000080040000C00400004014056
:103D50000010004000140040C2680A43C26070476F
:103D60000246D06800EA01031069084010B10BB1A7
:103D7000012070470020FCE70FB438B505A800907B
:103D80000F48009A0499FCF7C7FA002000900C48ED
:103D9000FCF756FC85B200240DE000BF062109485F
:103DA00000F0F9F80028F9D00548005D0549091D23
:103DB0000860601C84B2AC42EFDB38BC5DF814FBD9
:103DC00038010020001401402DE9F04704460D465B
:103DD0000027B846B94600263349601A8C4235D0D0
:103DE0000CDC32482044E8B1B0F5806F1FD0B0F54C
:103DF000006F21D0B0F5406F32D122E0B0F5806F76
:103E000029D0B0F5184F03D0B0F51C4F28D104E0ED
:103E10000320FFF7FBFC074623E00320FFF7F6FC37
:103E200007461EE00220FFF7F1FC074619E00220DA
:103E3000FFF7ECFC074614E00220FFF7E7FC07461B
:103E40000FE00220FFF7E2FC07460AE00220FFF73E
:103E5000DDFC074605E00220FFF7D8FC074600E03E
:103E600000BF00BFE06800F4004070B1780000EBD4
:103E70005500B0FBF5F64FF6F07006EA0008C6F301
:103E8000420948EA0900A0600CE007EB5500B0FBCE
:103E9000F5F64FF6F07006EA000806F00F0948EA5A
:103EA0000900A060BDE8F0870078004000BCFFBFBB
:103EB00010B504463349601A8C424DD00CDC3248B0
:103EC0002044E0B1B0F5806F22D0B0F5006F31D062
:103ED000B0F5406F52D136E0B0F5806F45D0B0F507
:103EE000184F03D0B0F51C4F48D11AE040F604102B
:103EF000FFF742FD40F60410FFF72CFD3FE040F6CF
:103F00001100FFF739FD40F61100FFF723FD36E001
:103F100040F61200FFF730FD40F61200FFF71AFDE1
:103F20002DE040F60510FFF727FD40F60510FFF7DE
:103F300011FD24E040F61300FFF71EFD40F61300CC
:103F4000FFF708FD1BE040F61400FFF715FD40F6F3
:103F50001400FFF7FFFC12E040F61E00FFF70CFD17
:103F600040F61E00FFF7F6FC09E040F61F00FFF7E1
:103F700003FD40F61F00FFF7EDFC00E000BF00BFAF
:103F800010BD00000078004000BCFFBFC16841F4D4
:103F90000051C160704710B5024602EB91100068F5
:103FA00001F01F040123A340184008B1012010BDF7
:103FB0000020FCE710B500EB9112126801F01F041D
:103FC0000123A3401A4300EB91131A6010BD70B592
:103FD000024600230024C1F38910105801F01F0687
:103FE0000125B54000EA050302EB91500068C1F3DA
:103FF00004460125B54000EA050414B10BB10120C7
:1040000070BD0020FCE7C26822F4C062C260C268D2
:104010000A43C26070470A460021C16821F00401CA
:104020001143C1607047026922F440520261026983
:104030000A43026170470A460021C16821F0080165
:104040001143C1607047C26822F48052C260C268E6
:104050000A43C2607047000010B500290AD00878F2
:10406000002807D005487844FDF7AEFA002801D0B3
:10407000002010BD0248784410BD00007A01000005
:104080007201000010B500290AD00878002807D076
:1040900005487844FDF798FA002801D0002010BDAB
:1040A0000248784410BD00006A010000620100006F
:1040B0004FF04070E1EE100A7047FCF7A9BEFCF724
:1040C000DDBF040000080000000000000002000145
:1040D000000010000000000000000000303132330A
:1040E000343536373839414243444546403058002C
:1040F000303132333435363738396162636465665E
:1041000040307800303132333435363738396162F7
:104110006364656678700030313233343536373851
:1041200039414243444546585000000002400000D7
:10413000000000A00000000005400000000000C8D2
:10414000000000000C4000000000409C0000000047
:10415000194000000020BCBE0000000034400000F8
:10416000BFC91B8E00000004B5400000504BCFD0EB
:104170006607E2CF010000006C4100003E8251AAB8
:10418000DFEEA73401000000D9420000DCB5A0E258
:104190003A301F97FFFFFFFFB4450000FD25A0C880
:1041A000E9A3C14FFFFFFFFFFF3F000000000080B9
:1041B00000000000FF3F0000000000800000000041
:1041C0000C4300080000002040000000C40100086B
:1041D0004C43000840000020980F0000E001000858
:1041E0001C00000043000000F8FFFFFF0C0000006F
:1041F0000E0000000F0000002E0000001001000063
:1042000043000000F8FFFFFF0040404040404040B6
:104210004040414141414140404040404040404099
:10422000404040404040404040050202020202023D
:10423000020202020202020202202020202020208C
:1042400020202002020202020202909090909090A0
:10425000101010101010101010101010101010105E
:1042600010101010020202020202888888888888D2
:1042700008080808080808080808080808080808BE
:1042800008080808020202024000000000000000C6
:10429000000000000000000000000000000000001E
:1042A000000000000000000000000000000000000E
:1042B00000000000000000000000000000000000FE
:1042C00000000000000000000000000000000000EE
:1042D00000000000000000000000000000000000DE
:1042E00000000000000000000000000000000000CE
:1042F00000000000000000000000000000000000BE
:10430000000000000000000000000000007A030A26
:10431000000000000000000000000000000000009D
:10432000000000000000000000000000000000018C
:10433000000001000000000000000000010000007B
:0C43400000000000000000000000000071
:040000050800018965
:00000001FF
