:020000040801F1
:10000000080F00203D020108E1100108010C010861
:10001000C91001082907010869180108000000003B
:100020000000000000000000000000002512010890
:100030002D070108000000000D110108271201081A
:100040005702010857020108570201085702010828
:100050005702010857020108570201085702010818
:100060005702010857020108570201085702010808
:1000700057020108570201085702010857020108F8
:1000800057020108570201085702010857020108E8
:1000900057020108570201085702010885070108A5
:1000A00057020108570201085702010857020108C8
:1000B000B113010819150108570201085702010878
:1000C00057020108570201085702010857020108A8
:1000D000570201081D1601085702010857020108BE
:1000E0005702010857020108570201085702010888
:1000F0005702010857020108570201085702010878
:100100005702010857020108570201085702010867
:100110005702010857020108570201085702010857
:100120005702010857020108570201085702010847
:100130005702010857020108570201085702010837
:100140005702010857020108570201085702010827
:100150005702010857020108570201083117010828
:100160005702010857020108570201085702010807
:100170005702010857020108570201080000000059
:10018000570201085702010800F002F800F047F892
:100190000AA090E8000C82448344AAF10107DA45E2
:1001A00001D100F03CF8AFF2090EBAE80F0013F0ED
:1001B000010F18BFFB1A43F0010318470C28000079
:1001C0002C280000103A24BF78C878C1FAD852070A
:1001D00024BF30C830C144BF04680C6070470000C1
:1001E0000023002400250026103A28BF78C1FBD840
:1001F000520728BF30C148BF0B607047642900F028
:100200007580782900F0D980732900F041820020A0
:1002100070471FB502F0B5FB1FBD10B510BD00F053
:1002200051FA1146FFF7F5FF01F0BEFD00F06FFA3D
:1002300003B4FFF7F2FF03BC01F01FFB094880473E
:1002400009480047FEE7FEE7FEE7FEE7FEE7FEE7B8
:10025000FEE7FEE7FEE7FEE704480549054A064BD0
:1002600070470000311201088901010808070020C9
:10027000080F0020080B0020080B0020704700002A
:100280000FB4044910B503AA029800F005FA10BC97
:100290005DF814FB3C00002070B50C460546012AB1
:1002A00005D02878800600D5EA69002302E0012302
:1002B00005E05B1C934202D2E05C0028F9D1A869FA
:1002C000E618C01AA861286A184428622846AFF3C5
:1002D000008004E0D5E9012114F8010B9047B442F5
:1002E000F8D32846AFF3008070BD00002DE9F0413F
:1002F0000646002410687529314616A510D0AFF3C4
:100300000080002802DA404213A507E031688A071E
:1003100001D512A502E0490704D511A5012401E089
:10032000AFF3008000210A2206F1240709E0B0FBA8
:10033000F2FCB0FBF2F302FB1C003030785418469C
:10034000491C0028F3D123462A463046BDE8F04137
:1003500000F01AB9000000002D0000002B00000082
:1003600020000000F0B40D460188090502D5214C9B
:100370007C4402E01F4C7C440E34002100F1240632
:1003800008E002F00F071209E75D42EA03721B0959
:100390007754491C52EA0307F3D10278002312076D
:1003A00004D5702D06D009B1022311342246F0BCC9
:1003B00000F0EAB801231034F8E770B504460D46A2
:1003C00021461068AFF30080024629462046BDE86A
:1003D00070400023C6E7D21D22F00703D3E90023B3
:1003E000C0E70368126843F0200303600823C36179
:1003F0000023B7E7182600002DE9F05F8946044680
:100400004FF0000ADFF874B1FB44C0F820A020468A
:10041000E1688847002874D0252806D0D4E9012156
:100420009047206A401C2062F1E700265F46204684
:10043000E16888472028054607DB312D05D2781969
:1004400010F8200C08B10643F1E7B00701D526F0FB
:100450000406C4F81CA00027C4F818A02A2D09D04F
:10046000284601F003FA38B304EB8708303DC8F89A
:10047000185019E059F8041B204604EB87029161DB
:10048000E1688847012F054618D1E069002820DA85
:1004900026F020061DE0D8F8180000EB800005EBE0
:1004A00040003038C8F818002046E1688847054603
:1004B00001F0DCF90028EED1012F0AD02E2D08D151
:1004C0002046E16888477F1C0546022F46F020063B
:1004D000C4DBA069002803DA404246F00106A061AF
:1004E000F00701D026F010066C2D0BD0682D09D036
:1004F0004C2D39D06A2D35D0742D35D07A2D33D08E
:1005000016E038E0E1682F4620468847B8420546A5
:1005100009D16C2F26D04FF48060E1680643204655
:100520008847054604E06C2F1AD04FF480700643CC
:100530000DB3A5F14100192802D8203546F4006614
:100540004A462946204626604E46FFF757FE80B1B0
:1005500001280BD0F61D26F0070000F1080956E728
:100560004020E4E78020D8E70020D6E706F1040920
:100570004DE7284652E7206ABDE8F09FA825000015
:1005800070477047704770472DE9F0470D46994610
:100590009246044600F124080168880604D5E06903
:1005A00021F01001216000E00120A84201DD471B7D
:1005B00000E00027A1697A1902EB0900081AA0617E
:1005C0002078C00602D42046AFF30080002608E061
:1005D000D4E901211AF806009047206A401C761CD5
:1005E00020624E45F4DB2078C0060AD52046AFF3E2
:1005F000008006E0D4E9012130209047206A401CA9
:100600002062381EA7F10107F4DC07E0D4E90121DC
:1006100018F805009047206A401C2062281EA5F1AA
:100620000105F3DC2046AFF300802078000602D5F8
:100630000220BDE8F0870120FBE7000001694A1CA9
:1006400002610878704700B58FB0CDE90131002113
:10065000059105497944CDE9031011466846FFF735
:10066000CBFE0FB000BD0000E5FFFFFF10B54369F2
:1006700013B1AFF3008001E0FFF70EFE012010BDC3
:10068000127800F124010A7000224A700122EDE77D
:1006900011684FF0FF32E9E7074B70B50D467B4418
:1006A000FFF7D1FF0446284600F008F810B14FF0DC
:1006B000FF3070BD204670BD37140000007B00F095
:1006C00080007047754600F02BF8AE46050069467D
:1006D000534620F00700854618B020B5FFF7BCFD53
:1006E000BDE820404FF000064FF000074FF0000833
:1006F0004FF0000B21F00701AC46ACE8C009ACE8B4
:10070000C009ACE8C009ACE8C0098D46704710B517
:100710000446AFF300802046BDE81040FFF788BDD7
:1007200000487047A806002000BFFEE770470000A1
:1007300010B540F6024001F0FDFC4FF400530022DA
:100740000121064801F012FA4FF400530222002161
:10075000024801F032FA00F003F810BD0008024030
:1007600010B54FF40051064801F0F7F94FF4FA7054
:1007700001F086F84FF40051014801F0F0F910BD86
:100780000008024010B5202001F0EEF801200149D8
:10079000087010BD0400002070B504462025240315
:1007A00000F09EF800F07AF8002201210F4801F0D5
:1007B000D8F90A2001F064F8284601F097FDC4F347
:1007C000074001F093FDC4F3072001F08FFDE0B274
:1007D00001F08CFD01221146044801F0C2F90A2003
:1007E00001F04EF800F05AF870BD0000000C024015
:1007F00038B5002000900524002201210B4801F0AB
:10080000B0F90A2001F03CF8204601F06FFD01210B
:10081000684601F05AFD01221146044801F0A1F991
:100820000A2001F02DF89DF8000038BD000C0240B0
:10083000F8B506460C461546032700200090200C0C
:100840008DF80000200A8DF80100E0B28DF802005A
:1008500000220121104801F084F90A2001F010F86B
:10086000384601F043FD9DF8000001F03FFD9DF882
:10087000010001F03BFD9DF8020001F037FD294623
:10088000304601F022FD01221146034801F069F9CA
:100890000A2000F0F5FFF8BD000C024010B500BFC3
:1008A000FFF7A6FF00F001000028F9D110BD0000FD
:1008B00010B5042400220121084801F052F90A2051
:1008C00000F0DEFF204601F011FD01221146034831
:1008D00001F047F90A2000F0D3FF10BD000C0240E0
:1008E00010B5062400220121084801F03AF90A2037
:1008F00000F0C6FF204601F0F9FC01221146034832
:1009000001F02FF90A2000F0BBFF10BD000C0240DF
:100910002DE9F04107460E461446F0B2C0F5807549
:10092000AC4200DC254612E02A463146384600F04B
:1009300013F8AC4200D10BE02F442E44601B84B26C
:10094000B4F5807F02DD4FF4807500E02546EBE7CB
:1009500000BFBDE8F081000070B505460C461646A4
:10096000FFF7BEFFFFF79AFF00220121144801F0B4
:10097000F8F80A2000F084FF022001F0B7FCC4F36D
:10098000074001F0B3FCC4F3072001F0AFFCE0B274
:1009900001F0ACFC03E0287801F0A8FC6D1C301ECF
:1009A000A6F101018EB2F6D101221146044801F0F0
:1009B000D8F80A2000F064FFFFF770FF70BD000058
:1009C000000C024070B504460125FFF789FFFFF7D0
:1009D00065FF002201210A4801F0C3F80A2000F057
:1009E0004FFF284601F082FC204601F07FFC0122E7
:1009F0001146034801F0B5F80A2000F041FF70BD30
:100A0000000C02402DE9F04781460F4616464FF094
:100A10000008C246002400254FEA1738C7F30B0A26
:100A2000CAF58054A64200DC34464AE04FEA083159
:100A30004FF480522548FFF7FBFE002507E00AEB44
:100A400005002249085CFF2800D002E06D1CA54289
:100A5000F5D300BFA5421BD24046FFF79DFE0025FF
:100A600006E019F805000AEB0501184A50546D1C00
:100A7000A542F6D34FEA08314FF480521348FFF7EE
:100A800047FF4FF4805200211048FFF7D1FE04E0E9
:100A9000224639464846FFF73BFFA64202D1FFF700
:100AA00007FF0FE008F101084FF0000AA1442744B6
:100AB000301B86B2B6F5805F02DD4FF4805400E053
:100AC0003446B3E700BFBDE8F08700000010012006
:100AD00001461C48814201D2002070471A488142D9
:100AE00001D20820F9E71948814201D21020F4E729
:100AF0001748814201D21820EFE71648814201D2FF
:100B00002020EAE71448814201D22820E5E7134873
:100B1000814201D23020E0E71148814201D23820E1
:100B2000DBE71048814201D24020D6E70E488142DF
:100B300001D24820D1E70D48814201D25020CCE7B4
:100B40005820CAE7004000080080000800C00008E4
:100B50000000010800000208000004080000060868
:100B60000000080800000A0800000C0800000E0839
:100B700001460868704700002DE9F04704460E461C
:100B800017464FF009080025A946B4F1006F02D3BB
:100B900004F0030008B1BDE8F08700F061FF2546CE
:100BA00004EB87091548854214D210E02846FFF768
:100BB000DFFF401C50B12846FFF78AFF824600F055
:100BC000F5FE8046B8F1090F01D002E02D1D4D451C
:100BD000ECD300BFB8F1090F0CD108E02046316812
:100BE00000F050FF092800D003E0241D361D4C45BD
:100BF000F4D300BF00F0BEFE00BFCCE70000FF1F33
:100C000000BFFEE710B540F6014001F093FA402224
:100C10000421294800F072FF80220421264800F0B8
:100C20006DFF402301220221234800F09FFF402353
:100C300002220121204800F0C0FF8023012202216E
:100C40001D4800F093FF8023022201211A4800F082
:100C5000B4FF41F2150001F06DFA184C002218495A
:100C6000204600F0E3FF462300221146204601F013
:100C700082F8204601F04DF80121204600F0BEFF29
:100C800000BF4FF4406001F055FA202302220021FA
:100C90000C4800F06BFF00220221172001F042F9FE
:100CA00000221146202000F001FE202000F05CFE12
:100CB000B42000F0E5FD10BD0004024000540040E7
:100CC000A08601000000024010B540F6014001F08E
:100CD00031FA102300220121044800F047FF1023BD
:100CE00002220021014800F068FF10BD000402400C
:100CF00010B51021014800F030FF10BD0004024083
:100D000010B51021014800F02AFF10BD0004024078
:100D10001FB50446062202A93B2000F0BFF89DF84B
:100D200009009DF8081040EA012000B2ADF800006B
:100D30009DF80B009DF80A1040EA012000B2ADF8C2
:100D400002009DF80D009DF80C1040EA012000B251
:100D5000ADF80400002020E03DF9101000290CDB64
:100D60003DF810204FF4FA6312FB03F1CA1701EBB0
:100D70005242D21344F820200EE03DF91020C2F177
:100D8000010252424FF4FA6302FB03F1CA1701EB6E
:100D90005242D21344F82020401C0328DCD31FBD4C
:100DA0001FB50446062202A9432000F077F89DF8FB
:100DB00009009DF8081040EA012000B2ADF80000DB
:100DC0009DF80B009DF80A1040EA012000B2ADF832
:100DD00002009DF80D009DF80C1040EA012000B2C1
:100DE000ADF80400002020E03DF9101000290CDBD4
:100DF0003DF810204FF4FA6312FB03F1CA1701EB20
:100E00005242D21344F820200EE03DF91020C2F1E6
:100E1000010252424FF4FA6302FB03F1CA1701EBDD
:100E20005242D21344F82020401C0328DCD31FBDBB
:100E300008B50020009001226946752000F02EF8C8
:100E40009DF80000682801D0002008BD0120FCE7C3
:100E500070B50024002500BF06E0002500E06D1CF1
:100E6000B5F57A7FFBDB641CB4F57A7FF5DB0021F6
:100E70006B2000F0BFF80721192000F0BBF8062115
:100E80001A2000F0B7F800211C2000F0B3F8182158
:100E90001B2000F0AFF800F003F970BD70B50646F6
:100EA0000D46144600BF40F20161514800F04AFF70
:100EB0000028F8D1022C03D100214D4800F0AAFEF1
:100EC0004B4800F066FF00BF4FF4A061484800F0B7
:100ED00039FF0028F8D06FF00102D021444800F01B
:100EE00040FF00BF40F20151414800F02BFF0028B5
:100EF000F8D040F201513E4800F010FF00BF40F230
:100F000007513B4800F01EFF0128F8D1384800F097
:100F100000FF3146364800F0F9FE00BF40F20251B2
:100F2000334800F00FFF0028F8D0314800F031FFBF
:100F300000BF4FF4A0612E4800F004FF0028F8D055
:100F40000122D0212A4800F00CFF032C03DA0021F3
:100F5000274800F053FE00BF40F20151244800F042
:100F6000F1FE0028F8D040F20151214800F0D6FEF1
:100F7000012C02D11E4800F011FF27E0032C0BD1F9
:100F800000BF40F202511A4800F0DCFE0028F8D001
:100F90000021174800F032FE022C0AD100BF40F2B7
:100FA0000251134800F0CEFE0028F8D0104800F09F
:100FB000F5FE40F206510E4800F0C4FE30B10C4878
:100FC00000F0A0FE28706D1C601EC4B2002CD5D1AC
:100FD00000BF0748006800F400700028F9D1012123
:100FE000034800F00BFE0121014800F013FE70BD24
:100FF0000054004070B504460D4600BF40F2016148
:10100000264800F09FFE0028F8D1244800F0C1FED9
:1010100000BF4FF4A061214800F094FE0028F8D0F2
:101020006FF00102D0211D4800F09BFE00BF40F28E
:1010300001511A4800F086FE0028F8D040F2015114
:10104000164800F06BFE00BF40F20751134800F055
:1010500079FE0128F8D12146104800F057FE00BF64
:1010600040F202510D4800F06DFE0028F8D02946EC
:101070000A4800F04BFE00BF40F20251074800F062
:1010800061FE0028F8D0054800F088FE00BF034844
:10109000006800F400700028F9D170BD00540040D1
:1010A00010B500F013F804211A20FFF7A3FF042164
:1010B0001C20FFF79FFF1C213720FFF79BFF4021DB
:1010C0003820FFF797FF10BD00BFFEE710B51E21C7
:1010D0001F20FFF78FFF14212020FFF78BFF10BD8B
:1010E0007047000010B5002807DA0A07140E054AF9
:1010F00000F00F031B1FD45403E00A07130E024A2B
:10110000135410BD18ED00E000E400E0704700004B
:1011100010B5002400220121124800F022FD0A200F
:1011200000F0AEFB902001F0E1F8002001F0DEF8C5
:10113000002001F0DBF8002001F0D8F8FF2001F0DA
:10114000D5F844EA0024FF2001F0D0F8044301223E
:101150001146044800F005FD0A2000F091FB2046EE
:1011600010BD0000000C024000B587B040F6024000
:1011700000F0E0FF40F6034000F0DCFF41F20F001A
:1011800000F0D8FF4FF480620621234800F0B6FC3F
:101190004FF400620621204800F0B0FC4FF480526A
:1011A00006211D4800F0AAFC4FF4E0530022022162
:1011B000194800F0DBFC4FF4E053022200211648EE
:1011C00000F0FBFC012300221946144800F0CEFC7D
:1011D000012302220021114800F0EFFC104800F02A
:1011E000FDFF684601F0A0F8002001904FF48270E6
:1011F00000900020029005904FF400700390302082
:101200000690002004906946054801F045F804481E
:1012100000F0D8FF07B000BD00080240000C0240FB
:10122000003C0040704710B500F034FB10BD0000DA
:1012300008B52948006840F470002749086027482D
:10124000006840F001002549086024480830006823
:1012500040F080002149083108600020009002E041
:101260000098401C00904CF2503100988842F7D30F
:101270001A480830006840F09000184908310860AA
:101280000020009002E00098401C00904CF2503189
:1012900000988842F7D3002010490831086000BF49
:1012A0000E480830006800200028F9D10B4800687B
:1012B0000B490840094908600A48091D0860081FD1
:1012C000006820F48020091F0860002003490C31C9
:1012D000086001F0B1F808BD88ED00E00038024078
:1012E000FFFFF6FE103000240A48006820B10948CC
:1012F0000068401E0749086007480078C0F3800076
:1013000038B10648008820B104480088401E0349CF
:1013100008807047200000202400002018000020D2
:101320000748007800F0400038B10548007800F028
:10133000BF0003490870012070470020FCE700004F
:10134000300000200748007800F0100038B1054850
:10135000007800F0EF00034908700120704700207A
:10136000FCE70000300000200748007800F0200073
:1013700038B10548007800F0DF000349087001200B
:1013800070470020FCE7000030000020074800788C
:1013900000F0080038B10548007800F0F700034974
:1013A0000870012070470020FCE70000300000209A
:1013B00010B50121880701F091F900286FD00121B3
:1013C000880701F037F9FFF78FFF00F0E7F934489D
:1013D0000068401C324908600846007800F00100AF
:1013E00028B93048007840F001002E4908702C4898
:1013F00000680521B0FBF1F201FB120028B9294871
:10140000007840F0020027490870254800680A214A
:10141000B0FBF1F201FB120028B92248007840F03D
:101420000400204908701E4800681421B0FBF1F246
:1014300001FB120028B91B48007840F00800194948
:101440000870174800686421B0FBF1F201FB12003C
:1014500028B91448007840F010001249087010486C
:101460000068C821B0FBF1F201FB120028B90D4859
:10147000007840F020000B490870094800684FF4DC
:101480007A71B0FBF1F201FB120040B90548007817
:1014900040F040000349087000200149086010BD79
:1014A00034000020300000201FB54FF4805000F0C1
:1014B00041FE4FF0807000F073FE4FF0804000F06E
:1014C000EDFFA720ADF800000020ADF80200ADF858
:1014D000040040F2E73002900020ADF806008DF8DD
:1014E0000C0069464FF0804001F0A8F84FF4C0604E
:1014F00000F07AFD012200211C2000F013FD0121E3
:10150000880701F0E7F84FF0804000F0C1FF4FF08E
:10151000804001F08AF81FBD10B50121044801F098
:10152000DDF818B10121024801F084F810BD000077
:10153000000400401FB541F2010000F0FBFD4FF038
:10154000807000F02DFE164800F0A8FF44F23C1019
:10155000ADF800000020ADF80200ADF8040040F244
:10156000E73002900020ADF806008DF80C006946C7
:101570000B4801F063F84FF4C06000F035FD012224
:1015800000211D2000F0CEFC0121054801F0A2F849
:10159000034800F07DFF024801F047F81FBD00003E
:1015A000000400400A0E02700A0C42700A0A82709F
:1015B000C170704710B54FF4406000F0BBFD41F2C0
:1015C000041000F0B7FD4FF400720721124800F03C
:1015D00095FA4FF40073002202210F4800F0C6FA7A
:1015E0004FF40073022200210B4800F0E6FA4FF49A
:1015F00080620721084800F081FA4FF480630022DE
:101600000221054800F0B2FA4FF480630222002163
:10161000014800F0D2FA10BD0000024010B50521CB
:101620000B4801F04EF988B109484068C4B2094836
:101630000068B0F5803F09D20749064800680830C5
:101640000C5404480068401C0249086010BD0000AA
:1016500000100140440000200010002010B50024BC
:101660000F480068C8B10F4800880D4909688842D2
:101670000FD10B48008884B200200A49088008492D
:10168000086009A0FEF7FCFD21460CA0FEF7F8FD5E
:1016900003E00348008803490880204610BD00008D
:1016A000440000204E000020D3C3BBA7B3CCD0F22F
:1016B000BDD3CAD5CDEAB3C9210D0A00B4FAC2EB35
:1016C000B3A4B6C83A256442797465730D0A000064
:1016D00010B540F6024000F02DFD41F2051000F07B
:1016E00029FD40220821104800F008FA4023012279
:1016F00002210D4800F03AFA4023022200210A4854
:1017000000F05BFA80220821074800F0F7F98023F7
:1017100001220221044800F029FA8023022200213C
:10172000024800F04AFA10BD0008024000000240E2
:1017300010B51349134801F0E0F8F8B11148001D45
:101740000068C4B210480078C0B910480088B0F5ED
:10175000487F10DA0D48008810B901200C49087044
:1017600000200C49087009490888411C074A11806B
:1017700009490C5402E000200349087010BD000024
:1017800005030500001401404C0000204800002023
:101790004B0000204A000020880300200948007800
:1017A00078B109480078401CC0B207490870322857
:1017B00007DD012005490870002002490870024930
:1017C000087070474B0000204A0000204C000020A9
:1017D000F8B504460D4600262248204418B1B0F55D
:1017E000806F12D108E0FFF7E5FE01208DF80000C0
:1017F0008DF80100252609E0FFF76AFF00208DF82B
:1018000000008DF80100472600E000BF00BF204621
:1018100000F0E4FF2946204600F06CFF002120463E
:1018200001F0A7F80021204601F093F8002120469E
:1018300001F07FF80821204601F093F804212046AA
:1018400001F07FF8204601F037F89DF801209DF85F
:101850000010304600F066FB40F20531204601F0F2
:101860003FF8F8BD00F0FEBF00BFFEE730380A28A1
:1018700001D2012070470020704700BF7047000070
:101880000349086000BF024909680029FBD170477D
:10189000100000200448006820B103480068401E82
:1018A00001490860704700001000002010B52D4B62
:1018B0001B6883432B4C2360231D1B688343241D1B
:1018C0002360231D1B688343241D2360231D1B6885
:1018D0008343241D236011B101290ED105E0214B62
:1018E0001B6803431F4C236008E01E4B1B1D1B6835
:1018F00003431C4C241D236000E000BF00BF32B135
:10190000012A11D0022A1CD0032A27D127E0154B27
:1019100008331B680343134C08342360231D1B68E2
:101920008343241D23601BE00E4B08331B68834355
:101930000C4C08342360231D1B680343241D2360C3
:101940000EE0084B08331B680343064C0834236041
:10195000231D1B680343241D236001E000BF00BF5B
:1019600000BF10BD003C0140014908607047000005
:10197000143C01400348006840F000400149086001
:1019800070470000103C024000B50346012200BF32
:1019900000F03CF802465B1E012A01D1002BF7D172
:1019A000012A00D10822104600BD000030B50446CF
:1019B00000254FF47020FFF7E7FF05460DBB1248E6
:1019C000006820F0F800104908600846006844F0FC
:1019D000020108430C4908600846006840F4803062
:1019E00008604FF47020FFF7CFFF054606480068F7
:1019F00020F00200044908600846006820F0F80062
:101A00000860284630BD0000103C02400020134909
:101A1000096801F48031B1F5803F01D101201CE05B
:101A20000E49096801F0100109B1052015E00B49C4
:101A3000096801F4807109B102200EE007490968C4
:101A400001F0EF0109B1072007E00449096801F03E
:101A5000020109B1062000E0002070470C3C024062
:101A60000548006800F0004028B1044802490C39DC
:101A70000860034808607047103C02402301674536
:101A8000AB89EFCD70B504460D4600264FF47020AB
:101A9000FFF77AFF0646DEB90E48006820F4407072
:101AA0000C4908600846006840F400700860084669
:101AB000006840F00100086025604FF47020FFF7D7
:101AC00063FF06460348006820F0010001490860F2
:101AD000304670BD103C024070B504460D4600BF54
:101AE0000621054800F0EDFE0028F9D0C4F30800F7
:101AF00001494860204670BD00100140F0B5034622
:101B00001C6A5D6A00200DE00126864016403EB149
:101B100087000F26BE40B443860001FA06F6344320
:101B2000461CB0B20828EFD3082011E001268640F9
:101B300016405EB1A0F10806B7000F26BE40B543BF
:101B4000A0F10806B60001FA06F63543461CB0B20D
:101B50001028EBD31C625D62F0BD81627047816129
:101B600070470AB1816100E081627047F0B50446B8
:101B70000D4616462168E268002019E001278740DB
:101B80001F409FB14FEA400C032707FA0CF7B943F7
:101B9000470005FA07F739434FEA400C032707FAD5
:101BA0000CF7BA43470006FA07F73A43471CB8B2A6
:101BB0001028E3D32160E260F0BDF0B50C46154675
:101BC000012C03D146681E43466002E046689E43EE
:101BD0004660826800210DE001268E401E403EB125
:101BE0004F000326BE40B2434E0005FA06F63243CC
:101BF0004E1CB1B21029EFD38260F0BD012904D18F
:101C0000026842F48062026003E0026822F48062AB
:101C10000260704721B9026842F40062026003E08A
:101C2000026822F400620260704700002DE9F05F54
:101C300004460E469346022000F0EAF907462E4875
:101C4000B7FBF0F8B8F1320F01D34FF03208D4F8F7
:101C500004A02AF03F0A4AEA080AC4F804A0274868
:101C6000864218D82448B7FBF0F000F10109B9F119
:101C7000320F02D33220206201E0C4F820907000BD
:101C8000B7FBF0F5042D00D20425E069C5F30B0184
:101C90000843E0612EE01A4886422BD84FF4967034
:101CA00008FB00F04FF47A71B0FBF1F0401C2062A9
:101CB000BBF1000F08D106EB4600B7FBF0F5E06979
:101CC00020F48040E06109E006EBC60000EB06105E
:101CD000B7FBF0F5E06940F48040E061C5F30B002C
:101CE00008B945F00105E06940F40040E061E069B1
:101CF0002843E061BDE8F09F40420F00A08601004C
:101D0000801A060001460869C0B27047CAB2026173
:101D10007047016841F001010160704710B540F261
:101D20000152914202D1426982690AE000EB9112AC
:101D3000126801F01F040123A3409A4300EB9113A2
:101D40001A6010BD10B5024602EB9110006801F058
:101D50001F040123A340184008B1012010BD00203A
:101D6000FCE712F1020F02D121F0010101E041F084
:101D700001010161704730B50C460021016821F076
:101D8000020121430160C3F3090342EA03058560B0
:101D900030BD016841F4807101607047016841F411
:101DA000007101607047000086B000BF0024002071
:101DB00080F3108800BF00F043FB4449080600F0A0
:101DC0001DF9FEF781FFFEF71DFFFFF76DFBFFF723
:101DD000B1FB3F4800F024FC00203E4908804FF44E
:101DE000E1313D48FFF7F4FC4FF4E1313B48FFF7A8
:101DF000EFFCFFF72DF800BFFFF71AF80028FBD023
:101E0000FEF796FCFFF7B0F9022235493548FEF798
:101E1000B3FEFFF77DF94220FEF7D4FD6420FFF703
:101E20002FFD51E03048FEF773FF3048FEF7B8FF52
:101E3000FFF7ACFA10B1FFF711FC04462CB32C48A5
:101E4000274908600846016802A8FFF7ABFB214656
:101E500001A8FFF7A7FBFEF7CBFC2648029901601B
:101E60000199416004F1080082B200212148FEF787
:101E7000C9FD6420FFF704FD0822002103A8FEF736
:101E8000D7FC00208DF814000024FFF75BFA68B13E
:101E90001948007880F0010017490870084600785A
:101EA00010B1FEF725FF01E0FEF72AFFFFF75CFA0D
:101EB000FFF736FA40B10A48016810A0FEF7E0F9D2
:101EC00003A913A0FEF7DCF9ACE70000080001004D
:101ED00000040040480000200010014000140140B0
:101EE0000800002000C000085C0000205000002016
:101EF00079563412001000200C00002063757256D1
:101F0000657273696F6E3A307825780A00000000B8
:101F1000666C61736856657273696F6E3A25730AF1
:101F2000000000002DE9F04103460D46164600244E
:101F30000027A0462A48006800F4E060B0F5E06F92
:101F400003D100BF4FF0040830E02548006800F4DA
:101F5000E060B0F5C06F03D101274FF0030825E022
:101F60001F48006800F4E060B0F5A06F02D10227BE
:101F7000B8461BE01A48006800F4E060B0F5806FD6
:101F800003D103274FF0010810E01548006800F462
:101F9000E060B0F5407F03D104274FF0000805E072
:101FA0004FF4A06000F020F80227B846C7F1040003
:101FB00005FA00F4C8F104010F20C8403040044382
:101FC00024010848C45403F01F010120884059111E
:101FD000890001F1E021C1F80001BDE8F0810000B5
:101FE0000CED00E000E400E002490143024A116008
:101FF000704700000000FA050CED00E0024A0A40BC
:102000000243024B1A60704780FFFF1F08ED00E09B
:102010002DE9F04F8CB0064600200A903EA090E8D3
:10202000004CC068CDE905BECDF810A007900FF2B6
:10203000EC0ADAE9000ACDE9020A0FF2E00ADAE96D
:10204000000ACDE9000A38480068C0F381000B900F
:102050000B9820B1012804D0022828D103E033498D
:1020600027E0334925E03048001F006800F03F07B3
:102070002D48001F0068C0F3881C2B48001F006813
:10208000C0F30140401C4FEA40092748001F006888
:1020900000F48008B8F5800F01D1254B00E0234BF8
:1020A000B3FBF7F000FB0CF0B0FBF9F101E01F49C6
:1020B00000BF00BF1C480068C0F3031404A8055DFE
:1020C00021FA05F218480068C0F3822402A8055DD1
:1020D00022FA05F0099014480068C0F342341DF854
:1020E000045022FA05F0089036B1012E06D0022ED7
:1020F00006D0032E0AD106E00A9108E00A9206E013
:1021000009980A9003E008980A9000E000BF00BF19
:102110000A980CB0BDE8F08F00000000000000003D
:102120000102030406070809083802400024F400ED
:1021300000127A00074A02EB9011D1F8001800F063
:102140001F0301229A401143024B03EB9012C2F885
:102150000018704700300240074A02EB9011D1F896
:10216000001800F01F0301229A409143024B03EB39
:102170009012C2F80018704700300240074A02EB84
:102180009011D1F8001800F01F0301229A4011436A
:10219000024B03EB9012C2F8001870470030024067
:1021A0006FF08071884205D1054909680140044AF1
:1021B000116004E0024909680143014A1160704757
:1021C0008C380240016841F04001016070470146CF
:1021D000C86880B27047C1607047000010B50446FF
:1021E0002749601A8C422CD009DC26482044B0B123
:1021F000B0F5806F1CD0B0F5784F3DD106E0B0F55A
:10220000E05F27D0B0F5005F36D12CE040F60C102F
:10221000FFF7B4FF40F60C10FFF79EFF2DE040F6ED
:102220000E00FFF7ABFF40F60E00FFF795FF24E02E
:1022300040F60F00FFF7A2FF40F60F00FFF78CFFFC
:102240001BE040F60D10FFF799FF40F60D10FFF769
:1022500083FF12E040F61410FFF790FF40F61410D1
:10226000FFF77AFF09E040F61510FFF787FF40F609
:102270001510FFF771FF00E000BF00BF10BD0000A8
:102280000034014000C8FFBF02469068084008B112
:10229000012070470020FCE702460020106800F48F
:1022A00041500B6818434B6818438B681843CB6840
:1022B00018430B6918434B6918438B691843106026
:1022C000D36923F40063D361704770B504460E46AA
:1022D000254604E0FF2000F009F805F8010B301E48
:1022E000A6F101018EB2F5D170BD000070B50446B3
:1022F000264600BF02210B48FFF7C6FF0028F9D091
:1023000031460848FFF767FF00BF01210548FFF786
:10231000BBFF0028F9D00348FFF759FFC5B2284694
:1023200070BD0000003C0040002101604160816000
:10233000C1604161816101617047000000203B493B
:10234000096841F48031394A116000BF3749096892
:1023500001F4003129B90146401C4FF6FF72914249
:10236000F4D13249096801F4003109B900BFFEE730
:102370002E494031096841F080512C4A40321160A9
:102380002B49096841F44041294A11602749083125
:102390000968264A083211601146096841F4004173
:1023A00011601146096841F4A05111602149121FC2
:1023B0001160111F096841F08071121F116000BF88
:1023C0001A49096801F000710029F9D01849096813
:1023D00041F48031164A116000BF1549496801F483
:1023E00080310029F9D01249096841F40031104ABE
:1023F000116000BF0E49496801F400310029F9D08D
:102400000A490831096821F00301084A08321160BD
:102410001146096841F00201116000BF034908310B
:10242000096801F008010029F8D07047003802401F
:10243000007000400854400710B5FFF77FFF10BD43
:1024400010B5124800684FF47A71B0FBF1F4601EC9
:10245000B0F1807F01D301200FE0601E4FF0E0213A
:1024600048610F214FF0FF30FEF73CFE00204FF097
:10247000E021886107200861002008B100BFFEE765
:102480000021481EFEF72EFE10BD000000000020B7
:10249000016841F0800101607047000010B50446FA
:1024A0005C49601A8C426FD019DC5B49A4EB0100D7
:1024B0008C424ED009DCB4F1804F2ED057482044D6
:1024C000A0B3B0F5806F72D13AE0B0F5806F49D01B
:1024D000B0F5006F4FD0B0F5406FF4D17BE0B0F5B0
:1024E000923F5BD009DCB0F5806F73D0B0F5644FDC
:1024F0000AD0B0F5684F5AD147E0B0F5943F57D0B5
:10250000B0F5963F53D15CE04FF41060FFF736FE14
:102510004FF41060FFF720FE79E04FF40060FFF702
:102520002DFE4FF40060FFF717FE70E0FFE740F666
:102530000100FFF723FE40F60100FFF70DFE66E005
:1025400040F60200FFF71AFE40F60200FFF704FE15
:102550005DE040F60300FFF711FE40F60300FFF7D1
:10256000FBFD54E040F60400FFF708FE40F60400CF
:10257000FFF7F2FD4BE040F60500FFF7FFFD40F6E8
:102580000500FFF7E9FD42E02EE040F60110FFF7FD
:10259000F5FD40F60110FFF7DFFD38E04FF4116064
:1025A000FFF7ECFD4FF41160FFF7D6FD2FE02DE0B3
:1025B00040F61110FFF7E2FD40F61110FFF7CCFDD9
:1025C00025E040F61210FFF7D9FD40F61210FFF794
:1025D000C3FD1CE011E040F60600FFF7CFFD40F61A
:1025E0000600FFF7B9FD12E040F60700FFF7C6FD51
:1025F00040F60700FFF7B0FD09E040F60800FFF7DE
:10260000BDFD40F60800FFF7A7FD00E000BF00BFDA
:1026100010BD0000001C0040000C004000FCFFBF8B
:10262000016821F0010101607047016841F001017A
:1026300001607047CA430261704700000A888262E5
:102640001D4A90420ED0B0F1804F0BD01B4A9042F1
:1026500008D01B4A904205D01A4A904202D01A4A2A
:1026600090420BD1026822F07002026002684B882F
:102670001A43026002688B881A4302608A68C26249
:10268000124A90420AD0124A904207D0026822F4BD
:10269000407202600268CB881A430260064A904288
:1026A00002D0094A904201D10A7B0263426942F09A
:1026B0000102426170470000000001400004004038
:1026C00000080040000C00400004014000100040E1
:1026D00000140040C2680A43C26070470246D068D6
:1026E00000EA01031069084010B10BB101207047E6
:1026F0000020FCE72DE9F04704460D460027B846C8
:10270000B94600263349601A8C4235D00CDC324879
:102710002044E8B1B0F5806F1FD0B0F5006F21D034
:10272000B0F5406F32D122E0B0F5806F29D0B0F51E
:10273000184F03D0B0F51C4F28D104E00320FFF759
:1027400067FC074623E00320FFF762FC07461EE014
:102750000220FFF75DFC074619E00220FFF758FC56
:10276000074614E00220FFF753FC07460FE0022063
:10277000FFF74EFC07460AE00220FFF749FC074638
:1027800005E00220FFF744FC074600E000BF00BF61
:10279000E06800F4004070B1780000EB5500B0FB39
:1027A000F5F64FF6F07006EA0008C6F3420948EA6B
:1027B0000900A0600CE007EB5500B0FBF5F64FF602
:1027C000F07006EA000806F00F0948EA0900A06068
:1027D000BDE8F0870078004000BCFFBF10B504469C
:1027E0003349601A8C424DD00CDC32482044E0B1B1
:1027F000B0F5806F22D0B0F5006F31D0B0F5406FEA
:1028000052D136E0B0F5806F45D0B0F5184F03D007
:10281000B0F51C4F48D11AE040F60410FFF7AEFCAB
:1028200040F60410FFF798FC3FE040F61100FFF778
:10283000A5FC40F61100FFF78FFC36E040F61200D1
:10284000FFF79CFC40F61200FFF786FC2DE040F6F7
:102850000510FFF793FC40F60510FFF77DFC24E020
:1028600040F61300FFF78AFC40F61300FFF774FCF4
:102870001BE040F61400FFF781FC40F61400FFF760
:102880006BFC12E040F61E00FFF778FC40F61E00DD
:10289000FFF762FC09E040F61F00FFF76FFC40F60F
:1028A0001F00FFF759FC00E000BF00BF10BD000093
:1028B0000078004000BCFFBFC16841F40051C16016
:1028C000704710B5024602EB9110006801F01F043A
:1028D0000123A340184008B1012010BD0020FCE7EF
:1028E00010B500EB9112126801F01F040123A34000
:1028F0001A4300EB91131A6010BD70B50246002315
:102900000024C1F38910105801F01F060125B540BD
:1029100000EA050302EB91500068C1F3044601256B
:10292000B54000EA050414B10BB1012070BD0020D0
:10293000FCE7C26822F4C062C260C2680A43C26097
:1029400070470A460021C16821F004011143C160AB
:102950007047026922F44052026102690A4302612F
:1029600070470A460021C16821F008011143C16087
:102970007047C26822F48052C260C2680A43C260D3
:1029800070474FF04070E1EE100A7047303132333B
:102990003435363738394142434445464030580093
:1029A00030313233343536373839616263646566C5
:1029B0004030780004000008000000000000000221
:1029C0000001000010000000E829010800000020BC
:1029D00050000000C4010108382A010850000020FE
:1029E000B0200100E0010108007A030A00000000A5
:1029F00078563412000000000000000000000000C3
:102A000000000000000000000000000000000000C6
:102A100000000001000001000000000000000000B4
:102A200001000000000000000000000000000000A5
:082A300000000000000000009E
:040000050801018964
:00000001FF
