:020000040801F1
:10000000E0C90120D5020108512F0108C5280108C7
:10001000392F010851200108E940010800000000C3
:10002000000000000000000000000000C1320108D4
:100030005520010800000000E12F0108C33201082B
:10004000EF020108EF020108EF020108EF020108C8
:10005000EF020108EF020108EF020108EF020108B8
:10006000EF020108EF020108EF020108EF020108A8
:10007000EF020108EF020108EF020108EF02010898
:10008000EF020108EF020108EF020108EF02010888
:10009000EF020108EF020108EF0201086D230108D9
:1000A000EF020108EF020108EF020108EF02010868
:1000B000D93A0108553C0108EF020108EF02010896
:1000C000EF020108EF020108EF020108EF02010848
:1000D000EF020108513D0108EF020108713E0108DD
:1000E000EF020108EF020108EF020108EF02010828
:1000F000EF020108EF020108EF020108EF02010818
:10010000EF020108EF020108EF020108EF02010807
:10011000EF020108EF020108EF020108EF020108F7
:10012000EF020108EF020108EF020108EF020108E7
:10013000EF020108EF020108EF020108EF020108D7
:10014000EF020108EF020108EF020108EF020108C7
:10015000EF020108EF020108EF020108EF020108B7
:10016000EF020108EF020108EF020108EF020108A7
:10017000EF020108EF020108EF0201080000000091
:10018000EF020108EF02010800F002F800F092F817
:100190000AA090E8000C82448344AAF10107DA45E2
:1001A00001D100F087F8AFF2090EBAE80F0013F0A2
:1001B000010F18BFFB1A43F001031847B8510000A4
:1001C000D8510000103A24BF78C878C1FAD8520735
:1001D00024BF30C830C144BF04680C6070470000C1
:1001E0000023002400250026103A28BF78C1FBD840
:1001F000520728BF30C148BF0B6070476E2900F01E
:10020000C983702900F06181662905F0068065299F
:1002100005F00380672905F00080612904F0FF875D
:1002200003681B0A28BF41F08001692900F0D280D1
:10023000642900F0CF80752900F0CC806F2900F090
:10024000C084782900F02D81E92900F05B84E4293D
:1002500000F05884F52900F05584EF2900F0BD84A2
:10026000F82900F02C810368DB0928BF41F08001E8
:10027000632900F0CA83732900F0CF83E32901F0DA
:100280000981F32901F00E81002070471FB504F0A9
:10029000BFFF01F0A3F904000020002104F08CFF4F
:1002A000401C60600020002104F09CFFE0601FBD46
:1002B00010B510BD01F06DF91146FFF7E7FF04F02E
:1002C0009BF901F04FFA03B4FFF7F2FF03BC03F010
:1002D0002CFF00000948804709480047FEE7FEE779
:1002E000FEE7FEE7FEE7FEE7FEE7FEE7FEE7FEE7E6
:1002F00004480549054A064B70470000CD32010805
:1003000089010108E0C10120E0C90120E0C5012008
:10031000E0C50120704700001CB50C46064B7B442D
:1003200069460090204600F04EFB044600206946D6
:1003300000F05CFB20461CBDCB0600000FB4044956
:1003400010B503AA029800F06DFB10BC5DF814FB19
:10035000480000200FB41CB5084B06AA7B44694630
:100360000090059800F02FFB04460020694600F03D
:100370003DFB20461CBC5DF814FB00008D06000010
:1003800070B50C460546012A05D02878800600D5B0
:10039000EA69002302E0012305E05B1C934202D2DC
:1003A000E05C0028F9D1A869E618C01AA861286A9B
:1003B00018442862284600F05BFA04E0D5E90121E0
:1003C00014F8010B9047B442F8D3284600F066FABF
:1003D00070BD00002DE9F041064600241068752923
:1003E000314616A510D000F06AFA002802DA404221
:1003F00013A507E031688A0701D512A502E0490775
:1004000004D511A5012401E000F062FA00210A22BE
:1004100006F1240709E0B0FBF2FCB0FBF2F302FBAB
:100420001C00303078541846491C0028F3D123466C
:100430002A463046BDE8F04100F053BA0000000003
:100440002D0000002B00000020000000F0B40D463D
:100450000188090502D5214C7C4402E01F4C7C44F4
:100460000E34002100F1240608E002F00F07120903
:10047000E75D42EA03721B097754491C52EA0307FD
:10048000F3D102780023120704D5702D06D009B1EC
:10049000022311342246F0BC00F023BA01231034A9
:1004A000F8E770B504460D462146106800F010FAD2
:1004B000024629462046BDE870400023C6E7D21D0B
:1004C00022F00703D3E90023C0E70368126843F072
:1004D000200303600823C3610023B7E7EC4D00004D
:1004E0002DE9F05F894604464FF0000ADFF874B149
:1004F000FB44C0F820A02046E1688847002874D05B
:10050000252806D0D4E901219047206A401C2062AA
:10051000F1E700265F462046E16888472028054627
:1005200007DB312D05D2781910F8200C08B10643ED
:10053000F1E7B00701D526F00406C4F81CA0002797
:10054000C4F818A02A2D09D0284603F0E7FD38B3D7
:1005500004EB8708303DC8F8185019E059F8041B1F
:10056000204604EB87029161E1688847012F054628
:1005700018D1E069002820DA26F020061DE0D8F81E
:10058000180000EB800005EB40003038C8F8180078
:100590002046E1688847054603F0C0FD0028EED1FB
:1005A000012F0AD02E2D08D12046E16888477F1CF4
:1005B0000546022F46F02006C4DBA069002803DAB6
:1005C000404246F00106A061F00701D026F0100677
:1005D0006C2D0BD0682D09D04C2D39D06A2D35D01B
:1005E000742D35D07A2D33D016E038E0E1682F46EF
:1005F00020468847B842054609D16C2F26D04FF4D3
:100600008060E168064320468847054604E06C2F79
:100610001AD04FF4807006430DB3A5F1410019289C
:1006200002D8203546F400664A4629462046266010
:100630004E46FFF7E3FD80B101280BD0F61D26F0F2
:10064000070000F1080956E74020E4E78020D8E7DA
:100650000020D6E706F104094DE7284652E7206A54
:10066000BDE8F09F7C4D000070B5064600F0FCF838
:100670000468054630460A22002100F0B9FA2C60D1
:1006800070BD30B505460B462A4613F8014B12F8EB
:10069000010B08B1A042F8D01CB1002802D06D1C9B
:1006A000F1E7284630BD40EA0103024630B59B071A
:1006B00010D14FF0013400E008C208C91D1B9D4352
:1006C00015EAC41FF8D013F0FF0102F8011B0DD08A
:1006D0001B0AF8E711F8013B002B02F8013B05D09B
:1006E00011F8013B002B02F8013BF3D130BD10B5EE
:1006F000431C02E010F8011B71B18107FAD14FF0E1
:10070000013202C88C1A8C4314EAC211F9D0C01A03
:100710000A0603D0C01E10BDC01A10BD0A0401D0C5
:10072000801E10BD0902FCD0401E10BD421E12F8F2
:10073000013F002BFBD111F8013B002B02F8013BDC
:10074000F9D17047032A40F2308010F0030C00F01A
:10075000158011F8013BBCF1020F624498BF11F8FB
:1007600001CB00F8013B38BF11F8013BA2F10402B4
:1007700098BF00F801CB38BF00F8013B11F003032C
:1007800000F06E82083AC0F0088051F8043B083A45
:1007900051F804CBA0E80810F5E7121D5CBF51F832
:1007A000043B40F8043BAFF30080D20724BF11F8AC
:1007B000013B11F801CB48BF11F8012B24BF00F811
:1007C000013B00F801CB48BF00F8012B70474FF008
:1007D00000020429C0F0128010F0030C00F01B800E
:1007E000CCF1040CBCF1020F18BF00F8012BA8BF1C
:1007F00020F8022BA1EB0C0100F00DB85FEAC17CE0
:1008000024BF00F8012B00F8012B48BF00F8012B92
:1008100070474FF0000200B51346944696462039C3
:1008200022BFA0E80C50A0E80C50B1F12001BFF4A9
:10083000F7AF090728BFA0E80C5048BF0CC05DF80F
:1008400004EB890028BF40F8042B08BF704748BF5D
:1008500020F8022B11F0804F18BF00F8012B7047D1
:1008600070477047704770470048704780C101204B
:1008700070B5044685690068C10601D5302600E0E0
:100880002026C00707D070BDD4E90121304690472B
:10089000206A401C20626D1EF6D570BD70B50446FE
:1008A00085690078C00707D170BDD4E901212020F7
:1008B0009047206A401C20626D1EF6D570BD096805
:1008C0004A0501D540B27047C905FCD500B2704752
:1008D00009684A0501D5C0B27047C905FCD580B288
:1008E00070472DE9F0470D4699469246044600F1BF
:1008F00024080168880604D5E06921F01001216010
:1009000000E00120A84201DD471B00E00027A169AB
:100910007A1902EB0900081AA0612078C00602D4F7
:100920002046FFF7A5FF002608E0D4E901211AF8C8
:1009300006009047206A401C761C20624E45F4DB7E
:100940002078C0060AD52046FFF792FF06E0D4E9DA
:10095000012130209047206A401C2062381EA7F1F8
:100960000107F4DC07E0D4E9012118F805009047FD
:10097000206A401C2062281EA5F10105F3DC2046F8
:10098000FFF78CFF2078000602D50220BDE8F08733
:100990000120FBE711680268006A530501D5087061
:1009A0000AE0D30501D5088006E0130603D5C21777
:1009B000C1E9000200E008600120704701694A1C9B
:1009C00002610878704700B58FB0CDE90131002190
:1009D000059105497944CDE9031011466846FFF7B2
:1009E0007FFD0FB000BD0000E5FFFFFF0A6802F8C1
:1009F000010B0A60704710B5436913B1AFF3008073
:100A000001E0FFF7BDFC012010BD127800F12401C8
:100A10000A7000224A700122EDE711684FF0FF32A0
:100A2000E9E70000074B70B50D467B44FFF7CBFFAD
:100A30000446284600F089FD10B14FF0FF3070BD2C
:100A4000204670BDFB3900002DE9FF5F15468A4640
:100A50000446DFF8AC80F8440027D8E900103E4691
:100A6000CDE9001010E03AF816106A4602A800F02E
:100A700070FD411C07D02178890603D5E269391839
:100A800091420DD80744761C2078800602D5E06993
:100A9000B84205DDAE42E6DB3AF816000028E2D1A6
:100AA000A069C01BA0612046FFF7E2FED8E9001054
:100AB000CDE90010002017E03AF818106A4602A8A5
:100AC00000F047FDB0F1FF3F81460BD000250DF14E
:100AD000080B05E0D4E901211BF8050090476D1CC7
:100AE0004D45F7D308F10100B0428046E4DB206AAF
:100AF000384420622046FFF7D1FEBDE8FF9F00008A
:100B00002A4800002DE9F0418046D21D22F007025C
:100B10000025D2E90002F52915A614D0011E72F1B4
:100B2000000106DA0023D0EB030063EB020211A6FA
:100B300008E0D8F800108B0701D50FA602E049079E
:100B400001D50EA601251146002408F1240704E072
:100B500000F0C4F830323A55641C50EA0102F7D173
:100B60002B46324621464046BDE8F041FFF7B9BE6C
:100B7000000000002D0000002B00000020000000FD
:100B800030B4002100F1240408E002F00705D20887
:100B9000303542EA4372DB086554491C52EA0305CA
:100BA000F3D10468002310A2250707D5A40600D4BA
:100BB00021B1C46901230DA2641EC46130BCFFF7DA
:100BC00090BE10B5044621461068FFF781FE02462C
:100BD0002046BDE810400023D2E7D21D22F00701D5
:100BE000D1E90023CCE70000000000003000000045
:100BF0002DE9F04791460F4680460446002614F83A
:100C0000015B2DB100F062F80068405DC007F6D1CD
:100C10002B2D02D02D2D18D0641E4A463946204671
:100C200000F044FC27B13968A14201D1C7F8008027
:100C30004FF0020471050BD54042002803DDFFF799
:100C400013FE0460A007BDE8F08746F48066E4E781
:100C50000028F8DAFFF708FE04606FF00040F2E7C2
:100C600010B5203AC0F00B80B1E81850203AA0E847
:100C70001850B1E81850A0E81850BFF4F5AF5FEA7B
:100C8000027C24BFB1E81850A0E8185044BF18C92E
:100C900018C0BDE810405FEA827C24BF51F8043BD5
:100CA00040F8043B08BF7047D20728BF31F8023B29
:100CB00048BF11F8012B28BF20F8023B48BF00F8BD
:100CC000012B70470048704780C1012010B500F02B
:100CD00085FC001D10BD00BFE144000030B5B0F13F
:100CE0000A024FEA900E71F100034EEA817EB0EBEA
:100CF0000E0061EB91014FEA101E4EEA017E10EBEF
:100D00000E0041EB11114FEA102E4EEA016E10EB6E
:100D10000E0041EB11214FEA104E4EEA014E10EB4E
:100D20000E0041EB1141401841F100014FEAD000A3
:100D300040EA41704FEAD10110EB80054FEA81048F
:100D400044EA907444EB01046D1944EB0404521B13
:100D5000A3414FF0000348BF0A3200D530BD401C0C
:100D600041F1000130BD70472DE9FF4F0C461E4692
:100D70004FF0FF378BB0D2E90001DDF860800A90B8
:100D80008A46C1F30A5505B93D46002108464FF091
:100D90000000BAF1000F00F4400005DA00EB80001B
:100DA0004FF4400101EA50004FEA9059B9F1010FA8
:100DB00000DDB9460A9850EA4A000ED044F61050B9
:100DC000A5F2FF3545432F14B8F1000F1ED0754230
:100DD000291E1EDDC9F100021CE0B8F1010F4FF021
:100DE000000001D0302103E0F24305E02154401C13
:100DF000B042FBDB30460022002121540B99C1F8A0
:100E00000880C1E900200FB0BDE8F08FBD1B6D1C4C
:100E1000DEE74A4600DA694206A800F031FC06AB7C
:100E200093E8070003AB83E8070050460A9900F0F7
:100E3000E3FC8DE80700A0F500501F3800900398F0
:100E4000002D0ADD42F21F014A460844002303A98F
:100E50000390684600F04CFF09E0A0F500504A46B8
:100E60001F38002303A90390684600F056FF8DE861
:100E700007000004000C03D04FF0FF30410800E0F1
:100E80001046B8F1000F03D00022009215461EE074
:100E9000751E05D4FFF722FF303262556D1EF9D55D
:100EA000B3460122084302D000227F1C04E02078D0
:100EB000302801D100227F1E002A099784D01DE02E
:100EC000112D07DAFFF70AFF303262556D1C50EA28
:100ED0000102F5D1084302D00098C8B10EE000210C
:100EE000681E05E0235C625C63542254401E491C6A
:100EF0008142F7DBAB46A81B401E0990002004F896
:100F00000B000B98099AC0F80880C0E9002B7AE71B
:100F100011264FF0000857E72DE9F04F88460446A8
:100F2000D21D22F0070191B0D1E90001CDE90A01FB
:100F300003F0DCF802460B98C00F01D02D2007E02B
:100F40002068810701D52B2002E0202101EAC000A2
:100F5000032A099001D0072A05DB034641462046B3
:100F600000F040FB0BE12078800601D5E06900E04D
:100F70000620B8F1650F814606D0B8F1660F18D08B
:100F8000B8F1670F70D131E00020B9F1110F009076
:100F900001DB112301E009F101030AAA01A90CA850
:100FA000FFF7E2FEDDE90C70002609F1010583463A
:100FB00047E001204B4600904FF000470AAA01A9E4
:100FC0000CA8FFF7D1FEDDE90DB00C995D460026B7
:100FD00010B909F101000D18B9EB050003D4C0F1F7
:100FE000FF3609F10105A5EB09002BE0B9F1010F6E
:100FF00001DA4FF001090020B9F1110F00904846C5
:1010000001DD112300E003460AAA01A90CA8FFF79D
:10101000ABFEDDE90C704D460026834620780007C4
:101020000AD4AB4500DA5D4601A8012D04DD411963
:1010300011F8011C302907D04F4502DA17F1040FCF
:1010400004DA012082460FE06D1EEEE7002F02DC7D
:10105000ED1B3E4403E0781CA84200DD7D1CB81B5C
:1010600000F1010A4FF000472078000703D4AA4599
:1010700001DB4FF0FF3A0021B7F1004F0DF14308BB
:101080008DF8431024D002202B23002F01DA7F4259
:101090002D230A21021EA0F1010000DC5FB197FBA5
:1010A000F1FC97FBF1F201FB1C7C17460CF1300CB4
:1010B00008F801CDEEE7A8F10100037021880905C9
:1010C00001D5452100E06521A0F1010800F8011CCF
:1010D00009980FA9A1EB0807FF1D00B101204119D4
:1010E00001EBEA70A1693844081A401EA06120781B
:1010F000C00602D42046FFF7BBFB099828B1D4E90B
:1011000001219047206A401C20622078C00622D529
:101110002046FFF7ADFB1EE0002E04DBB34502DDE9
:1011200001A8805D00E03020D4E901219047206AC9
:10113000401C2062761CAAF101005FEA000A0AD175
:1011400000F04CFAC0680168405CD4E90121904786
:10115000206A401C2062281EA5F10105DCDC07E0A6
:10116000D4E9012118F8010B9047206A401C206245
:10117000381EA7F10107F3DC2046FFF78FFB0320A1
:1011800011B041E62DE9F04F04460D46D21D22F084
:10119000070089B0D0E900974846394602F0A6FF1B
:1011A0000246F80F01D02D2307E02068810701D502
:1011B0002B2302E0202101EAC0038DF820300BB17F
:1011C000012000E00020032A824601D0072A04DB28
:1011D0002946204600F006FA3FE12078800601D437
:1011E0000D2500E0E569C7F30A560D2D49DA002107
:1011F0004FEA175B08464FF00000002F00F4400054
:1012000007DA00EB80004FF4400100EBD07001EAF8
:1012100060008115012901DD4FF0FF3100224FEA06
:10122000850CBCF1180F06D31346ACF118004FF033
:101230008052C24003E04FF4801323FA0CF30CF108
:101240000C0CBCF1200F04D3ACF1200C09FA0CF00B
:1012500001E007FA0CF000294FF0004801DD18B951
:101260000FE00ED140450CD319EB02095F4121B9C3
:10127000404502D19F4329EA0209BBEB175F00D02A
:10128000761C2088000502D57B48784402E07A4825
:101290007844193808AA302302F80A30037C0AF18E
:1012A0000101002E0AF1020A53546A4602DC4FF093
:1012B000300101E04FF031014FF001088DF80010CE
:1012C00002D0A6F2FF3603E059EA470100D06B4E88
:1012D000002D02DC2178090704D54FF002082E21E9
:1012E0008DF80110C44600210BE0C7F303433F0112
:1012F000C35C491C6D1E02F80830052908F101087D
:1013000001DA002DF1DC00210CE000EB1973491C1F
:101310001B786D1E082902F808304FEA091908F1F8
:10132000010801DA002DF0DC21688B0602D516E0F9
:10133000A8F10108E04505DD02EB080313F8013CC4
:10134000302BF5D0B8F1000F09DD02EB080313F8DC
:10135000013C2E2B03D1090701D4A8F10108002D6F
:1013600005DD3E2102F808106D1E08F10108407CE1
:10137000002E02F8080008F1010804DA2D20764258
:1013800002F8080002E02B2002F808000A214FF4BE
:101390007A70864208F101080BDB96FBF0F33033DC
:1013A00002F8083096FBF0F308F1010800FB136621
:1013B00001E0642E0CDB642096FBF0F3303302F87E
:1013C000083096FBF0F308F1010800FB136601E01A
:1013D0000A2E06DB96FBF1F0303002F8080008F127
:1013E000010896FBF1F001FB1060303002F80800B4
:1013F000A16908F1010808EB050202EB0A00081ACE
:10140000A0612078C00602D42046FFF731FA216A95
:1014100008AE01EB0A00206204E0D4E9012116F8CD
:10142000010B9047BAF1010AF7D22078C00602D525
:101430002046FFF71DFA6E4609E016F8010B3E281C
:101440000FD0D4E901219047206A401C2062B8F1F6
:101450000108F2D22046FFF721FA09B00320BDE8C7
:10146000F08F206A2844206203E0D4E90121302073
:1014700090476D1EEBD3F8E71140000002FCFFFF20
:1014800010B5436913B1AFF3008001E0FFF7DCFA58
:10149000012010BD128800F1240182840022C28440
:1014A0000122EDE711684FF0FF32E9E72DE9F05F27
:1014B000824615468B4600270AF10104B94600789A
:1014C000302801D09DB113E014F8010B01277828D2
:1014D00003D0582801D045B10AE00DB1102D07D135
:1014E000002714F8010B102502E0082500E00A256A
:1014F0000026B0460EE005FB080005FB06F10127BB
:101500001FFA80F801EB1046B6F5803F00D3B946CC
:1015100014F8010B294600F0A5F80028EBDABBF11E
:10152000000F05D00FB1641E00E05446CBF8004018
:10153000B9F1000F06D0FFF797F902210160C81E2C
:10154000BDE8F09F48EA0640FAE7007B00F0800023
:10155000704770B516460C460546FFF7B7FB0368A3
:1015600093F80101012806D0FF2C0FD8185D68B14F
:1015700001202C7070BDD3F807013246214603F2DA
:10158000071303442846BDE8704018474FF0FF306A
:1015900070BD7546FFF796FBAE460500694653469B
:1015A00020F00700854618B020B5FEF7A1FEBDE883
:1015B00020404FF000064FF000074FF000084FF0BA
:1015C000000B21F00701AC46ACE8C009ACE8C0094B
:1015D000ACE8C009ACE8C0098D46704700487047C8
:1015E000A0C101202DE9F0411F46044603260168F1
:1015F000072A01F4006004DB08B116A505E016A572
:1016000003E008B115A500E015A521F01000206049
:10161000A069C01EA0610FB1401EA0612046FFF767
:1016200027F94FB1D4E9012138469047206A401C80
:101630002062C01C206206E0206AFAE7D4E901219A
:1016400015F8010B9047761EF8D22046FFF726F9D1
:10165000BDE8F0814E414E006E616E00494E46007D
:10166000696E66003A2800D2303820F02002412A04
:1016700001D3A2F13700884201D34FF0FF30704709
:101680002DE9F047814616468AB0354878440DC8A2
:101690008DE80D0032487844801C03AC0DC884E806
:1016A0000D0041F69B300844372190FBF1F290FB8E
:1016B000F1F5A5F1800501FB12041B3C02D5644243
:1016C000012000E00020DFF898A080460027FA44BF
:1016D000AAF1BE0A0EE0E0070AD03246684607EBE0
:1016E000470101230AEB810100F017FB8DE8070099
:1016F00064107F1C002CEED1194F7F44AE3F19E0DF
:10170000E80715D007EB04100DF1180A90E80E0059
:101710008AE80E00C068F04201D19819089032465C
:10172000012306A903A800F0F8FA03AB83E8070039
:101730006D10641C002DE3D14FF001033246694661
:10174000B8F1000F03A802D000F0D2FA01E000F0D7
:10175000E4FAC9E90001C9F808200AB0BDE8F08739
:10176000A03C000010B50446AFF300802046BDE861
:101770001040FEF7A8BD00004FF0013C50F8042BCC
:1017800051F8043B9A4221D1A2EB0C03934313EA94
:10179000CC1317D150F8042B51F8043B9A4215D1C1
:1017A000A2EB0C03934313EACC130BD150F8042B98
:1017B00051F8043B9A4209D1A2EB0C03934313EA7C
:1017C000CC13DBD04FF00000704700BFD01A01BA35
:1017D000B1FA81F101F0180122FA01F0CB40C1F118
:1017E0002001DBB2C0B2C01A2CFA01F3D11A914326
:1017F00011EAC311E6D170475FEA400C08BF91F0CF
:10180000000F4FEA8C234FEAC12243EA51514FEABD
:101810001C5018BF00F5F0404FEA300018BF41F0EF
:1018200000415FEA6C5C00F02980BCF1FF3F08BF1B
:1018300040F080407047130C06BF12044FF0100CAC
:101840004FF0000C130E04BF12020CF1080C130F22
:1018500004BF12010CF1040C930F04BF92000CF1B1
:10186000020CD30F04BF52000CF1010C11464FF0D3
:101870000002A0F11F00A0EB0C00704711F0004F18
:1018800008BF704731F000413FF4D5AF0B0C06BFE5
:1018900009044FF0100C4FF0000C0B0E04BF0902AE
:1018A0000CF1080C0B0F04BF09010CF1040C8B0F99
:1018B00004BF89000CF1020CCB0F04BF49000CF1EE
:1018C000010CCCF12003A0EB0C0022FA03F302FA86
:1018D0000CF241EA030100F10100704720F07F4C57
:1018E00080EA030023F07F47ACEB070303F57C534A
:1018F00000F0004003F1FF032DE980494FEA154B4A
:1019000009B44FEA144325EA0B4E24EA03480FF2C8
:10191000042606EB132749083E785FEA320203FBF0
:101920000667C7F5000707FB06F64FEA54374FEA8C
:10193000D64606F1020607FB066CCCF1005C4FEAC6
:101940001C472CEA074C07FB06F40CFB06F504EBDE
:1019500015464FEA961634BF00204FF000404FEA7C
:10196000D13706FB07FC4FEA1C4C0CFB0BF7D21BD4
:1019700003FB0CF761EB07010CFB0EF7B0EB074024
:1019800072EB17420CFB08F734BFA2EB0742B2EB35
:10199000074261EB17414FEA0C444FEA910706FBFF
:1019A00007FC4FEA1C4C0CFB0BF7B0EBC74072EB8B
:1019B000573203FB0CF734BFA2EBC742B2EBC7426E
:1019C00061EB57310CFB0EF7B0EBC70072EB5772AF
:1019D0000CFB08F734BFA2EBC702B2EBC70261EB06
:1019E0005771039F4FEA816141EA921104EBCC04E5
:1019F0004FEAD1374FEA826206FB07FC42EA9012B7
:101A00004FEA80604FEA1C4C0CFB0BF7D21B03FB28
:101A10000CF761EB07010CFB0EF7B0EB074072EB24
:101A200017420CFB08F734BFA2EB0742B2EB0742A8
:101A300061EB17414FEA8C554FEA910704EB9C2468
:101A400006FB07FC4FEA1C4C0CFB0BF7B0EBC74046
:101A500072EB573203FB0CF734BFA2EBC742B2EB79
:101A6000C74261EB57310CFB0EF7B0EBC70072EBCE
:101A700057720CFB08F734BFA2EBC702B2EBC702E8
:101A800061EB577115EB4C254FEA816141EA9211E8
:101A90004FEA82624FEAD13742EA901206FB07FC16
:101AA00044F100044FEA80604FEA1C4C0CFB0BF73A
:101AB000D21B03FB0CF761EB07010CFB0EF7B0EB3D
:101AC000074072EB17420CFB08F734BFA2EB07424A
:101AD000B2EB074261EB174115EB1C154FEA813160
:101AE00041EA92414FEA823242EA90424FEA803024
:101AF0004FEA0C7644F1000448EA03434EEA0B48EF
:101B00004FF0000EB2EB080C71EB030724BF6246E6
:101B100039464EEB0E0E4FF0000B00185241494172
:101B20004BEB0B0BB2EB080C71EB03077BF1000BDB
:101B300024BF624639464EEB0E0E4FF0000B0018E4
:101B4000524149414BEB0B0BB2EB080C71EB030715
:101B50007BF1000B24BF624639464EEB0E0E51EA74
:101B6000020718BF46F0010616EB0E7655F100028B
:101B700054F1000103D5BDE88901BDE80088BDE846
:101B80008901BDE80048B619524141EB0101A3F1BA
:101B90000103704780807F7E7D7C7B7A79787776C1
:101BA00076757473727171706F6E6E6D6C6C6B6A3A
:101BB0006A696868676666656464636362616160D8
:101BC000605F5F5E5E5D5D5C5C5B5B5A5A59595855
:101BD00058575756565555555454535352525251BF
:101BE000515050504F4F4F4E4E4D4D4D4C4C4C4B15
:101BF0004B4B4A4A4A49494948484847474747465C
:101C00004646454545444444444343434342424297
:101C100042414141002B9C4630D477002BD01CB56B
:101C20004FEA370703B44FF010004FF01001BAF13C
:101C3000000F06D0BCF1000FDCBF40F0080040F000
:101C400008014FF000000FBCBDE810400BF1010B84
:101C5000BBF1010F08BF5FEA170722BF12F10102B3
:101C600011F101014FF0004143F1000300F0004089
:101C700043EA00007047F9D35708D0E746EA064622
:101C800013F1400F4FEA16461FDD13F1200FDFBF9F
:101C900016430A46002120335B42BED0C3F1200721
:101CA00046EA064602FA07F74FEA164646EA0706EC
:101CB000C3F1200722FA03F201FA07F721FA03F130
:101CC0004FF0000342EA0702A7E746EA020646EAA7
:101CD00006464FEA164646EA0106BCBF46EA0646F5
:101CE000360C4FF000034FF000024FF0000194E774
:101CF0002DE9804C9A46934670B491E8380007C8A5
:101D000031EA400C48BF34EA430C03D5FFF7E6FD47
:101D1000FFF780FFF0BCBDE8008C2DE9804C9A46AF
:101D2000934670B491E8380007C810F0804F08BFA0
:101D300013F0804F03D100F005F8FFF76BFFF0BC04
:101D4000BDE8008C20F07F4780EA030023F07F4C41
:101D500007EB0C03A3F57C5300F00040A3F1FE0356
:101D600092F0000F00F0B38095F0000F00F0778044
:101D70002DE901494FEA11404FEA144621EA004893
:101D800000FB06FC24EA064708FB06F607FB08F8FA
:101D900000FB07F718EB06484CEB164C4FEA124BCA
:101DA00018EB07484FEA15464CEB174022EA0B4E5A
:101DB0000BFB06FC25EA06470EFB06F607FB0EFEAC
:101DC0000BFB07F71EEB064E4CEB164C4FF00006D4
:101DD0001EEB074E4CEB174B18EB0B0840F10000C5
:101DE00018EB0E0B58EB000840F100008F1A4FF073
:101DF00000013CBFC943661B14BFB5EB040C0021B6
:101E00003CBFC943F61B4FEA17444EEA8E0E27EA41
:101E100004454FEA1C4704FB07622CEA074C05FB0C
:101E200007F70CFB05F604FB0CFC16EB074642EB30
:101E3000174216EB0C4642EB1C421BEB060658EB16
:101E40000202414146EA9E0601D5BDE80189B61964
:101E5000524141EB0101A3F10103BDE801894FEAC1
:101E600014454FEA114724EA054621EA074C05FBD1
:101E700007F406FB07F70CFB06F105FB0CFC11EB66
:101E8000074144EB17444FEA124711EB0C4144EB76
:101E90001C4422EA074C05FB07F206FB07F70CFB84
:101EA00006F605FB0CFC16EB074642EB174216EB59
:101EB0000C4642EB1C456A1854F1000148BF7047BC
:101EC000B619524141EB0101A3F10103704795F0AE
:101ED000000F37D04FEA11424FEA144721EA024679
:101EE00024EA074C02FB07F106FB07F70CFB06F49C
:101EF00002FB0CFC14EB074441EB17414FEA15477A
:101F000014EB0C4441EB1C4125EA074C02FB07F59E
:101F100006FB07F70CFB06F602FB0CFC16EB07466C
:101F200045EB174516EB0C4645EB1C42121951F1D7
:101F3000000148BF7047B619524141EB0101A3F1BE
:101F4000010370474FEA14454FEA114724EA05465A
:101F500021EA074C05FB07F106FB07F70CFB06F22D
:101F60004FF0000605FB0CFC12EB074241EB17415A
:101F700012EB0C4251EB1C4148BF7047921841EBE9
:101F80000101A3F1010370472DE9FC5F81468B46F7
:101F900016461D464FF0000A0020307028601027BA
:101FA0001AA14846FEF76DFB00282CD00024A0465D
:101FB00018A14846FEF765FB04460CB14FF0C80A6D
:101FC00018A14846FEF75DFB0446CCB11AA1204695
:101FD000FEF757FB8046B8F1000F0ED000200090AE
:101FE0000190A8EB0400C21BE1196846FEF7AAFBAA
:101FF0006846FEF739FB286004E04FF0000A01E074
:102000004FF0000A00BF5046BDE8FC9F0D0A0D0AC4
:1020100000000000485454502F312E31203230300F
:1020200000000000436F6E74656E742D4C656E6722
:1020300074683A20000000000D0A000002480349BD
:10204000086000204860704778563412180000205D
:1020500000BFFEE77047000010B5044603A002F081
:102060004FFF04A12046FEF71EFB10BD4154453032
:102070000D0A00004F4B000010B5044603A002F00B
:102080003FFF0AA12046FEF70EFB10BD41542B5521
:102090004152545F4445463D3131353230302C3861
:1020A0002C312C302C300D0A000000004F4B00006A
:1020B00070B59EB004460D4616462B46224607A133
:1020C0006846FEF747F9684602F01AFF09A1304654
:1020D000FEF7E9FA01201EB070BD000041542B4309
:1020E000574A41503D222573222C222573220D0A86
:1020F000000000005749464920474F5420495000EE
:1021000010B59AB0044601A9002001F0E7FE48B1DD
:10211000214601A8FEF7B5FA10B101201AB010BD92
:102120000020FBE70020F9E730B585B004460D46F6
:102130000CB1012000E00020024607A16846FEF72E
:1021400009F9694608A002F0DBFE09A12846FEF75E
:10215000AAFA012005B030BD41542B4349504D55DA
:10216000583D25640000000025730D0A00000000A2
:102170004F4B00001CB50E48006840F004000C49AD
:1021800008604FF40050009001208DF804000020FA
:102190008DF8060002208DF8050000208DF807005C
:1021A0006946044800F0FEFA00F09CF81CBD0000EF
:1021B00030380240000802402DE9F041B8B007462F
:1021C0000E4614461D46DDF8F88064211FA8FEF770
:1021D00020FB17B1012F10D107E0334614A215A13F
:1021E0001FA80094FEF7B6F808E0334615A211A127
:1021F0001FA80094FEF7AEF800E000BF00BF052D59
:1022000006DA1FAB2A4610A101A8FEF7A3F804E0E6
:102210001FAA12A101A8FEF79DF801A802F070FE06
:1022200013A14046FEF73FFA012038B0BDE8F08127
:1022300054435000222573222C222573222C25730F
:10224000000000005544500041542B434950535462
:102250004152543D25642C25730D0A0041542B43F3
:10226000495053544152543D25730D0A000000005B
:102270004F4B000070B505460C4625B1012D06D028
:10228000022D0CD107E00AA002F03AFE09E00CA0F2
:1022900002F036FE05E00EA002F032FE01E0002062
:1022A00070BD00BF0EA12046FEF7FDF90120F7E743
:1022B00041542B43574D4F44453D310D0A0000001A
:1022C00041542B43574D4F44453D320D0A00000009
:1022D00041542B43574D4F44453D330D0A000000F8
:1022E0004F4B000010B50020054908604FF4FA700C
:1022F00001F04AFF01200349C1F8B40210BD0000FB
:10230000B40241420000414210B511480068A0B932
:1023100010480078022804DB00200E4908702920AC
:1023200010BD64200A4908600A480078401C094929
:10233000087009A002F0E4FD08E00BA0FFF7E0FE42
:1023400020B10020034908700120E9E70020E7E7F9
:10235000300000203800002041542B434950434CAA
:102360004F53450D0A0000004F4B000010B52020D0
:1023700001F0A2FF01200149087010BD14000020E7
:1023800038B50446202500200090200C8DF8000070
:10239000200A8DF80100E0B28DF80200240300F05D
:1023A0009BF800F077F800200E4908600A2001F041
:1023B000EBFE284602F0C4FB9DF8000002F0C0FBD3
:1023C0009DF8010002F0BCFB9DF8020002F0B8FB92
:1023D00001200549C1F880020A2001F0D5FE00F075
:1023E00059F838BD808241420080414238B5002012
:1023F000009005240A4908600A2001F0C5FE204625
:1024000002F09EFB0121684602F089FB012005498C
:10241000C1F880020A2001F0B7FE9DF8000038BD27
:102420008082414200804142F8B506460C4615467E
:10243000032700200090200C8DF80000200A8DF862
:102440000100E0B28DF802000020104908600A2067
:1024500001F09AFE384602F073FB9DF8000002F08E
:102460006FFB9DF8010002F06BFB9DF8020002F08B
:1024700067FB2946304602F052FB01200449C1F8AF
:1024800080020A2001F080FEF8BD000080824142F7
:102490000080414210B500BFFFF7A8FF00F0010027
:1024A0000028F9D110BD000010B50424002008490F
:1024B00008600A2001F068FE204602F041FB01207E
:1024C0000449C1F880020A2001F05EFE10BD000040
:1024D000808241420080414210B506240020084914
:1024E00008600A2001F050FE204602F029FB01207E
:1024F0000449C1F880020A2001F046FE10BD000028
:1025000080824142008041422DE9F04107460E465B
:102510001446F0B2C0F58075AC4200DC254612E0EE
:102520002A463146384600F013F8AC4200D10BE0A1
:102530002F442E44601B84B2B4F5807F02DD4FF43B
:10254000807500E02546EBE700BFBDE8F0810000A4
:1025500070B505460C461646FFF7BEFFFFF79AFF1B
:102560000020134908600A2001F00EFE022002F04C
:10257000E7FAC4F3074002F0E3FAC4F3072002F0DD
:10258000DFFAE0B202F0DCFA03E0287802F0D8FAD1
:102590006D1C301EA6F101018EB2F6D10120044956
:1025A00008600A2001F0F0FDFFF774FF70BD000025
:1025B000808241422DE9F04781460F4616464FF092
:1025C0000008C246002400254FEA1738C7F30B0A5B
:1025D000CAF58054A64200DC344644E04FEA083194
:1025E0004FF480522248FFF71FFF002507E00AEB57
:1025F00005001F49085CFF2800D002E06D1CA542C1
:10260000F5D300BFA54215D24046FFF7B9FE00251D
:1026100006E019F805000AEB0501154A50546D1C37
:10262000A542F6D34FEA08314FF480521048FFF725
:102630006BFF04E0224639464846FFF765FFA64295
:1026400002D1FFF731FF0FE008F101084FF0000A57
:10265000A1442744301B86B2B6F5805F02DD4FF4FB
:10266000805400E03446B9E700BFBDE8F0870000C1
:1026700080B0012001461C48814201D200207047F1
:102680001A48814201D20820F9E71948814201D253
:102690001020F4E71748814201D21820EFE71648CE
:1026A000814201D22020EAE71448814201D2282049
:1026B000E5E71348814201D23020E0E7114881422A
:1026C00001D23820DBE71048814201D24020D6E712
:1026D0000E48814201D24820D1E70D48814201D203
:1026E0005020CCE75820CAE70040000800800008CE
:1026F00000C00008000001080000020800000408F3
:10270000000006080000080800000A0800000C0885
:1027100000000E0801460868704700002DE9F047E8
:1027200004460E4617464FF009080025A946B4F1A5
:10273000006F02D304F0030008B1BDE8F08701F098
:1027400037FE254604EB87091548854214D210E070
:102750002846FFF7DFFF401C50B12846FFF78AFFED
:10276000824601F0CBFD8046B8F1090F01D002E0AE
:102770002D1D4D45ECD300BFB8F1090F0CD108E079
:102780002046316801F026FE092800D003E0241D10
:10279000361D4C45F4D300BF01F094FD00BFCCE7DB
:1027A0000000FF1FF0B50A4600210023002400BFEF
:1027B0003DE0012505FA01F3156805EA03049C4292
:1027C00034D105684F000326BE40B5430560157936
:1027D0004E00B5400668354305601579012D02D0DD
:1027E0001579022D16D185684F000326BE40B543EA
:1027F000856055794E00B5408668354385604568EB
:1028000001268E40B5434560456896798E40B6B244
:1028100035434560C5684F000326BE40B543C560DB
:10282000D5794E00B540C6683543C560491C1029AE
:10283000BFD3F0BDF0B5002300244D07ED0E02FA22
:1028400005F3CE1000F1200555F826504E07F70E7F
:102850000F26BE40B543CF1000F1200646F82750A2
:10286000CE1000F1200555F8265045EA0304CE109D
:1028700000F1200545F82640F0BD018370470000B7
:102880002DE9F04104460F461546002605A104F146
:102890001B00FDF7F6FE0646301D001B28600120D8
:1028A000BDE8F0810D0A0D0A000000000448006830
:1028B00020B103480068401E0149086070470000CD
:1028C0006C00002000BFFEE73EB50024002002900F
:1028D000019000904C48007808B901203EBD642169
:1028E0004A4800F037FB4A48006800287ED1494832
:1028F000007820B1012817D0022878D13DE0434864
:10290000FDF7F5FE85B22946404800F0BDFF50B105
:1029100005203F4908604048007820B93D480078CC
:10292000401C3C4908706BE03C48006830B94FF4EB
:102930000041002001F0D0FF3849086037480168A5
:10294000012001F0CBFAA0B101AB02AA0421334867
:102950000068FFF719FB0446C82C0DD130483149F7
:102960000860019848602B480078401C294908708D
:1029700002E000202749087042E06A462748019992
:102980000068FFF77DFF98B3244800680099084469
:1029900024490A6840F8082D49684160214989881E
:1029A0008AB21E490968009B1944A1F10800002160
:1029B000FFF700FE4FF4004118480068FDF707FFDD
:1029C0004FF48052082115480068FFF72DFD0020C4
:1029D0000D4908701148006838B11048016800209E
:1029E00001F068FF00200D49086002E009E006E000
:1029F00004E008480078401C0649087000E000BF69
:102A000000BF01206AE700007400002018070020C2
:102A10006C0000207600002075000020700000206F
:102A200079563412180000200948008809490880A6
:102A3000074812380068486005480E3801680548A4
:102A4000816003480A3801680248C160704700008D
:102A5000227AFF1FB40000201CB52A48006840F00D
:102A6000020028490860C020009002208DF8040070
:102A700001208DF8060002208DF8050001208DF858
:102A8000070069462048FFF78DFE042206211E48F4
:102A9000FFF7D0FE042207211B48FFF7CBFE1948A1
:102AA0001030006840F400101649103108601748D3
:102AB00000F030F81348006840F001001149086048
:102AC0002020009000208DF804008DF806000220E0
:102AD0008DF805008DF8070069460D48FFF762FE86
:102AE00000220221172001F01BFF002211462020A6
:102AF00001F084FB202001F0DFFBB42001F044FB57
:102B00001CBD000030380240000402400054004068
:102B10000000024010B5044600220949204601F099
:102B2000ADFC462300221146204601F04CFD204614
:102B300001F017FD0121204601F088FC10BD0000C6
:102B4000A08601001CB50C48006840F002000A494C
:102B500008601020009001208DF8040000208DF8FE
:102B6000060002208DF8050001208DF80700694657
:102B70000248FFF717FE1CBD303802400004024037
:102B80001FB50446062202A93B2000F0BFF89DF8BD
:102B900009009DF8081040EA012000B2ADF80000DD
:102BA0009DF80B009DF80A1040EA012000B2ADF834
:102BB00002009DF80D009DF80C1040EA012000B2C3
:102BC000ADF80400002020E03DF9101000290CDBD6
:102BD0003DF810204FF4FA6312FB03F1CA1701EB22
:102BE0005242D21344F820200EE03DF91020C2F1E9
:102BF000010252424FF4FA6302FB03F1CA1701EBE0
:102C00005242D21344F82020401C0328DCD31FBDBD
:102C10001FB50446062202A9432000F077F89DF86C
:102C200009009DF8081040EA012000B2ADF800004C
:102C30009DF80B009DF80A1040EA012000B2ADF8A3
:102C400002009DF80D009DF80C1040EA012000B232
:102C5000ADF80400002020E03DF9101000290CDB45
:102C60003DF810204FF4FA6312FB03F1CA1701EB91
:102C70005242D21344F820200EE03DF91020C2F158
:102C8000010252424FF4FA6302FB03F1CA1701EB4F
:102C90005242D21344F82020401C0328DCD31FBD2D
:102CA00008B50020009001226946752000F02EF83A
:102CB0009DF80000682801D0002008BD0120FCE735
:102CC00070B50024002500BF06E0002500E06D1C63
:102CD000B5F57A7FFBDB641CB4F57A7FF5DB002168
:102CE0006B2000F0BFF80721192000F0BBF8062187
:102CF0001A2000F0B7F800211C2000F0B3F81821CA
:102D00001B2000F0AFF800F003F970BD70B5064667
:102D10000D46144600BF40F20161514801F03AFCF3
:102D20000028F8D1022C03D100214D4801F09AFB74
:102D30004B4801F056FC00BF4FF4A061484801F039
:102D400029FC0028F8D06FF00102D021444801F09E
:102D500030FC00BF40F20151414801F01BFC00284B
:102D6000F8D040F201513E4801F000FC00BF40F2B3
:102D700007513B4801F00EFC0128F8D1384801F01A
:102D8000F0FB3146364801F0E9FB00BF40F202514A
:102D9000334801F0FFFB0028F8D0314801F021FC56
:102DA00000BF4FF4A0612E4801F0F4FB0028F8D0DA
:102DB0000122D0212A4801F0FCFB032C03DA002178
:102DC000274801F043FB00BF40F20151244801F0C5
:102DD000E1FB0028F8D040F20151214801F0C6FB88
:102DE000012C02D11E4801F001FC27E0032C0BD17D
:102DF00000BF40F202511A4801F0CCFB0028F8D085
:102E00000021174801F022FB022C0AD100BF40F23A
:102E10000251134801F0BEFB0028F8D0104801F021
:102E2000E5FB40F206510E4801F0B4FB30B10C480E
:102E300001F090FB28706D1C601EC4B2002CD5D12F
:102E400000BF0748006800F400700028F9D1012194
:102E5000034801F0FBFA0121014801F003FB70BDBA
:102E60000054004070B504460D4600BF40F20161B9
:102E7000264801F08FFB0028F8D1244801F0B1FB6F
:102E800000BF4FF4A061214801F084FB0028F8D076
:102E90006FF00102D0211D4801F08BFB00BF40F212
:102EA00001511A4801F076FB0028F8D040F2015198
:102EB000164801F05BFB00BF40F20751134801F0D8
:102EC00069FB0128F8D12146104801F047FB00BFFB
:102ED00040F202510D4801F05DFB0028F8D0294670
:102EE0000A4801F03BFB00BF40F20251074801F0E5
:102EF00051FB0028F8D0054801F078FB00BF0348DB
:102F0000006800F400700028F9D170BD0054004042
:102F100010B500F013F804211A20FFF7A3FF0421D5
:102F20001C20FFF79FFF1C213720FFF79BFF40214C
:102F30003820FFF797FF10BD00BFFEE710B51E2138
:102F40001F20FFF78FFF14212020FFF78BFF10BDFC
:102F50007047000030B591B004460D462946204622
:102F6000FDF735FC11A0006820601248016820467A
:102F7000FDF7DCFB10A12046FDF7D8FB402101A89E
:102F8000FDF747FC0F4803680F4810A1026801A82D
:102F9000FDF7E0F901A92046FDF7C8FB0FA1204687
:102FA000FDF7C4FB012011B030BD0000474554209F
:102FB000000000006000002020485454502F312EA3
:102FC000310D0A006800002064000020486F73740F
:102FD0003A2025733A25730D0A0000000D0A0000FF
:102FE0007047000010B5002080F3108800BFA820B3
:102FF00001F0AAF84FF48031C80201F0FDFCFFF7A0
:1030000013FDFFF79FFDFFF727FD00F0E3FD00F044
:103010002FFE164801F00AFF002001F0B5FB4FF427
:10302000E131134800F0F4FF4FF4E131114800F0B2
:10303000EFFF4FF40041002001F04EFC0E49086004
:10304000FFF73EFE00BFFFF72BFE0028FBD0FFF787
:1030500091F800F0CBF8FEF7F1FF0222074908488B
:10306000FFF75CFB642001F08FF810BD0004004006
:1030700000100140004800405400002018000020CB
:1030800000C0000829B1064A12680243044B1A60C6
:1030900004E0034A12688243014B1A607047000043
:1030A0003038024029B1064A12680243044B1A60C4
:1030B00004E0034A12688243014B1A607047000023
:1030C0004038024029B1064A12680243044B1A6094
:1030D00004E0034A12688243014B1A607047000003
:1030E0002038024029B1064A12680243044B1A6094
:1030F00004E0034A12688243014B1A6070470000E3
:1031000024380240F0B500210022002402250026C8
:103110000223324F3F6807F00C0121B1042905D08A
:10312000082937D105E02E4F076036E02D4F0760A4
:1031300033E02A4F3F1F3F68C7F38056274F3F1F9A
:103140003F6807F03F036EB1264FB7FBF3F7DFF898
:103150008CC0ACF1040CDCF800C0CCF3881C07FB7D
:103160000CF40CE01E4FB7FBF3F7DFF870C0ACF1C6
:10317000040CDCF800C0CCF3881C07FB0CF4174FE0
:103180003F1F3F68C7F301477F1C7D00B4FBF5F785
:10319000076002E0124F076000BF00BF0F4F3F689B
:1031A00007F0F0010909104F7A5C0768D7404760C3
:1031B0000A4F3F6807F4E051890A0B4F7A5C476871
:1031C000D7408760054F3F6807F46041490B064FC1
:1031D0007A5C4768D740C760F0BD000008380240FD
:1031E0000024F40000127A000000002000B589B02D
:1031F00001210220FFF746FF01212020FFF742FFB7
:1032000001218803FFF74EFF4FF460400790022032
:103210008DF8200000208DF8220003208DF8210079
:1032200001208DF8230007A92248FFF7BBFA0522E9
:103230000D212048FFF7FEFA05220E211D48FFF759
:10324000F9FA05220F211B48FFF7F4FA60200790D6
:1032500001208DF8200000208DF8220003208DF839
:10326000210001208DF8230007A91348FFF79AFADF
:1032700060211148FFF701FB104801F0D3FB6846BD
:1032800001F07CFC002001904FF48270009000203F
:10329000029005904FF400700390302006900020BB
:1032A00004906946054801F021FC044801F0AEFB9A
:1032B00009B000BD00040240001402400038004084
:1032C000704710B500F034FF10BD000008B5294864
:1032D000006840F47000274908602748006840F003
:1032E00001002549086024480830006840F080004B
:1032F0002149083108600020009002E00098401C3D
:1033000000904CF2503100988842F7D31A480830A8
:10331000006840F0900018490831086000200090D3
:1033200002E00098401C00904CF250310098884216
:10333000F7D3002010490831086000BF0E4808305C
:10334000006800200028F9D10B4800680B490840AC
:10335000094908600A48091D0860081F006820F430
:103360008020091F0860002003490C31086001F02B
:103370008DFC08BD88ED00E000380240FFFFF6FE3E
:103380001030002410B59AB000244C480068002882
:103390005FD14B480078002815DD4948007849493D
:1033A000097888420FDB0020454908700120454913
:1033B00008704548007800F1140400204249087064
:1033C000E0B21AB010BD3E480078401C3C4908707D
:1033D0003D48007820B1012812D002282FD11AE0F0
:1033E000C8203649086005203649087037A13AA040
:1033F000FCF7A4FF3E4A35A13EA0FEF759FE27E0A8
:10340000C8202E49086005202E4908703849002040
:10341000FEF78AFE1CE003202A4908704FF4FA7078
:103420002649086036A13AA0FCF788FF30480523FA
:103430003DA233A100900020FEF7BEFE08E0002070
:103440001F4908702049087001201E490870B8E71C
:1034500032E001A9002000F041FD68B3244901A831
:10346000FDF70FF950B100201449086014490870A5
:1034700015480078401C144908701DE02BA101A8D4
:10348000FDF7FFF850B100200C4908600C490870A6
:103490000D480078401C0C4908700DE027A101A8D8
:1034A000FDF7EFF840B100200449086004490870B6
:1034B00005490870202084E7002082E730000020C2
:1034C0003C0000203E0000203D0000206361693187
:1034D0003130313233000000436F6E6E656374200B
:1034E000746F20574946492025730D0A00000000DB
:1034F000C40000205869616F6D695F34303100008D
:103500003130312E33372E38392E31353700000027
:10351000436F6E6E65637420746F205365727665B9
:10352000722025730D0A000038300000414C5245CE
:1035300041445920434F4E4E454354004552524F4B
:103540005200000010B53848007820B1012810D092
:1035500002285ED12FE000203449087032480078FC
:10356000401C3149087096203149086000F040FC49
:1035700056E02F480068E8B92C480078022808DB9C
:1035800000202A49087028480078401C2649087005
:1035900010E026480178491C26A0FCF7CFFE9620B3
:1035A0002349086021480078401C2049087026A063
:1035B00001F0A6FC34E01E480068E0B91B48007822
:1035C000052806DB002019490870174908700A20F1
:1035D00010BD16480178491C1CA0FCF7AFFE9620D0
:1035E0001349086011480078401C104908701CA05D
:1035F00001F086FC0CE01CA0FEF782FD40B100202B
:103600000B49086009490870074908700120DFE785
:1036100006E0002005490870034908700A20D7E732
:1036200000BF0020D4E70000370000203600002053
:10363000300000202B2B2B0D0A4154C3FCC1EEB2ED
:10364000E2CAD425640D0A002B2B2B0041540D0A2D
:10365000BDF8C8EB4154C4A3CABD25640D0A0000DF
:1036600041540D0A000000004F4B000010B500242B
:103670005B480088062877D2DFE800F0030F293F77
:103680004F8400F0D1F838B155480088401C5449A7
:1036900008800020534908709FE0FFF753FF04465D
:1036A000012C02D0022C0FD108E04D480088401CAC
:1036B0004B49088000204B49087006E0002049492A
:1036C000087000F095F800E000BF00BF85E000F052
:1036D00025F9044614B1012C0AD100E00BE00020CA
:1036E000404908703E480088401C3D49088002E07F
:1036F00000F07EF800BF00BF6FE000F0A3F90446C1
:1037000004B908E000203749087035480088401C9B
:103710003349088000BF00BF5FE0FFF733FE044677
:1037200014B1012C16D100E02AE000202D490870C8
:103730002D48007820F00100401C2B4908700846F5
:10374000007820F002000870254800880A302449DB
:10375000088015E023480078032806DB0020214973
:10376000087000F045F80AE015E01E480078401C9B
:103770001C4908701A480088401C1949088000BF7D
:1037800000BF2AE0FEF7C0FD20B115480088401EAA
:103790001349088021E014480078C0F3800098B1F4
:1037A0001248008800280FDC0F48007820F0040041
:1037B0000D4908700846007820F00100087008469E
:1037C000007820F0020008700748007800F001003F
:1037D00010B905200249088000BF00BF10BD0000DD
:1037E000260000203F000020340000202800002098
:1037F000002009490880094908600949086009480A
:10380000007820F00100074908700846007820F091
:10381000020008707047000026000020B4024142F8
:1038200030000020340000201448006820BB1448F9
:10383000007810B1012819D10BE00020114908606F
:1038400032200E4908600E480078401C0C49087070
:1038500011E001200B49086040F2DC500749086084
:1038600007480078401C0649087004E0002004491D
:1038700008700120704700BF0020FBE730000020E7
:1038800035000020B402414270B504460D460F4891
:10389000007800F0010008B9002070BD29460CA096
:1038A00001F02EFB0A2000F06FFC2946204600F0B4
:1038B0004DFB0648007820F00400001D0349087005
:1038C00047F23050064908800120E6E73400002026
:1038D00041542B43495053454E443D25640D0A0045
:1038E000280000200A48006820B109480068401EEE
:1038F0000749086007480078C0F3800038B10648DF
:10390000008820B104480088401E034908807047A1
:1039100030000020340000202800002010B50024D2
:1039200035480068002857D134480078002814DD55
:10393000324800783249097888420EDB00202F494E
:10394000087001202E4908702E48007800F11404F8
:1039500000202C490870E0B210BD28480078401CB7
:10396000264908702748007820B101280FD0022886
:1039700028D119E024A0FCF7E1FC2648FEF76CFBF7
:10398000C8201D49086003201D49087023E0214814
:10399000FEF772FB20A0FCF7D1FCC8201649086096
:1039A00005201749087016E021A0FCF7C7FCC820C5
:1039B0001149086005201249087016490020FEF7D9
:1039C00059FC08E000200D4908700E4908700120DC
:1039D0000B490870C0E70DE00E48FEF791FB48B1B7
:1039E0000020054908600549087006480078401C19
:1039F000044908700020AFE73000002039000020A3
:103A00003B0000203A000020417C415445300D0A23
:103A100000000000C4000020417CA1B041542B49AB
:103A200050523D3131353230303B26570D0A0000BF
:103A3000417C41542B4349504D4F44453D300D0A84
:103A400000000000012070470748007800F04000A7
:103A500038B10548007800F0BF0003490870012024
:103A600070470020FCE70000400000200748007875
:103A700000F0100038B10548007800F0EF0003496D
:103A80000870012070470020FCE700004000002083
:103A90000748007800F0200038B10548007800F0B1
:103AA000DF0003490870012070470020FCE7000098
:103AB000400000200748007800F0080038B10548B1
:103AC000007800F0F70003490870012070470020DB
:103AD000FCE700004000002010B50121880701F03C
:103AE00003FA002871D00121880701F0A9F900F03C
:103AF00045FA36480068401C34490860084600789A
:103B000000F0010028B93248007840F00100304947
:103B100008702E4800680521B0FBF1F201FB12008D
:103B200028B92B48007840F002002949087027483E
:103B300000680A21B0FBF1F201FB120048B9FFF75F
:103B4000D1FEFEF7B3FE2248007840F00400204981
:103B500008701E4800681421B0FBF1F201FB12004E
:103B600028B91B48007840F0080019490870174828
:103B700000686421B0FBF1F201FB120028B914487F
:103B8000007840F010001249087010480068C82101
:103B9000B0FBF1F201FB120028B90D48007840F0AB
:103BA00020000B490870094800684FF47A71B0FB97
:103BB000F1F201FB120040B90548007840F04000E6
:103BC0000349087000200149086010BD440000202E
:103BD000400000201FB51E48006840F001001C494D
:103BE00008601B484C30006840F0807018494C3128
:103BF00008604FF0804001F053F8A720ADF80000B6
:103C00000020ADF80200ADF8040040F2E730029069
:103C10000020ADF806008DF80C0069464FF080409A
:103C200001F012F94FF4C06000F0DCFE0122002127
:103C30001C2000F075FE0121880701F051F94FF0BA
:103C4000804001F027F84FF0804001F0F4F81FBDEC
:103C50004038024010B50121044801F045F918B17F
:103C60000121024801F0ECF810BD00000004004002
:103C70001FB51D48006840F002001B4908601A4843
:103C80004C30006840F0807017494C31086017488C
:103C900001F006F844F23C10ADF800000020ADF849
:103CA0000200ADF8040040F2E73002900020ADF8C9
:103CB00006008DF80C0069460C4801F0C5F84FF479
:103CC000C06000F08FFE012200211D2000F028FEC0
:103CD0000121064801F004F9044800F0DBFF034825
:103CE00001F0A9F81FBD0000403802400004004068
:103CF0001CB51548006840F00100134908601248DF
:103D00001430006840F010000F49143108604FF47F
:103D1000C060009002208DF804008DF8050000209E
:103D20008DF8060001208DF8070069460748FEF768
:103D300039FD072209210548FEF77CFD07220A21EB
:103D40000248FEF777FD1CBD3038024000000240FB
:103D500010B505210B4801F0CEF988B1094840683B
:103D6000C4B209480068B0F5487F09D2074906483F
:103D7000006808300C5404480068401C0249086080
:103D800010BD00000010014050000020D8000020AD
:103D90001CB51548006840F001001349086012483E
:103DA0001030006840F400300F49103108600C20DA
:103DB000009002208DF804008DF8050000208DF899
:103DC000060001208DF8070069460848FEF7EAFC66
:103DD000072202210548FEF72DFD07220321034893
:103DE000FEF728FD1CBD00003038024000000240F4
:103DF000044800680021016000200349088003494D
:103E00000870704754000020580000205C0000201B
:103E10001CB51548006840F00200134908601248BC
:103E20001030006840F480200F49103108604FF4D2
:103E30004060009002208DF804008DF805000020FD
:103E40008DF8060001208DF8070069460748FEF747
:103E5000A9FC07220A210548FEF7ECFC07220B21EA
:103E60000248FEF7E7FC1CBD303802400004024067
:103E700010B51349134801F05AF900B31148001D59
:103E80000068C4B210480078C8B910480088B0F57E
:103E9000004F11DA0D48008810B901200C49087054
:103EA00000200C49087009490888411C074A118004
:103EB000094909680C5402E000200349087010BD4C
:103EC00005030500004800405C0000205800002069
:103ED0005B0000205A0000205400002070B5054609
:103EE0000E46174804881748007830B3002015495B
:103EF0000870002C1DDD65B9134909680855621C5E
:103F0000114801683046FCF71DFCFFF771FF2046A1
:103F100070BD012D11D100200B4909680855621CA4
:103F2000094801683046FCF70DFCFFF761FF2046A9
:103F3000EEE7FFF75DFF0020EAE70020E8E700007A
:103F4000580000205C0000205400002070B504469A
:103F50000D460BE000BF0621074801F0CCF8002811
:103F6000F9D014F8010B0449091D0860281EA5F1B9
:103F700001018DB2EED170BD0048004009480078C3
:103F800078B109480078401CC0B20749087032284F
:103F900007DD012005490870002002490870024928
:103FA000087070475B0000205A0000205C00002071
:103FB0001CB51548006840F0040013490860124819
:103FC0001430006840F020000F4914310860C02010
:103FD000009002208DF804008DF8050000208DF877
:103FE000060001208DF8070069460848FEF7DAFB55
:103FF000082206210548FEF71DFC08220721034878
:10400000FEF718FC1CBD00003038024000080240DA
:10401000F8B504460D4600263148204490B1B0F56D
:10402000806F19D0B0F54C4F03D0B0F5504F29D167
:104030001FE0FFF75DFE01208DF800008DF8010004
:10404000252620E0FFF7A4FE00208DF800000120C7
:104050008DF80100262616E0FFF7DAFE00208DF825
:10406000000001208DF80100272600201D4908804E
:1040700009E0FFF79DFF00208DF800008DF801009A
:10408000472600E000BF00BF204600F0BBFF2946E6
:10409000204600F05DFF0021204601F084F8002159
:1040A000204601F070F80021204601F05CF808215C
:1040B000204601F070F80421204601F05CF820460B
:1040C00001F014F89DF801209DF80010304600F032
:1040D00027FC40F20531204601F01CF8F8BD000035
:1040E00000BCFFBF5800002000BFFEE703B40198EA
:1040F0004100009850EAC12018BF04204A0D18BFA3
:1041000040F0010040F2FF72B2EB515F08BF40F097
:104110000200012808BF052002B0704730380A2885
:1041200001D2012070470020704700BF7047000097
:104130000448006820B103480068401E0149086037
:1041400070470000100000204FF0E021096921F0C5
:1041500004014FF0E0221161C21700EB5272C2F36A
:10416000C702074B1A701946097801EB4102C2EBEE
:10417000C1114FF6FF7202EAC101024A1180704775
:10418000200000202200002070B504464FF4077084
:1041900094FBF0F0C6B24FF4077094FBF0F100FB13
:1041A000114085B205E04FF4077000F009F8701E69
:1041B000C6B2002EF7D115B1284600F001F870BD47
:1041C00001460D4A12884A434FF0E0235A6100220B
:1041D0009A6101221A6100BF4FF0E022106900F0DD
:1041E00001021AB100F48032002AF5D000224FF00B
:1041F000E0231A619A6170472200002010B52D4B10
:104200001B6883432B4C2360231D1B688343241DA1
:104210002360231D1B688343241D2360231D1B680B
:104220008343241D236011B101290ED105E0214BE8
:104230001B6803431F4C236008E01E4B1B1D1B68BB
:1042400003431C4C241D236000E000BF00BF32B1BB
:10425000012A11D0022A1CD0032A27D127E0154BAE
:1042600008331B680343134C08342360231D1B6869
:104270008343241D23601BE00E4B08331B688343DC
:104280000C4C08342360231D1B680343241D23604A
:104290000EE0084B08331B680343064C08342360C8
:1042A000231D1B680343241D236001E000BF00BFE2
:1042B00000BF10BD003C014001490860704700008C
:1042C000143C01400348006840F000400149086088
:1042D00070470000103C024000B50346012200BFB9
:1042E00000F03CF802465B1E012A01D1002BF7D1F9
:1042F000012A00D10822104600BD000030B5044656
:1043000000254FF47020FFF7E7FF05460DBB12486C
:10431000006820F0F800104908600846006844F082
:10432000020108430C4908600846006840F48030E8
:1043300008604FF47020FFF7CFFF0546064800687D
:1043400020F00200044908600846006820F0F800E8
:104350000860284630BD0000103C02400020134990
:10436000096801F48031B1F5803F01D101201CE0E2
:104370000E49096801F0100109B1052015E00B494B
:10438000096801F4807109B102200EE0074909684B
:1043900001F0EF0109B1072007E00449096801F0C5
:1043A000020109B1062000E0002070470C3C0240E9
:1043B0000548006800F0004028B1044802490C3963
:1043C0000860034808607047103C024023016745BD
:1043D000AB89EFCD70B504460D4600264FF4702032
:1043E000FFF77AFF0646DEB90E48006820F44070F9
:1043F0000C4908600846006840F4007008600846F0
:10440000006840F00100086025604FF47020FFF75D
:1044100063FF06460348006820F001000149086078
:10442000304670BD103C024070B504460D4600BFDA
:104430000621054800F05FFE0028F9D0C4F308000B
:1044400001494860204670BD00100140012904D197
:10445000026842F48062026003E0026822F4806233
:104460000260704721B9026842F40062026003E012
:10447000026822F400620260704700002DE9FF5FCD
:1044800004460E4693466846FEF73CFE029F2E48C1
:10449000B7FBF0F8B8F1320F01D34FF03208D4F87F
:1044A00004A02AF03F0A4AEA080AC4F804A02748F0
:1044B000864218D82448B7FBF0F000F10109B9F1A1
:1044C000320F02D33220206201E0C4F82090700045
:1044D000B7FBF0F5042D00D20425E069C5F30B010C
:1044E0000843E0612EE01A4886422BD84FF49670BC
:1044F00008FB00F04FF47A71B0FBF1F0401C206231
:10450000BBF1000F08D106EB4600B7FBF0F5E06900
:1045100020F48040E06109E006EBC60000EB0610E5
:10452000B7FBF0F5E06940F48040E061C5F30B00B3
:1045300008B945F00105E06940F40040E061E06938
:104540002843E061BDE8FF9F40420F00A0860100C4
:10455000801A060001460869C0B27047CAB20261FB
:104560007047016841F001010160704710B540F2E9
:104570000152914202D1426982690AE000EB911234
:10458000126801F01F040123A3409A4300EB91132A
:104590001A6010BD10B5024602EB9110006801F0E0
:1045A0001F040123A340184008B1012010BD0020C2
:1045B000FCE712F1020F02D121F0010101E041F00C
:1045C00001010161704730B50C460021016821F0FE
:1045D000020121430160C3F3090342EA0305856038
:1045E00030BD016841F4807101607047016841F499
:1045F00000710160704700001CB5FEF7F3FC4CE051
:10460000FFF734F8FFF756FAFFF730FA78B123488E
:10461000007880F00100214908700846007818B140
:1046200001201F49086002E000201D490860FFF7D3
:104630002FFAFFF709FA00282FD01A48FEF7A0FA40
:104640001948FEF7E5FA184883684268016817A020
:10465000FBF774FE1B4801681BA0FBF76FFE1948AF
:1046600041681EA0FBF76AFE0422002101A8FDF7A5
:10467000DBFE042211466846FDF7D6FE1BA0019919
:10468000FBF75CFE1FA00099FBF758FE224800785C
:1046900000F0010008B1FEF717F9B1E7160000209D
:1046A00090824042A80000209C000020783A256CAF
:1046B000642C20793A256C642C207A3A256C640AA3
:1046C000000000001800002063757256657273695F
:1046D0006F6E3A307825780A0000000063757253D7
:1046E000697A653A307825780D0A0000666C617346
:1046F0006841707056657273696F6E3A30782578CC
:104700000D0A0000666C61736841707053697A65C8
:104710003A307825780D0A00340000202DE9F04168
:1047200004460E461548005D38B914482038016823
:10473000204688470120BDE8F081114850F8240048
:10474000B04219D90F4850F82400B6FBF0F10B48DD
:104750000C3850F8240030F81120002508E0002320
:1047600006480C3850F824004F1920F817306D1CFB
:104770009542F4DB0020DEE70220DCE79800002011
:104780003C5201083052010810B504460C4951F85A
:1047900024104A000B4951F82400002100F0B0F821
:1047A000094951F8242007490C3951F82400002107
:1047B00000F0A6F8012103480C30015510BD00009F
:1047C000245201088C0000203C5201082DE9F047DA
:1047D00004460F460025A9462348005D20B922481B
:1047E00020380168204688471FB94FF0FF30BDE8E8
:1047F000F0871E4850F82400B7FBF0F61B4850F82D
:104800002400B7FBF0F100FB117000B1761C1848D2
:1048100050F82400451E22E013480C3850F82400BC
:1048200030F8150010B909F1010901E04FF0000955
:10483000B14513D14FF0000809E00B480C3850F88F
:10484000240005EB080220F8126008F10108B045C9
:10485000F3D3064850F824006843C8E76D1E002DC6
:10486000DADA4FF0FF30C2E798000020305201083A
:104870002452010810B501460023002207E00B482E
:1048800050F8210030F8120000B15B1C521C08489F
:1048900050F821009042F2D864205843044C54F858
:1048A0002140B0FBF4F0C0B210BD00008C0000202D
:1048B0002452010870B505460C4604B970BD054880
:1048C00050F82500261A31462846FFF727FF00BF7B
:1048D000F4E700008000002070B504460E46314623
:1048E0002046FFF773FF0546681C08B9002070BD1D
:1048F000024850F824002844F9E700008000002016
:1049000030B50B4600B102B930BD014601E001F8F7
:10491000013B141EA2F10102F9D100BFF4E700002F
:104920002DE9F04103460D46164600240027A04617
:104930002A48006800F4E060B0F5E06F03D100BFE2
:104940004FF0040830E02548006800F4E060B0F55E
:10495000C06F03D101274FF0030825E01F4800680E
:1049600000F4E060B0F5A06F02D10227B8461BE06A
:104970001A48006800F4E060B0F5806F03D10327A7
:104980004FF0010810E01548006800F4E060B0F551
:10499000407F03D104274FF0000805E04FF4A060EA
:1049A00000F020F80227B846C7F1040005FA00F429
:1049B000C8F104010F20C8403040044324010848D6
:1049C000C45403F01F01012088405911890001F1EE
:1049D000E021C1F80001BDE8F08100000CED00E02D
:1049E00000E400E002490143024A11607047000000
:1049F0000000FA050CED00E0024A0A400243024BB7
:104A00001A60704780FFFF1F08ED00E0016841F069
:104A10004001016070470146C86880B27047C160BC
:104A20007047000010B504462A49601A8C422FD006
:104A300009DC29482044B8B1B0F5806F1ED0B0F52C
:104A4000784F43D106E0B0F5E05F2BD0B0F5005FC2
:104A50003CD131E001210803FEF744FB00214FF473
:104A60008050FEF73FFB32E001218803FEF72AFB6E
:104A700000214FF48040FEF725FB28E00121C80308
:104A8000FEF720FB00214FF40040FEF71BFB1EE069
:104A900001214803FEF726FB00214FF40050FEF7EA
:104AA00021FB14E001210805FEF71CFB00214FF457
:104AB0008010FEF717FB0AE001214805FEF712FB04
:104AC00000214FF40010FEF70DFB00E000BF00BF17
:104AD00010BD00000034014000C8FFBF02469068CE
:104AE000084008B1012070470020FCE70246002082
:104AF000106800F441500B6818434B6818438B68EA
:104B00001843CB6818430B6918434B6918438B69EA
:104B100018431060D36923F40063D361704770B504
:104B200004460E46254604E0FF2000F009F805F88B
:104B3000010B301EA6F101018EB2F5D170BD00004F
:104B400070B50446264600BF02210B48FFF7C6FF9A
:104B50000028F9D031460848FFF761FF00BF012166
:104B60000548FFF7BBFF0028F9D00348FFF753FFC4
:104B7000C5B2284670BD0000003800400021016029
:104B800041608160C16041618161016170470000E5
:104B900000203B49096841F48031394A116000BF67
:104BA0003749096801F4003129B90146401C4FF624
:104BB000FF729142F4D13249096801F4003109B918
:104BC00000BFFEE72E493031096841F080512C4A80
:104BD000303211602B49096841F44041294A116083
:104BE000274908310968264A0832116011460968C8
:104BF00041F4004111601146096841F4A05111606F
:104C00002149121F1160111F096841F08071121FA4
:104C1000116000BF1A49096801F000710029F9D03C
:104C20001849096841F48031164A116000BF1549DE
:104C3000496801F480310029F9D01249096841F42A
:104C40000031104A116000BF0E49496801F400317B
:104C50000029F9D00A490831096821F00301084AFE
:104C6000083211601146096841F00201116000BF6D
:104C700003490831096801F008010029F8D070479C
:104C800000380240007000400854400710B5FFF79C
:104C90007FFF10BD016841F0800101607047000096
:104CA00010B504465E49601A8C426FD019DC5D492C
:104CB000A4EB01008C424ED009DCB4F1804F2ED021
:104CC00059482044A0B3B0F5806F73D13AE0B0F5F5
:104CD000806F49D0B0F5006F4FD0B0F5406FF4D180
:104CE0007EE0B0F5923F5BD009DCB0F5806F76D006
:104CF000B0F5644F0AD0B0F5684FE6D147E0B0F5A3
:104D0000943F58D0B0F5963FDFD15EE001210846D0
:104D1000FEF7E8F900210120FEF7E4F97DE001212A
:104D20000846FEF7CFF900210120FEF7CBF974E029
:104D3000FFE701210220FEF7C5F900210220FEF75E
:104D4000C1F96AE001210420FEF7BCF9002104202A
:104D5000FEF7B8F961E001210820FEF7B3F9002160
:104D60000820FEF7AFF958E001211020FEF7AAF95C
:104D700000211020FEF7A6F94FE001212020FEF7C8
:104D8000A1F900212020FEF79DF946E031E0012144
:104D90000220FEF7A7F900210220FEF7A3F93CE06C
:104DA00001210804FEF79EF900214FF48030FEF740
:104DB00099F932E030E001214804FEF793F900212F
:104DC0004FF40030FEF78EF927E001218804FEF74A
:104DD00089F900214FF48020FEF784F91DE011E0ED
:104DE00001214020FEF76EF900214020FEF76AF90C
:104DF00013E001218020FEF765F900218020FEF7F5
:104E000061F90AE001210802FEF75CF900214FF484
:104E10008070FEF757F900E000BF00BF10BD000032
:104E2000001C0040000C004000FCFFBF016821F0A6
:104E3000010101607047016841F0010101607047A4
:104E4000CA430261704700000A8882621D4A90428C
:104E50000ED0B0F1804F0BD01B4A904208D01B4AB5
:104E6000904205D01A4A904202D01A4A90420BD181
:104E7000026822F07002026002684B881A430260E6
:104E800002688B881A4302608A68C262124A9042A2
:104E90000AD0124A904207D0026822F4407202609F
:104EA0000268CB881A430260064A904202D0094A3F
:104EB000904201D10A7B0263426942F001024261E1
:104EC000704700000000014000040040000800405E
:104ED000000C00400004014000100040001400409D
:104EE000C2680A43C26070470246D06800EA010304
:104EF0001069084010B10BB1012070470020FCE799
:104F00000FB438B505A800900F48009A0499FBF734
:104F100003FA002000900C48FBF7E9FB85B200245F
:104F20000DE000BF0621094800F0E5F80028F9D09F
:104F30000548005D0549091D0860601C84B2AC424B
:104F4000EFDB38BC5DF814FBF8030020004800409C
:104F50002DE9FF4704460D460027B846B94600260E
:104F60006846FEF7CFF82549601A8C421ED00CDC4B
:104F700023482044B0B1B0F5806F14D0B0F5006F75
:104F800012D0B0F5406F14D10FE0B0F5806F0ED0A5
:104F9000B0F5184F03D0B0F51C4F0AD100E000BFA8
:104FA000039F07E000BF00BF00BF00BF00BF029F1C
:104FB00000E000BF00BFE06800F4004070B178007E
:104FC00000EB5500B0FBF5F64FF6F07006EA00086E
:104FD000C6F3420948EA0900A0600CE007EB55005F
:104FE000B0FBF5F64FF6F07006EA000806F00F0980
:104FF00048EA0900A060BDE8FF8700000078004093
:1050000000BCFFBF10B504463649601A8C4251D02F
:105010000CDC35482044E0B1B0F5806F23D0B0F50A
:10502000006F33D0B0F5406F58D139E0B0F5806FE4
:105030004AD0B0F5184F03D0B0F51C4F4ED11CE04C
:1050400001212020FEF74EF800212020FEF74AF82B
:1050500045E001214804FEF735F800214FF4003007
:10506000FEF730F83BE001218804FEF72BF8002121
:105070004FF48020FEF726F831E001212020FEF7D2
:1050800031F800212020FEF72DF828E00121C80486
:10509000FEF718F800214FF40020FEF713F81EE089
:1050A00001210805FEF70EF800214FF48010FEF7ED
:1050B00009F814E001218807FEF704F800214FF0F9
:1050C0008040FDF7FFFF0AE00121C807FDF7FAFF66
:1050D00000214FF00040FDF7F5FF00E000BF00BFEA
:1050E00010BD00000078004000BCFFBFC16841F463
:1050F0000051C160704710B5024602EB9110006884
:1051000001F01F040123A340184008B1012010BD85
:105110000020FCE710B500EB9112126801F01F04AB
:105120000123A3401A4300EB91131A6010BD70B520
:10513000024600230024C1F38910105801F01F0615
:105140000125B54000EA050302EB91500068C1F368
:1051500004460125B54000EA050414B10BB1012055
:1051600070BD0020FCE7C26822F4C062C260C26861
:105170000A43C26070470A460021C16821F0040159
:105180001143C1607047026922F440520261026912
:105190000A43026170470A460021C16821F00801F4
:1051A0001143C1607047C26822F48052C260C26875
:1051B0000A43C2607047000010B500290AD0087881
:1051C000002807D005487844FCF7D6FA002801D01B
:1051D000002010BD0248784410BD0000CE01000040
:1051E000C601000010B500290AD00878002807D0B1
:1051F00005487844FCF7C0FA002801D0002010BD13
:105200000248784410BD0000B2020000AA0200006B
:105210004FF04070E1EE100A7047FBF77DBEFBF7E0
:10522000B1BF0000800C0000007800008007000083
:10523000200000002000000020000000009001007D
:1052400000000F0000F000003031323334353637C3
:1052500038394142434445464030580030313233BA
:1052600034353637383961626364656640307800BA
:10527000040000080000000000000002000100001F
:105280001000000000000000000000003031323348
:10529000343536373839616263646566787000305A
:1052A0003132333435363738394142434445465834
:1052B0005000000002400000000000A000000000BC
:1052C00005400000000000C8000000000C40000085
:1052D0000000409C00000000194000000020BCBEFF
:1052E0000000000034400000BFC91B8E0000000415
:1052F000B5400000504BCFD06607E2CF0100000060
:105300006C4100003E8251AADFEEA734010000008C
:10531000D9420000DCB5A0E23A301F97FFFFFFFF43
:10532000B4450000FD25A0C8E9A3C14FFFFFFFFF62
:10533000FF3F00000000008000000000FF3F000071
:105340000000008000000000383000003130312EB5
:1053500033372E38392E3135370000002F696F6210
:105360002F646F776E6C6F61642F6170702E62694D
:105370006E000000C0540108000000209C000000E6
:10538000C40101085C5501089C00002044C90100CB
:10539000E00101081001000043000000F8FFFFFFDA
:1053A0000040404040404040404041414141414038
:1053B00040404040404040404040404040404040ED
:1053C000400502020202020202020202020202027C
:1053D0000220202020202020202020020202020281
:1053E00002029090909090901010101010101010D9
:1053F00010101010101010101010101002020202E5
:105400000202888888888888080808080808080828
:105410000808080808080808080808080202020224
:10542000400000000000000000000000000000003C
:10543000000000000000000000000000000000006C
:10544000000000000000000000000000000000005C
:10545000000000000000000000000000000000004C
:10546000000000000000000000000000000000003C
:10547000000000000000000000000000000000002C
:10548000000000000000000000000000000000001C
:10549000000000000000000000000000000000000C
:1054A000000000001C00000043000000F8FFFFFFA8
:1054B0000C0000000E0000000F0000002E00000095
:1054C00000000000010203040102030406070809AA
:1054D00000000000000000000000000000000000CC
:1054E00000000000000000000000000000000000BC
:1054F00000000000000000000000000100000100AA
:10550000000000000000000000000000000000009B
:10551000000000000000000000000000000000008B
:105520005C5301084C530108485301080000000077
:1055300000000000010000008947010875480108CB
:105540008007002000000068000000108097012004
:0C55500000000F6800F0001000000000D8
:040000050801018964
:00000001FF
