:020000040801F1
:10000000980F0020D5020108852C010869270108F6
:100010006D2C0108071F0108513B0108000000007A
:10002000000000000000000000000000592E010840
:100030000B1F010800000000B12C0108752E0108FB
:10004000EF020108EF020108EF020108EF020108C8
:10005000EF020108EF020108EF020108EF020108B8
:10006000EF020108EF020108EF020108EF020108A8
:10007000EF020108EF020108EF020108EF02010898
:10008000EF020108EF020108EF020108EF02010888
:10009000EF020108EF020108EF0201081122010836
:1000A000EF020108EF020108EF020108EF02010868
:1000B0000136010869370108EF020108EF02010863
:1000C000EF020108EF020108EF020108EF02010848
:1000D000EF0201086D380108EF020108EF02010884
:1000E000EF020108EF020108EF020108EF02010828
:1000F000EF020108EF020108EF020108EF02010818
:10010000EF020108EF020108EF020108EF02010807
:10011000EF020108EF020108EF020108EF020108F7
:10012000EF020108EF020108EF020108EF020108E7
:10013000EF020108EF020108EF020108EF020108D7
:10014000EF020108EF020108EF020108EF020108C7
:10015000EF020108EF020108EF0201089D390108D2
:10016000EF020108EF020108EF020108EF020108A7
:10017000EF020108EF020108EF0201080000000091
:10018000EF020108EF02010800F002F800F092F817
:100190000AA090E8000C82448344AAF10107DA45E2
:1001A00001D100F087F8AFF2090EBAE80F0013F0A2
:1001B000010F18BFFB1A43F001031847384E000027
:1001C000584E0000103A24BF78C878C1FAD85207B8
:1001D00024BF30C830C144BF04680C6070470000C1
:1001E0000023002400250026103A28BF78C1FBD840
:1001F000520728BF30C148BF0B6070476E2900F01E
:100200009B83702900F06181662904F05C86652972
:1002100004F05986672904F05686612904F0558652
:1002200003681B0A28BF41F08001692900F0D280D1
:10023000642900F0CF80752900F0CC806F2900F090
:100240009384782900F02D81E92900F02D84E42998
:1002500000F02A84F52900F02784EF2900F090842B
:10026000F82900F02C810368DB0928BF41F08001E8
:10027000632900F09C83732900F0A183E32901F036
:10028000D980F32901F0DE80002070471FB504F00B
:1002900015FE01F073F904000020002104F0E2FDD6
:1002A000401C60600020002104F0F2FDE0601FBDF2
:1002B00010B510BD01F03DF91146FFF7E7FF03F05F
:1002C000FFFE01F01BFA03B4FFF7F2FF03BC03F0DB
:1002D00060FC00000948804709480047FEE7FEE748
:1002E000FEE7FEE7FEE7FEE7FEE7FEE7FEE7FEE7E6
:1002F00004480549054A064B704700007D2E010859
:100300008901010898070020980F0020980B002011
:10031000980B0020704700001CB50C46064B7B4430
:1003200069460090204600F020FB04460020694604
:1003300000F02EFB20461CBD6F0600000FB40449E0
:1003400010B503AA029800F03FFB10BC5DF814FB47
:10035000380000200FB41CB5084B06AA7B44694640
:100360000090059800F001FB04460020694600F06B
:100370000FFB20461CBC5DF814FB0000310600009A
:1003800070B50C460546012A05D02878800600D5B0
:10039000EA69002302E0012305E05B1C934202D2DC
:1003A000E05C0028F9D1A869E618C01AA861286A9B
:1003B00018442862284600F02DFA04E0D5E901210E
:1003C00014F8010B9047B442F8D3284600F038FAED
:1003D00070BD00002DE9F041064600241068752923
:1003E000314616A510D000F03CFA002802DA40424F
:1003F00013A507E031688A0701D512A502E0490775
:1004000004D511A5012401E000F034FA00210A22EC
:1004100006F1240709E0B0FBF2FCB0FBF2F302FBAB
:100420001C00303078541846491C0028F3D123466C
:100430002A463046BDE8F04100F025BA0000000031
:100440002D0000002B00000020000000F0B40D463D
:100450000188090502D5214C7C4402E01F4C7C44F4
:100460000E34002100F1240608E002F00F07120903
:10047000E75D42EA03721B097754491C52EA0307FD
:10048000F3D102780023120704D5702D06D009B1EC
:10049000022311342246F0BC00F0F5B901231034D8
:1004A000F8E770B504460D462146106800F0E2F901
:1004B000024629462046BDE870400023C6E7D21D0B
:1004C00022F00703D3E90023C0E70368126843F072
:1004D000200303600823C3610023B7E7984A0000A4
:1004E0002DE9F05F894604464FF0000ADFF874B149
:1004F000FB44C0F820A02046E1688847002874D05B
:10050000252806D0D4E901219047206A401C2062AA
:10051000F1E700265F462046E16888472028054627
:1005200007DB312D05D2781910F8200C08B10643ED
:10053000F1E7B00701D526F00406C4F81CA0002797
:10054000C4F818A02A2D09D0284603F01BFB38B3A5
:1005500004EB8708303DC8F8185019E059F8041B1F
:10056000204604EB87029161E1688847012F054628
:1005700018D1E069002820DA26F020061DE0D8F81E
:10058000180000EB800005EB40003038C8F8180078
:100590002046E1688847054603F0F4FA0028EED1CA
:1005A000012F0AD02E2D08D12046E16888477F1CF4
:1005B0000546022F46F02006C4DBA069002803DAB6
:1005C000404246F00106A061F00701D026F0100677
:1005D0006C2D0BD0682D09D04C2D39D06A2D35D01B
:1005E000742D35D07A2D33D016E038E0E1682F46EF
:1005F00020468847B842054609D16C2F26D04FF4D3
:100600008060E168064320468847054604E06C2F79
:100610001AD04FF4807006430DB3A5F1410019289C
:1006200002D8203546F400664A4629462046266010
:100630004E46FFF7E3FD80B101280BD0F61D26F0F2
:10064000070000F1080956E74020E4E78020D8E7DA
:100650000020D6E706F104094DE7284652E7206A54
:10066000BDE8F09F284A000070B5064600F0CEF8BD
:100670000468054630460A22002100F08BFA2C60FF
:1006800070BD30B505460B462A4613F8014B12F8EB
:10069000010B08B1A042F8D01CB1002802D06D1C9B
:1006A000F1E7284630BD40EA0103024630B59B071A
:1006B00010D14FF0013400E008C208C91D1B9D4352
:1006C00015EAC41FF8D013F0FF0102F8011B0DD08A
:1006D0001B0AF8E711F8013B002B02F8013B05D09B
:1006E00011F8013B002B02F8013BF3D130BD10B5EE
:1006F000431C02E010F8011B71B18107FAD14FF0E1
:10070000013202C88C1A8C4314EAC211F9D0C01A03
:100710000A0603D0C01E10BDC01A10BD0A0401D0C5
:10072000801E10BD0902FCD0401E10BD032A40F2FD
:10073000308010F0030C00F0158011F8013BBCF183
:10074000020F624498BF11F801CB00F8013B38BF9B
:1007500011F8013BA2F1040298BF00F801CB38BFA9
:1007600000F8013B11F0030300F04C82083AC0F09E
:10077000088051F8043B083A51F804CBA0E808106F
:10078000F5E7121D5CBF51F8043B40F8043BAFF3A2
:100790000080D20724BF11F8013B11F801CB48BFFC
:1007A00011F8012B24BF00F8013B00F801CB48BF32
:1007B00000F8012B70474FF0000200B51346944635
:1007C0009646203922BFA0E80C50A0E80C50B1F1A9
:1007D0002001BFF4F7AF090728BFA0E80C5048BFBD
:1007E0000CC05DF804EB890028BF40F8042B08BF5B
:1007F000704748BF20F8022B11F0804F18BF00F857
:10080000012B70477047704770477047004870472A
:100810003807002070B5044685690068C10601D517
:10082000302600E02026C00707D070BDD4E90121A2
:1008300030469047206A401C20626D1EF6D570BD80
:1008400070B5044685690078C00707D170BDD4E94A
:10085000012120209047206A401C20626D1EF6D5A1
:1008600070BD09684A0501D540B27047C905FCD57D
:1008700000B2704709684A0501D5C0B27047C90582
:10088000FCD580B270472DE9F0470D469946924657
:10089000044600F124080168880604D5E06921F0C7
:1008A0001001216000E00120A84201DD471B00E0AB
:1008B0000027A1697A1902EB0900081AA0612078C3
:1008C000C00602D42046FFF7A5FF002608E0D4E9C1
:1008D00001211AF806009047206A401C761C20620D
:1008E0004E45F4DB2078C0060AD52046FFF792FF7C
:1008F00006E0D4E9012130209047206A401C2062A4
:10090000381EA7F10107F4DC07E0D4E9012118F84B
:1009100005009047206A401C2062281EA5F10105B1
:10092000F3DC2046FFF78CFF2078000602D502207A
:10093000BDE8F0870120FBE711680268006A5305F3
:1009400001D508700AE0D30501D5088006E013063A
:1009500003D5C217C1E9000200E00860012070471A
:1009600001694A1C02610878704700B58FB0CDE973
:1009700001310021059105497944CDE90310114663
:100980006846FFF7ADFD0FB000BD0000E5FFFFFFBB
:100990000A6802F8010B0A60704710B5436913B189
:1009A000AFF3008001E0FFF7EBFC012010BD1278EF
:1009B00000F124010A7000224A700122EDE711685B
:1009C0004FF0FF32E9E70000074B70B50D467B445E
:1009D000FFF7CBFF0446284600F087FD10B14FF02B
:1009E000FF3070BD204670BD1F3400002DE9FF5F51
:1009F00015468A460446DFF8AC80F8440027D8E95B
:100A000000103E46CDE9001010E03AF816106A4694
:100A100002A800F06EFD411C07D02178890603D59D
:100A2000E269391891420DD80744761C2078800677
:100A300002D5E069B84205DDAE42E6DB3AF81600C1
:100A40000028E2D1A069C01BA0612046FFF7E2FEAA
:100A5000D8E90010CDE90010002017E03AF818108E
:100A60006A4602A800F045FDB0F1FF3F81460BD079
:100A700000250DF1080B05E0D4E901211BF8050064
:100A800090476D1C4D45F7D308F10100B0428046F8
:100A9000E4DB206A384420622046FFF7D1FEBDE83F
:100AA000FF9F0000324500002DE9F0418046D21D35
:100AB00022F007020025D2E90002F52915A614D07C
:100AC000011E72F1000106DA0023D0EB030063EB94
:100AD000020211A608E0D8F800108B0701D50FA676
:100AE00002E0490701D50EA601251146002408F1B0
:100AF000240704E000F0C4F830323A55641C50EA90
:100B00000102F7D12B46324621464046BDE8F0416E
:100B1000FFF7B9BE000000002D0000002B00000010
:100B20002000000030B4002100F1240408E002F0AD
:100B30000705D208303542EA4372DB086554491C88
:100B400052EA0305F3D10468002310A2250708D553
:100B500004F020040C4304D0C46901230CA2641ED9
:100B6000C46130BCFFF78FBE10B504462146106843
:100B7000FFF780FE02462046BDE810400023D1E783
:100B8000D21D22F00701D1E90023CBE700000000CD
:100B9000300000002DE9F04791460F46804604469C
:100BA000002614F8015B2DB100F062F80068405D8A
:100BB000C007F6D12B2D02D02D2D18D0641E4A4629
:100BC0003946204600F042FC27B13968A14201D1E4
:100BD000C7F800804FF0020471050BD54042002891
:100BE00003DDFFF713FE0460A007BDE8F08746F4BD
:100BF0008066E4E70028F8DAFFF708FE04606FF08B
:100C00000040F2E710B5203AC0F00B80B1E8185070
:100C1000203AA0E81850B1E81850A0E81850BFF4E6
:100C2000F5AF5FEA027C24BFB1E81850A0E8185085
:100C300044BF18C918C0BDE810405FEA827C24BFD9
:100C400051F8043B40F8043B08BF7047D20728BF67
:100C500031F8023B48BF11F8012B28BF20F8023BB6
:100C600048BF00F8012B7047004870473807002044
:100C700010B500F083FC001D10BD00BFE94100006D
:100C800030B5B0F10A024FEA900E71F100034EEA5E
:100C9000817EB0EB0E0061EB91014FEA101E4EEA2F
:100CA000017E10EB0E0041EB11114FEA102E4EEABF
:100CB000016E10EB0E0041EB11214FEA104E4EEA8F
:100CC000014E10EB0E0041EB1141401841F10001C3
:100CD0004FEAD00040EA41704FEAD10110EB8005A5
:100CE0004FEA810444EA907444EB01046D1944EB2B
:100CF0000404521BA3414FF0000348BF0A3200D541
:100D000030BD401C41F1000130BD70472DE9FF4F5F
:100D10000C461E464FF0FF378BB0D2E90001DDF8DC
:100D200060800A908A46C1F30A5505B93D46002104
:100D300008464FF00000BAF1000F00F4400005DA59
:100D400000EB80004FF4400101EA50004FEA905957
:100D5000B9F1010F00DDB9460A9850EA4A000ED0F9
:100D600044F61050A5F2FF3545432F14B8F1000F9B
:100D70001ED07542291E1EDDC9F100021CE0B8F12B
:100D8000010F4FF0000001D0302103E0F24305E0F5
:100D90002154401CB042FBDB30460022002121548C
:100DA0000B99C1F80880C1E900200FB0BDE8F08FB1
:100DB000BD1B6D1CDEE74A4600DA694206A800F05A
:100DC0002FFC06AB93E8070003AB83E8070050460F
:100DD0000A9900F0DDFC8DE80700A0F500501F38EF
:100DE00000900398002D09DD42F21F014A46084495
:100DF00003A90390684600F03CFF08E0A0F500500E
:100E00004A461F3803A90390684600F046FF8DE864
:100E100007000004000C03D04FF0FF30410800E051
:100E20001046B8F1000F03D00022009215461EE0D4
:100E3000751E05D4FFF724FF303262556D1EF9D5BB
:100E4000B3460122084302D000227F1C04E0207830
:100E5000302801D100227F1E002A099786D01DE08C
:100E6000112D07DAFFF70CFF303262556D1C50EA86
:100E70000102F5D1084302D00098C8B10EE000216C
:100E8000681E05E0235C625C63542254401E491CCA
:100E90008142F7DBAB46A81B401E0990002004F8F6
:100EA0000B000B98099AC0F80880C0E9002B7CE77A
:100EB00011264FF0000859E72DE9F04F8846044607
:100EC000D21D22F0070191B0D1E90001CDE90A015C
:100ED00002F040FE02460B98C00F01D02D2007E023
:100EE0002068810701D52B2002E0202101EAC00003
:100EF000032A099001D0072A05DB03464146204614
:100F000000F040FB0BE12078800601D5E06900E0AD
:100F10000620B8F1650F814606D0B8F1660F18D0EB
:100F2000B8F1670F70D131E00020B9F1110F0090D6
:100F300001DB112301E009F101030AAA01A90CA8B0
:100F4000FFF7E4FEDDE90C70002609F10105834698
:100F500047E001204B4600904FF000470AAA01A944
:100F60000CA8FFF7D3FEDDE90DB00C995D46002615
:100F700010B909F101000D18B9EB050003D4C0F157
:100F8000FF3609F10105A5EB09002BE0B9F1010FCE
:100F900001DA4FF001090020B9F1110F0090484625
:100FA00001DD112300E003460AAA01A90CA8FFF7FE
:100FB000ADFEDDE90C704D46002683462078000723
:100FC0000AD4AB4500DA5D4601A8012D04DD4119C4
:100FD00011F8011C302907D04F4502DA17F1040F30
:100FE00004DA012082460FE06D1EEEE7002F02DCDE
:100FF000ED1B3E4403E0781CA84200DD7D1CB81BBD
:1010000000F1010A4FF000472078000703D4AA45F9
:1010100001DB4FF0FF3A0021B7F1004F0DF143081B
:101020008DF8431024D002202B23002F01DA7F42B9
:101030002D230A21021EA0F1010000DC5FB197FB05
:10104000F1FC97FBF1F201FB1C7C17460CF1300C14
:1010500008F801CDEEE7A8F1010003702188090529
:1010600001D5452100E06521A0F1010800F8011C2F
:1010700009980FA9A1EB0807FF1D00B10120411934
:1010800001EBEA70A1693844081A401EA06120787B
:10109000C00602D42046FFF7BDFB099828B1D4E969
:1010A00001219047206A401C20622078C00622D58A
:1010B0002046FFF7AFFB1EE0002E04DBB34502DD48
:1010C00001A8805D00E03020D4E901219047206A2A
:1010D000401C2062761CAAF101005FEA000A0AD1D6
:1010E00000F04CFAC0680168405CD4E901219047E7
:1010F000206A401C2062281EA5F10105DCDC07E007
:10110000D4E9012118F8010B9047206A401C2062A5
:10111000381EA7F10107F3DC2046FFF791FB0320FF
:1011200011B043E62DE9F04F04460D46D21D22F0E2
:10113000070089B0D0E900974846394602F00AFD19
:101140000246F80F01D02D2307E02068810701D562
:101150002B2302E0202101EAC0038DF820300BB1DF
:10116000012000E00020032A824601D0072A04DB88
:101170002946204600F006FA3FE12078800601D497
:101180000D2500E0E569C7F30A560D2D49DA002167
:101190004FEA175B08464FF00000002F00F44000B4
:1011A00007DA00EB80004FF4400100EBD07001EA59
:1011B00060008115012901DD4FF0FF3100224FEA67
:1011C000850CBCF1180F06D31346ACF118004FF094
:1011D0008052C24003E04FF4801323FA0CF30CF169
:1011E0000C0CBCF1200F04D3ACF1200C09FA0CF06C
:1011F00001E007FA0CF000294FF0004801DD18B9B2
:101200000FE00ED140450CD319EB02095F4121B923
:10121000404502D19F4329EA0209BBEB175F00D08A
:10122000761C2088000502D57B48784402E07A4885
:101230007844193808AA302302F80A30037C0AF1EE
:101240000101002E0AF1020A53546A4602DC4FF0F3
:10125000300101E04FF031014FF001088DF800102E
:1012600002D0A6F2FF3603E059EA470100D06B4EE8
:10127000002D02DC2178090704D54FF002082E2149
:101280008DF80110C44600210BE0C7F303433F0172
:10129000C35C491C6D1E02F80830052908F10108DD
:1012A00001DA002DF1DC00210CE000EB1973491C80
:1012B0001B786D1E082902F808304FEA091908F159
:1012C000010801DA002DF0DC21688B0602D516E05A
:1012D000A8F10108E04505DD02EB080313F8013C25
:1012E000302BF5D0B8F1000F09DD02EB080313F83D
:1012F000013C2E2B03D1090701D4A8F10108002DD0
:1013000005DD3E2102F808106D1E08F10108407C41
:10131000002E02F8080008F1010804DA2D207642B8
:1013200002F8080002E02B2002F808000A214FF41E
:101330007A70864208F101080BDB96FBF0F330333C
:1013400002F8083096FBF0F308F1010800FB136681
:1013500001E0642E0CDB642096FBF0F3303302F8DE
:10136000083096FBF0F308F1010800FB136601E07A
:101370000A2E06DB96FBF1F0303002F8080008F187
:10138000010896FBF1F001FB1060303002F8080014
:10139000A16908F1010808EB050202EB0A00081A2E
:1013A000A0612078C00602D42046FFF733FA216AF4
:1013B00008AE01EB0A00206204E0D4E9012116F82E
:1013C000010B9047BAF1010AF7D22078C00602D586
:1013D0002046FFF71FFA6E4609E016F8010B3E287B
:1013E0000FD0D4E901219047206A401C2062B8F157
:1013F0000108F2D22046FFF723FA09B00320BDE826
:10140000F08F206A2844206203E0D4E901213020D3
:1014100090476D1EEBD3F8E71D3D000002FCFFFF77
:1014200010B5436913B1AFF3008001E0FFF7DEFAB6
:10143000012010BD128800F1240182840022C284A0
:101440000122EDE711684FF0FF32E9E72DE9F05F87
:10145000824615468B4600270AF10104B9460078FA
:10146000302801D09DB113E014F8010B0127782832
:1014700003D0582801D045B10AE00DB1102D07D195
:10148000002714F8010B102502E0082500E00A25CA
:101490000026B0460EE005FB080005FB06F101271B
:1014A0001FFA80F801EB1046B6F5803F00D3B9462D
:1014B00014F8010B294600F0A5F80028EBDABBF17F
:1014C000000F05D00FB1641E00E05446CBF8004079
:1014D000B9F1000F06D0FFF799F902210160C81E8B
:1014E000BDE8F09F48EA0640FAE7007B00F0800084
:1014F000704770B516460C460546FFF7B9FB036802
:1015000093F80101012806D0FF2C0FD8185D68B1AF
:1015100001202C7070BDD3F807013246214603F23A
:10152000071303442846BDE8704018474FF0FF30CA
:1015300070BD7546FFF798FBAE46050069465346F9
:1015400020F00700854618B020B5FEF7D1FEBDE8B3
:1015500020404FF000064FF000074FF000084FF01A
:10156000000B21F00701AC46ACE8C009ACE8C009AB
:10157000ACE8C009ACE8C0098D4670470048704728
:10158000580700202DE9F0411F4604460326016854
:10159000072A01F4006004DB08B116A505E016A5D2
:1015A00003E008B115A500E015A521F010002060AA
:1015B000A069C01EA0610FB1401EA0612046FFF7C8
:1015C00029F94FB1D4E9012138469047206A401CDF
:1015D0002062C01C206206E0206AFAE7D4E90121FB
:1015E00015F8010B9047761EF8D22046FFF728F930
:1015F000BDE8F0814E414E006E616E00494E4600DE
:10160000696E66003A2800D2303820F02002412A64
:1016100001D3A2F13700884201D34FF0FF30704769
:101620002DE9F047814616468AB0334878440DC804
:101630008DE80D0030487844801C03AC0DC884E868
:101640000D0041F69B300844372190FBF1F290FBEE
:10165000F1F5A5F1800501FB12041B3C02D56442A3
:10166000012000E00020DFF890A080460027FA4427
:10167000AAF1BE0A0DE0E00709D03246684607EB42
:1016800047010AEB810100F008FB8DE807006410B8
:101690007F1C002CEFD1184F7F44AC3F18E0E807C7
:1016A00014D007EB04100DF1180A90E80E008AE838
:1016B0000E00C068F04201D198190890324606A980
:1016C00003A800F0EAFA03AB83E807006D10641C7E
:1016D000002DE4D132466946B8F1000F03A802D0CC
:1016E00000F0C7FA01E000F0D8FAC9E90001C9F832
:1016F00008200AB0BDE8F087AC39000010B50446F8
:10170000AFF300802046BDE81040FEF7DCBD0000CE
:101710004FF0013C50F8042B51F8043B9A4221D180
:10172000A2EB0C03934313EACC1317D150F8042B0C
:1017300051F8043B9A4215D1A2EB0C03934313EAF0
:10174000CC130BD150F8042B51F8043B9A4209D129
:10175000A2EB0C03934313EACC13DBD04FF0000051
:10176000704700BFD01A01BAB1FA81F101F0180137
:1017700022FA01F0CB40C1F12001DBB2C0B2C01AA5
:101780002CFA01F3D11A914311EAC311E6D1704743
:101790005FEA400C08BF91F0000F4FEA8C234FEA3C
:1017A000C12243EA51514FEA1C5018BF00F5F040E6
:1017B0004FEA300018BF41F000415FEA6C5C00F076
:1017C0002980BCF1FF3F08BF40F080407047130CF8
:1017D00006BF12044FF0100C4FF0000C130E04BFA4
:1017E00012020CF1080C130F04BF12010CF1040CCF
:1017F000930F04BF92000CF1020CD30F04BF5200F0
:101800000CF1010C11464FF00002A0F11F00A0EBFB
:101810000C00704711F0004F08BF704731F00041D5
:101820003FF4D5AF0B0C06BF09044FF0100C4FF07E
:10183000000C0B0E04BF09020CF1080C0B0F04BFC7
:1018400009010CF1040C8B0F04BF89000CF1020C90
:10185000CB0F04BF49000CF1010CCCF12003A0EB2D
:101860000C0022FA03F302FA0CF241EA030100F140
:101870000100704720F07F4C80EA030023F07F478F
:10188000ACEB070303F57C5300F0004003F1FF03CA
:101890002DE980494FEA154B09B44FEA144325EA74
:1018A0000B4E24EA03480FF2042606EB13274908DF
:1018B0003E785FEA320203FB0667C7F5000707FBC5
:1018C00006F64FEA54374FEAD64606F1020607FB02
:1018D000066CCCF1005C4FEA1C472CEA074C07FB76
:1018E00006F40CFB06F504EB15464FEA961634BFDA
:1018F00000204FF000404FEAD13706FB07FC4FEACB
:101900001C4C0CFB0BF7D21B03FB0CF761EB070124
:101910000CFB0EF7B0EB074072EB17420CFB08F71D
:1019200034BFA2EB0742B2EB074261EB17414FEA2B
:101930000C444FEA910706FB07FC4FEA1C4C0CFBDA
:101940000BF7B0EBC74072EB573203FB0CF734BF19
:10195000A2EBC742B2EBC74261EB57310CFB0EF76B
:10196000B0EBC70072EB57720CFB08F734BFA2EB69
:10197000C702B2EBC70261EB5771039F4FEA816167
:1019800041EA921104EBCC044FEAD1374FEA82626C
:1019900006FB07FC42EA90124FEA80604FEA1C4CBB
:1019A0000CFB0BF7D21B03FB0CF761EB07010CFBE5
:1019B0000EF7B0EB074072EB17420CFB08F734BF91
:1019C000A2EB0742B2EB074261EB17414FEA8C559D
:1019D0004FEA910704EB9C2406FB07FC4FEA1C4CE2
:1019E0000CFB0BF7B0EBC74072EB573203FB0CF765
:1019F00034BFA2EBC742B2EBC74261EB57310CFBDD
:101A00000EF7B0EBC70072EB57720CFB08F734BF50
:101A1000A2EBC702B2EBC70261EB577115EB4C2585
:101A20004FEA816141EA92114FEA82624FEAD1376F
:101A300042EA901206FB07FC44F100044FEA806082
:101A40004FEA1C4C0CFB0BF7D21B03FB0CF761EBB2
:101A500007010CFB0EF7B0EB074072EB17420CFBD3
:101A600008F734BFA2EB0742B2EB074261EB174124
:101A700015EB1C154FEA813141EA92414FEA82325F
:101A800042EA90424FEA80304FEA0C7644F100047B
:101A900048EA03434EEA0B484FF0000EB2EB080C45
:101AA00071EB030724BF624639464EEB0E0E4FF032
:101AB000000B0018524149414BEB0B0BB2EB080CE9
:101AC00071EB03077BF1000B24BF624639464EEBF6
:101AD0000E0E4FF0000B0018524149414BEB0B0B1F
:101AE000B2EB080C71EB03077BF1000B24BF6246DD
:101AF00039464EEB0E0E51EA020718BF46F00106BA
:101B000016EB0E7655F1000254F1000103D5BDE845
:101B10008901BDE80088BDE88901BDE80048B61923
:101B2000524141EB0101A3F10103704780807F7EA8
:101B30007D7C7B7A79787776767574737271717043
:101B40006F6E6E6D6C6C6B6A6A69686867666665F5
:101B50006464636362616160605F5F5E5E5D5D5C83
:101B60005C5B5B5A5A5959585857575656555555F4
:101B70005454535352525251515050504F4F4F4E54
:101B80004E4D4D4D4C4C4C4B4B4B4A4A4A494949A2
:101B900048484847474747464646454545444444E4
:101BA000444343434342424242414141002B26D4F5
:101BB000770021D01CB54FEA370703B44FF010006F
:101BC0004FF010014FF000000FBCBDE810400BF1CA
:101BD000010BBBF1010F08BF5FEA170722BF12F12B
:101BE000010211F101014FF0004143F1000300F047
:101BF000004043EA00007047F9D35708DAE746EAA5
:101C0000064613F1400F4FEA16461FDD13F1200F71
:101C1000DFBF16430A46002120335B42C8D0C3F120
:101C2000200746EA064602FA07F74FEA164646EA52
:101C30000706C3F1200722FA03F201FA07F721FA97
:101C400003F14FF0000342EA0702B1E746EA020659
:101C500046EA06464FEA164646EA0106BCBF46EA91
:101C60000646360C4FF000034FF000024FF0000123
:101C70009EE72DE9C048934630B491E8380007C884
:101C800031EA400C48BF34EA430C03D5FFF7F2FDBC
:101C9000FFF78CFFF0BCBDE800882DE9C0489346F3
:101CA00030B491E8380007C810F0804F08BF13F037
:101CB000804F03D100F005F8FFF778FFF0BCBDE8D6
:101CC000008820F07F4780EA030023F07F4C07EB79
:101CD0000C03A3F57C5300F00040A3F1FE0392F047
:101CE000000F00F0B38095F0000F00F077802DE931
:101CF00001494FEA11404FEA144621EA004800FB2F
:101D000006FC24EA064708FB06F607FB08F800FB7A
:101D100007F718EB06484CEB164C4FEA124B18EB42
:101D200007484FEA15464CEB174022EA0B4E0BFBD7
:101D300006FC25EA06470EFB06F607FB0EFE0BFB2C
:101D400007F71EEB064E4CEB164C4FF000061EEB51
:101D5000074E4CEB174B18EB0B0840F1000018EB4B
:101D60000E0B58EB000840F100008F1A4FF00001F5
:101D70003CBFC943661B14BFB5EB040C00213CBF3C
:101D8000C943F61B4FEA17444EEA8E0E27EA044574
:101D90004FEA1C4704FB07622CEA074C05FB07F7D8
:101DA0000CFB05F604FB0CFC16EB074642EB174256
:101DB00016EB0C4642EB1C421BEB060658EB0202EC
:101DC000414146EA9E0601D5BDE80189B619524156
:101DD00041EB0101A3F10103BDE801894FEA14457C
:101DE0004FEA114724EA054621EA074C05FB07F4B0
:101DF00006FB07F70CFB06F105FB0CFC11EB07419A
:101E000044EB17444FEA124711EB0C4144EB1C44DE
:101E100022EA074C05FB07F206FB07F70CFB06F668
:101E200005FB0CFC16EB074642EB174216EB0C4683
:101E300042EB1C456A1854F1000148BF7047B619BF
:101E4000524141EB0101A3F10103704795F0000FEE
:101E500037D04FEA11424FEA144721EA024624EAFA
:101E6000074C02FB07F106FB07F70CFB06F402FB2D
:101E70000CFC14EB074441EB17414FEA154714EBF8
:101E80000C4441EB1C4125EA074C02FB07F506FB1D
:101E900007F70CFB06F602FB0CFC16EB074645EBBE
:101EA000174516EB0C4645EB1C42121951F1000187
:101EB00048BF7047B619524141EB0101A3F101033C
:101EC00070474FEA14454FEA114724EA054621EAD4
:101ED000074C05FB07F106FB07F70CFB06F24FF07A
:101EE000000605FB0CFC12EB074241EB174112EB1D
:101EF0000C4251EB1C4148BF7047921841EB010165
:101F0000A3F10103704700BFFEE7704710B5044618
:101F100003A002F037FE04A12046FEF7C4FB10BD6B
:101F200041540D0A000000004F4B000010B504465C
:101F300003A002F027FE0AA12046FEF7B4FB10BD65
:101F400041542B554152545F4445463D3131353261
:101F500030302C382C312C302C300D0A0000000091
:101F60004F4B000070B59EB004460D4616462B46FA
:101F7000224607A16846FEF7EDF9684602F002FE28
:101F800009A13046FEF78FFB01201EB070BD000096
:101F900041542B43574A41503D222573222C222580
:101FA00073220D0A000000005749464920474F544C
:101FB0002049500010B59AB0044601A801F024FD54
:101FC00048B1214601A8FEF75CFB10B101201AB010
:101FD00010BD0020FBE70020F9E7000030B585B018
:101FE00004460D460CB1012000E00020024607A186
:101FF0006846FEF7AFF9694608A002F0C3FD09A1E3
:102000002846FEF750FB012005B030BD41542B435C
:1020100049504D55583D25640000000025730D0AB8
:10202000000000004F4B000010B540F6024002F0E7
:10203000C9FA4FF4005300220121064801F022FFA3
:102040004FF4005302220021024801F042FF00F049
:1020500099F810BD000802402DE9F041B8B00746DC
:102060000E4614461D46DDF8F88064211FA8FEF7D1
:10207000A2FB17B1012F10D107E0334614A215A11E
:102080001FA80094FEF766F908E0334615A211A1D7
:102090001FA80094FEF75EF900E000BF00BF052D09
:1020A00006DA1FAB2A4610A101A8FEF753F904E097
:1020B0001FAA12A101A8FEF74DF901A802F062FDC6
:1020C00013A14046FEF7EFFA012038B0BDE8F081D9
:1020D00054435000222573222C222573222C257371
:1020E000000000005544500041542B4349505354C4
:1020F0004152543D25642C25730D0A0041542B4355
:10210000495053544152543D25730D0A00000000BC
:102110004F4B000070B505460C4625B1012D06D089
:10212000022D0CD107E00AA002F02CFD09E00CA062
:1021300002F028FD05E00EA002F024FD01E00020E1
:1021400070BD00BF0EA12046FEF7ADFA0120F7E7F3
:1021500041542B43574D4F44453D310D0A0000007B
:1021600041542B43574D4F44453D320D0A0000006A
:1021700041542B43574D4F44453D330D0A00000059
:102180004F4B000010B54FF40051064801F071FEAE
:102190004FF4FA7001F000FD4FF40051014801F0D6
:1021A0006AFE10BD0008024010B512480068A8B9C8
:1021B00011480078022804DB00200F49087029200C
:1021C00010BD4FF47A700B4908600B480078401C32
:1021D0000949087009A002F0D5FC08E00BA0FFF740
:1021E000E9FE20B10020044908700120E8E7002042
:1021F000E6E700001C0000202400002041542B438F
:102200004950434C4F53450D0A0000004F4B00000E
:1022100010B5202001F034FD01200149087010BDE7
:102220000800002070B504462025240300F09EF825
:1022300000F07AF8002201210F4801F01EFE0A206A
:1022400001F0AAFC284602F099FAC4F3074002F014
:1022500095FAC4F3072002F091FAE0B202F08EFA88
:1022600001221146044801F008FE0A2001F094FC06
:1022700000F05AF870BD0000000C024038B5002094
:1022800000900524002201210B4801F0F6FD0A20F0
:1022900001F082FC204602F071FA0121684602F04A
:1022A0005CFA01221146044801F0E7FD0A2001F022
:1022B00073FC9DF8000038BD000C0240F8B50646DE
:1022C0000C461546032700200090200C8DF80000D6
:1022D000200A8DF80100E0B28DF8020000220121F1
:1022E000104801F0CAFD0A2001F056FC384602F001
:1022F00045FA9DF8000002F041FA9DF8010002F055
:102300003DFA9DF8020002F039FA2946304602F003
:1023100024FA01221146034801F0AFFD0A2001F022
:102320003BFCF8BD000C024010B500BFFFF7A6FF54
:1023300000F001000028F9D110BD000010B5042400
:1023400000220121084801F098FD0A2001F024FC38
:10235000204602F013FA01221146034801F08DFDD8
:102360000A2001F019FC10BD000C024010B5062433
:1023700000220121084801F080FD0A2001F00CFC38
:10238000204602F0FBF901221146034801F075FDD9
:102390000A2001F001FC10BD000C02402DE9F041C3
:1023A00007460E461446F0B2C0F58075AC4200DC1C
:1023B000254612E02A463146384600F013F8AC4272
:1023C00000D10BE02F442E44601B84B2B4F5807F13
:1023D00002DD4FF4807500E02546EBE700BFBDE865
:1023E000F081000070B505460C461646FFF7BEFFAB
:1023F000FFF79AFF00220121144801F03EFD0A2058
:1024000001F0CAFB022002F0B9F9C4F3074002F060
:10241000B5F9C4F3072002F0B1F9E0B202F0AEF969
:1024200003E0287802F0AAF96D1C301EA6F1010124
:102430008EB2F6D101221146044801F01EFD0A2099
:1024400001F0AAFBFFF770FF70BD0000000C024016
:1024500070B504460125FFF789FFFFF765FF0022ED
:1024600001210A4801F009FD0A2001F095FB2846E8
:1024700002F084F9204602F081F901221146034856
:1024800001F0FBFC0A2001F087FB70BD000C02404C
:102490002DE9F04781460F4616464FF00008C24628
:1024A000002400254FEA1738C7F30B0ACAF58054F9
:1024B000A64200DC34464AE04FEA08314FF480522D
:1024C0002548FFF7FBFE002507E00AEB050022493F
:1024D000085CFF2800D002E06D1CA542F5D300BFC8
:1024E000A5421BD24046FFF79DFE002506E019F8E5
:1024F00005000AEB0501184A50546D1CA542F6D39D
:102500004FEA08314FF480521348FFF747FF4FF46A
:10251000805200211048FFF7D1FE04E022463946E0
:102520004846FFF73BFFA64202D1FFF707FF0FE047
:1025300008F101084FF0000AA1442744301B86B27D
:10254000B6F5805F02DD4FF4805400E03446B3E717
:1025500000BFBDE8F087000000A0012001461C4834
:10256000814201D2002070471A48814201D20820DE
:10257000F9E71948814201D21020F4E71748814257
:1025800001D21820EFE71648814201D22020EAE765
:102590001448814201D22820E5E71348814201D244
:1025A0003020E0E71148814201D23820DBE71048B3
:1025B000814201D24020D6E70E48814201D2482014
:1025C000D1E70D48814201D25020CCE75820CAE71C
:1025D000004000080080000800C00008000001085A
:1025E00000000208000004080000060800000808B7
:1025F00000000A0800000C0800000E0801460868E8
:10260000704700002DE9F04704460E4617464FF08C
:1026100009080025A946B4F1006F02D304F00300B5
:1026200008B1BDE8F08701F0A7FB254604EB870958
:102630001548854214D210E02846FFF7DFFF401C02
:1026400050B12846FFF78AFF824601F03BFB8046E7
:10265000B8F1090F01D002E02D1D4D45ECD300BFAC
:10266000B8F1090F0CD108E02046316801F096FB63
:10267000092800D003E0241D361D4C45F4D300BFCB
:1026800001F004FB00BFCCE70000FF1F70B546253A
:102690000448FEF72CF884B22146024800F0AAFE56
:1026A000012070BD500000202DE9FC5F82468B4662
:1026B00015461E460C9F00202870307038604FF081
:1026C00010081DA15046FDF7DCFF002831D0002482
:1026D000A1461BA15046FDF7D4FF044614B1C82003
:1026E000287002E00020BDE8FC9F19A15046FDF7CC
:1026F000C8FF0446D4B11BA12046FDF7C2FF8146A6
:10270000B9F1000F11D0002000900190A9EB040056
:10271000A0EB080204EB08016846FEF707F86846DC
:10272000FDF7A2FF38600120DDE701E00020DAE7D5
:1027300000BF0020D7E700000D0A0D0A00000000CE
:10274000485454502F312E312032303000000000D8
:10275000436F6E74656E742D4C656E6774683A20B5
:10276000000000000D0A000000BFFEE709480088D5
:1027700009490880074812380068486005480E3843
:1027800001680548816003480A3801680248C16051
:1027900070470000227AFF1FD400002010B540F6D9
:1027A000014001F00FFF40220421214801F032FBDB
:1027B000802204211E4801F02DFB4023012202212A
:1027C0001B4801F05FFB402302220121184801F061
:1027D00080FB802301220221154801F053FB802356
:1027E00002220121124801F074FB41F2150001F0B0
:1027F000E9FE104800F022F84FF4406001F0E2FEDC
:102800002023022200210C4801F03CFB002202217F
:10281000172001F0CFFD00221146202001F0D2F94F
:10282000202001F02DFAB42001F0B6F910BD00000F
:1028300000040240005400400000024010B504466D
:1028400000220949204601F07DFB46230022114663
:10285000204601F01CFC204601F0E7FB0121204648
:1028600001F058FB10BD0000A086010010B540F635
:10287000014001F0A7FE102300220121044801F0CD
:1028800001FB102302220021014801F022FB10BDB0
:102890000004024010B51021014801F0EAFA10BD11
:1028A0000004024010B51021014801F0E4FA10BD07
:1028B000000402401FB50446062202A93B2000F096
:1028C000BFF89DF809009DF8081040EA012000B209
:1028D000ADF800009DF80B009DF80A1040EA0120B9
:1028E00000B2ADF802009DF80D009DF80C1040EA12
:1028F000012000B2ADF80400002020E03DF91010E6
:1029000000290CDB3DF810204FF4FA6312FB03F1B1
:10291000CA1701EB5242D21344F820200EE03DF9D1
:102920001020C2F1010252424FF4FA6302FB03F19C
:10293000CA1701EB5242D21344F82020401C03284E
:10294000DCD31FBD1FB50446062202A9432000F0B8
:1029500077F89DF809009DF8081040EA012000B2C0
:10296000ADF800009DF80B009DF80A1040EA012028
:1029700000B2ADF802009DF80D009DF80C1040EA81
:10298000012000B2ADF80400002020E03DF9101055
:1029900000290CDB3DF810204FF4FA6312FB03F121
:1029A000CA1701EB5242D21344F820200EE03DF941
:1029B0001020C2F1010252424FF4FA6302FB03F10C
:1029C000CA1701EB5242D21344F82020401C0328BE
:1029D000DCD31FBD08B50020009001226946752098
:1029E00000F02EF89DF80000682801D0002008BDF6
:1029F0000120FCE770B50024002500BF06E000259B
:102A000000E06D1CB5F57A7FFBDB641CB4F57A7FC2
:102A1000F5DB00216B2000F0BFF80721192000F042
:102A2000BBF806211A2000F0B7F800211C2000F0A6
:102A3000B3F818211B2000F0AFF800F003F970BDC7
:102A400070B506460D46144600BF40F2016151487C
:102A500001F004FB0028F8D1022C03D100214D48DD
:102A600001F064FA4B4801F020FB00BF4FF4A06175
:102A7000484801F0F3FA0028F8D06FF00102D021A5
:102A8000444801F0FAFA00BF40F20151414801F018
:102A9000E5FA0028F8D040F201513E4801F0CAFAA8
:102AA00000BF40F207513B4801F0D8FA0128F8D1A5
:102AB000384801F0BAFA3146364801F0B3FA00BF9F
:102AC00040F20251334801F0C9FA0028F8D03148E9
:102AD00001F0EBFA00BF4FF4A0612E4801F0BEFAFE
:102AE0000028F8D00122D0212A4801F0C6FA032C90
:102AF00003DA0021274801F00DFA00BF40F201512E
:102B0000244801F0ABFA0028F8D040F201512148E6
:102B100001F090FA012C02D11E4801F0CBFA27E017
:102B2000032C0BD100BF40F202511A4801F096FA73
:102B30000028F8D00021174801F0ECF9022C0AD146
:102B400000BF40F20251134801F088FA0028F8D083
:102B5000104801F0AFFA40F206510E4801F07EFA3B
:102B600030B10C4801F05AFA28706D1C601EC4B2D6
:102B7000002CD5D100BF0748006800F40070002881
:102B8000F9D10121034801F0C5F90121014801F003
:102B9000CDF970BD0054004070B504460D4600BF2D
:102BA00040F20161264801F059FA0028F8D1244882
:102BB00001F07BFA00BF4FF4A061214801F04EFA0A
:102BC0000028F8D06FF00102D0211D4801F055FA1D
:102BD00000BF40F201511A4801F040FA0028F8D035
:102BE00040F20151164801F025FA00BF40F20751AA
:102BF000134801F033FA0128F8D12146104801F0BA
:102C000011FA00BF40F202510D4801F027FA0028E6
:102C1000F8D029460A4801F005FA00BF40F20251F7
:102C2000074801F01BFA0028F8D0054801F042FAE5
:102C300000BF0348006800F400700028F9D170BD9F
:102C40000054004010B500F013F804211A20FFF7DB
:102C5000A3FF04211C20FFF79FFF1C213720FFF753
:102C60009BFF40213820FFF797FF10BD00BFFEE714
:102C700010B51E211F20FFF78FFF14212020FFF722
:102C80008BFF10BD7047000010B5002807DA0A0757
:102C9000140E054A00F00F031B1FD45403E00A076B
:102CA000130E024A135410BD18ED00E000E400E0DA
:102CB0007047000010B5002080F3108800BF01F0BD
:102CC00007FE4FF48031C80201F0E0FBFFF74EFD34
:102CD000FFF7CCFDFFF762FD00F00EFD00F052FDA6
:102CE000134801F0E5FE002001F0B0FA0020114980
:102CF00008804FF4E131104800F0DEFE4FF4E1317E
:102D00000E4800F0D9FE4FF48031002001F034FB72
:102D10000B490860FFF76EFE00BFFFF75BFE00285F
:102D2000FBD0FFF781F900F039F800F097F810BDFB
:102D30000004004048000020001001400014014041
:102D40004400002010B5002400220121124801F0A7
:102D500094F80A2000F020FF902001F00FFD0020E1
:102D600001F00CFD002001F009FD002001F006FD3E
:102D7000FF2001F003FD44EA0024FF2001F0FEFCE7
:102D8000044301221146044801F077F80A2000F0BC
:102D900003FF204610BD0000000C024000B587B0C4
:102DA00040F6024001F00EFC40F6034001F00AFC40
:102DB00041F20F0001F006FC4FF480620621234827
:102DC00001F028F84FF400620621204801F022F8B3
:102DD0004FF4805206211D4801F01CF84FF4E053D7
:102DE00000220221194801F04DF84FF4E05302226D
:102DF0000021164801F06DF80123002219461448FD
:102E000001F040F8012302220021114801F061F88D
:102E1000104801F02BFC684601F0CEFC0020019028
:102E20004FF4827000900020029005904FF40070E3
:102E3000039030200690002004906946054801F078
:102E400073FC044801F006FC07B000BD0008024016
:102E5000000C0240003C00407047000010B5012209
:102E600002490348FFF7CEFB10BD00000C00002014
:102E700000C0000810B500F099FE10BD08B5294843
:102E8000006840F47000274908602748006840F057
:102E900001002549086024480830006840F080009F
:102EA0002149083108600020009002E00098401C91
:102EB00000904CF2503100988842F7D31A480830FD
:102EC000006840F090001849083108600020009028
:102ED00002E00098401C00904CF25031009888426B
:102EE000F7D3002010490831086000BF0E480830B1
:102EF000006800200028F9D10B4800680B49084001
:102F0000094908600A48091D0860081F006820F484
:102F10008020091F0860002003490C31086001F07F
:102F2000D3FC08BD88ED00E000380240FFFFF6FE4C
:102F30001030002410B59AB00024494800680028D9
:102F400059D148480078002815DD464800784649A0
:102F5000097888420FDB002042490870012042496D
:102F600008704248007800F1140400203F490870BE
:102F7000E0B21AB010BD3B480078401C39490870D7
:102F80003A48007820B101280FD0022829D118E052
:102F90004FF4FA6032490860052033490870344A1A
:102FA00034A137A0FEF7DEFF24E04FF4FA602C498D
:102FB000086005202C4908702D490020FFF70EF805
:102FC00018E003202849087041F28830244908603D
:102FD000274805232DA22EA100900020FFF73CF8E2
:102FE00008E000201F4908702049087001201E4990
:102FF0000870BEE731E001A800F006FD68B31C4987
:1030000001A8FDF73EFB50B10020154908601549A5
:10301000087016480078401C144908701DE020A173
:1030200001A8FDF72EFB50B100200D4908600D49A5
:1030300008700E480078401C0C4908700DE01CA177
:1030400001A8FDF71EFB40B10020054908600549B5
:1030500008700649087020208BE7002089E70000EF
:103060001C000020280000202A0000202900002049
:10307000E4000020636169313130313233000000F7
:103080005869616F6D695F3430310000383000007D
:103090003130312E33372E38392E3135370000009C
:1030A000414C524541445920434F4E4E45435400F4
:1030B0004552524F5200000010B53648007820B1FA
:1030C000012811D002285BD131E00020324908707C
:1030D00030480078401C2F49087040F2DC502F49DE
:1030E000086000F01DFC52E02C480068F0B92A4846
:1030F0000078022808DB002027490870254800785E
:10310000401C2449087011E023480178491C24A080
:10311000FDF714F940F2DC50204908601E480078A1
:10312000401C1D49087023A001F02CFD2FE01B4816
:103130000068B8B918480078052806DB0020164951
:103140000870144908700A2010BD40F2DC50134981
:10315000086011480078401C0F49087016A001F063
:1031600011FD0CE016A0FEF725FF40B100200B4931
:10317000086009490870074908700120E4E706E083
:10318000002005490870034908700A20DCE700BFE9
:103190000020D9E723000020220000201C0000208E
:1031A0002B2B2B0D0A4154C3FCC1EEB2E2CAD4252D
:1031B000640D0A002B2B2B0041540D0A0000000067
:1031C0004F4B000010B500245B480088062877D2DA
:1031D000DFE800F0030F293F4F8400F0D5F838B145
:1031E00055480088401C5449088000205349087005
:1031F0009FE0FFF761FF0446012C02D0022C0FD1A3
:1032000008E04D480088401C4B49088000204B498D
:10321000087006E000204949087000F095F800E0C9
:1032200000BF00BF85E000F02FF9044614B1012C67
:103230000AD100E00BE00020404908703E480088B9
:10324000401C3D49088002E000F07EF800BF00BF4E
:103250006FE000F08BF9044604B908E0002037491C
:10326000087035480088401C3349088000BF00BF03
:103270005FE0FFF75FFE044614B1012C16D100E0B9
:103280002AE000202D4908702D48007820F0010028
:10329000401C2B4908700846007820F00200087096
:1032A000254800880A302449088015E02348007822
:1032B000032806DB00202149087000F045F80AE0E9
:1032C00015E01E480078401C1C4908701A48008808
:1032D000401C1949088000BF00BF2AE0FEF764FFC8
:1032E00020B115480088401E1349088021E0144889
:1032F0000078C0F3800098B11248008800280FDCE5
:103300000F48007820F004000D4908700846007846
:1033100020F0010008700846007820F002000870D4
:103320000748007800F0010010B905200249088024
:1033300000BF00BF10BD0000120000202B000020C5
:10334000200000201400002010B500200A49088049
:103350004FF40051094800F08CFD00200849086036
:103360000848007820F001000649087008460078F7
:1033700020F00200087010BD12000020000802407A
:103380001C0000202000002010B51748006848BB32
:103390001648007810B101281ED10EE04FF40051FC
:1033A000134800F066FD4FF4FA700F4908600F48AB
:1033B0000078401C0D49087013E04FF400510C4890
:1033C00000F059FD43F69820074908600748007847
:1033D000401C0649087004E00020044908700120E0
:1033E00010BD00BF0020FBE71C00002021000020D2
:1033F0000008024070B504460D460F48007800F002
:10340000010000B970BD29460CA001F0BBFB0A20E9
:1034100000F0C2FB2946204600F01CFB064800785D
:1034200020F00400001D0449087047F2305007499D
:10343000088000BFE6E700002000002041542B4335
:10344000495053454E443D25640D0A0014000020A8
:103450000A48006820B109480068401E0749086012
:1034600007480078C0F3800038B10648008820B1D2
:1034700004480088401E0349088070471C00002053
:10348000200000201400002010B5002432480068FD
:10349000002851D131480078002814DD2F480078E9
:1034A0002F49097888420EDB00202C490870012042
:1034B0002B4908702B48007800F11404002029499A
:1034C0000870E0B210BD25480078401C2349087000
:1034D0002448007820B101280DD0022822D115E01F
:1034E0002148FEF713FD4FF4FA601B4908600320E2
:1034F0001B4908701FE01C48FEF718FD4FF4FA60E6
:103500001549086005201649087014E04FF4FA6068
:103510001149086005201249087013490020FEF780
:10352000F9FD08E000200D4908700E4908700120DF
:103530000B490870C6E70DE00B48FEF73BFD48B1AC
:103540000020054908600549087006480078401CBD
:10355000044908700020B5E71C0000202500002069
:103560002700002026000020E400002001207047F2
:103570000748007800F0400038B10548007800F0B6
:10358000BF0003490870012070470020FCE70000DD
:103590002C0000200748007800F0100038B10548E2
:1035A000007800F0EF000349087001207047002008
:1035B000FCE700002C0000200748007800F0200005
:1035C00038B10548007800F0DF0003490870012099
:1035D00070470020FCE700002C000020074800781E
:1035E00000F0080038B10548007800F0F700034902
:1035F0000870012070470020FCE700002C0000202C
:1036000010B50121880701F0B1FA00286FD001211F
:10361000880701F057FAFFF71BFF00F033FA344830
:103620000068401C324908600846007800F001003C
:1036300028B93048007840F001002E4908702C4825
:1036400000680521B0FBF1F201FB120028B92948FE
:10365000007840F0020027490870254800680A21D8
:10366000B0FBF1F201FB120028B92248007840F0CB
:103670000400204908701E4800681421B0FBF1F2D4
:1036800001FB120028B91B48007840F008001949D6
:103690000870174800686421B0FBF1F201FB1200CA
:1036A00028B91448007840F01000124908701048FA
:1036B0000068C821B0FBF1F201FB120028B90D48E7
:1036C000007840F020000B490870094800684FF46A
:1036D0007A71B0FBF1F201FB120040B905480078A5
:1036E00040F040000349087000200149086010BD07
:1036F000300000202C0000201FB54FF4805000F057
:1037000061FF4FF0807000F093FF4FF0804001F0B8
:103710000DF9A720ADF800000020ADF80200ADF8CB
:10372000040040F2E73002900020ADF806008DF86A
:103730000C0069464FF0804001F0C8F94FF4C060BA
:1037400000F09AFE012200211C2000F033FE01212E
:10375000880701F007FA4FF0804001F0E1F84FF0E0
:10376000804001F0AAF91FBD10B50121044801F005
:10377000FDF918B10121024801F0A4F910BD0000C3
:10378000000400401FB541F2010000F01BFF4FF0A4
:10379000807000F04DFF164801F0C8F844F23C106C
:1037A000ADF800000020ADF80200ADF8040040F2D2
:1037B000E73002900020ADF806008DF80C00694655
:1037C0000B4801F083F94FF4C06000F055FE012270
:1037D00000211D2000F0EEFD0121054801F0C2F995
:1037E000034801F09DF8024801F067F91FBD000091
:1037F000000400400A0E02700A0C42700A0A82702D
:10380000C170704710B54FF4406000F0DBFE41F22C
:10381000041000F0D7FE4FF400720721124800F0A8
:10382000F9FA4FF40073002202210F4800F02AFB3E
:103830004FF40073022200210B4800F04AFB4FF4C2
:1038400080620721084800F0E5FA4FF48063002207
:103850000221054800F016FB4FF48063022200218C
:10386000014800F036FB10BD0000024010B50521F4
:103870000B4801F096FA88B109484068C4B209487B
:103880000068B0F5487F09D207490648006808304B
:103890000C5404480068401C0249086010BD000038
:1038A0000010014040000020F800002010B5002466
:1038B0000F480068C8B10F4800880D490968884260
:1038C0000FD10B48008884B200200A4908800849BB
:1038D000086009A0FCF732FD21460CA0FCF72EFD84
:1038E00003E00348008803490880204610BD00001B
:1038F000400000204E000020D3C3BBA7B3CCD0F2C1
:10390000BDD3CAD5CDEAB3C9210D0A00B4FAC2EBC2
:10391000B3A4B6C83A256442797465730D0A0000F1
:103920000448006800210160002003490880034921
:103930000870704744000020480000204C00002020
:1039400010B540F6024000F03DFE41F2051000F0D7
:1039500039FE40220821104800F05CFA4023012281
:1039600002210D4800F08EFA4023022200210A486D
:1039700000F0AFFA80220821074800F04BFA8023BC
:1039800001220221044800F07DFA80230222002156
:10399000014800F09EFA10BD0008024010B513491E
:1039A000134801F01AFA00B31148001D0068C4B2B0
:1039B00010480078C8B910480088B0F5803F11DA87
:1039C0000D48008810B901200C49087000200C49EE
:1039D000087009490888411C074A1180094909688B
:1039E0000C5402E000200349087010BD05030500D7
:1039F000001401404C000020480000204B00002033
:103A00004A0000204400002070B505460E48048896
:103A10000E480078A8B100200C490870002C0CDD7D
:103A20000B4909680855621C094801682846FCF7DB
:103A30007DFEFFF775FF204670BDFFF771FF002088
:103A4000FAE70020F8E70000480000204C000020C2
:103A50004400002070B504460D460BE000BF06216F
:103A6000074801F09EF90028F9D014F8010B044929
:103A7000091D0860281EA5F101018DB2EED170BDAF
:103A8000001401400948007878B109480078401CCA
:103A9000C0B207490870322807DD012005490870C7
:103AA0000020024908700249087070474B0000204E
:103AB0004A0000204C000020F8B504460D460026C0
:103AC0002248204418B1B0F5806F12D108E0FFF70A
:103AD00099FE01208DF800008DF80100252609E0EF
:103AE000FFF72EFF00208DF800008DF8010047261B
:103AF00000E000BF00BF204601F0E0F82946204664
:103B000001F068F80021204601F0A3F900212046C9
:103B100001F08FF90021204601F07BF908212046B1
:103B200001F08FF90421204601F07BF9204601F0D5
:103B300033F99DF801209DF80010304600F03AFC62
:103B400040F20531204601F03BF9F8BD00F0FEBF20
:103B500000BFFEE703B401984100009850EAC1207D
:103B600018BF04204A0D18BF40F0010040F2FF7258
:103B7000B2EB515F08BF40F00200012808BF0520EA
:103B800002B0704730380A2801D201207047002067
:103B9000704700BF704700000349086000BF02493A
:103BA00009680029FBD17047040000200448006820
:103BB00020B103480068401E0149086070470000BA
:103BC0000400002010B52D4B1B6883432B4C236051
:103BD000231D1B688343241D2360231D1B6883430F
:103BE000241D2360231D1B688343241D236011B102
:103BF00001290ED105E0214B1B6803431F4C2360B4
:103C000008E01E4B1B1D1B6803431C4C241D236036
:103C100000E000BF00BF32B1012A11D0022A1CD03F
:103C2000032A27D127E0154B08331B680343134CA5
:103C300008342360231D1B688343241D23601BE07D
:103C40000E4B08331B6883430C4C08342360231D40
:103C50001B680343241D23600EE0084B08331B68D8
:103C60000343064C08342360231D1B680343241DB3
:103C7000236001E000BF00BF00BF10BD003C014059
:103C80000149086070470000143C01400348006887
:103C900040F000400149086070470000103C0240BD
:103CA00000B50346012200BF00F03CF802465B1E4F
:103CB000012A01D1002BF7D1012A00D10822104698
:103CC00000BD000030B5044600254FF47020FFF71A
:103CD000E7FF05460DBB1248006820F0F8001049C8
:103CE00008600846006844F0020108430C49086077
:103CF0000846006840F4803008604FF47020FFF7F9
:103D0000CFFF05460648006820F00200044908601D
:103D10000846006820F0F8000860284630BD000022
:103D2000103C024000201349096801F48031B1F5CC
:103D3000803F01D101201CE00E49096801F010010B
:103D400009B1052015E00B49096801F4807109B13A
:103D500002200EE00749096801F0EF0109B10720D0
:103D600007E00449096801F0020109B1062000E0FA
:103D7000002070470C3C02400548006800F00040FD
:103D800028B1044802490C390860034808607047AC
:103D9000103C024023016745AB89EFCD70B5044666
:103DA0000D4600264FF47020FFF77AFF0646DEB975
:103DB0000E48006820F440700C490860084600680E
:103DC00040F4007008600846006840F00100086098
:103DD00025604FF47020FFF763FF06460348006834
:103DE00020F0010001490860304670BD103C0240DF
:103DF00070B504460D4600BF0621054800F0D1FF0E
:103E00000028F9D0C4F3080001494860204670BD7D
:103E100000100140F0B503461C6A5D6A00200DE009
:103E20000126864016403EB187000F26BE40B443AF
:103E3000860001FA06F63443461CB0B20828EFD3D8
:103E4000082011E00126864016405EB1A0F1080668
:103E5000B7000F26BE40B543A0F10806B60001FA30
:103E600006F63543461CB0B21028EBD31C625D62E7
:103E7000F0BD81627047816170470AB1816100E0E5
:103E800081627047F0B504460D4616462168E26827
:103E9000002019E0012787401F409FB14FEA400CE6
:103EA000032707FA0CF7B943470005FA07F7394328
:103EB0004FEA400C032707FA0CF7BA43470006FA0B
:103EC00007F73A43471CB8B21028E3D32160E260F9
:103ED000F0BDF0B50C461546012C03D146681E43D3
:103EE000466002E046689E434660826800210DE01D
:103EF00001268E401E403EB14F000326BE40B24315
:103F00004E0005FA06F632434E1CB1B21029EFD32B
:103F10008260F0BD012904D1026842F4806202602F
:103F200003E0026822F480620260704721B90268EF
:103F300042F40062026003E0026822F40062026060
:103F4000704700002DE9F05F04460E4693460220BC
:103F500000F0A6FA07462E48B7FBF0F8B8F1320F8A
:103F600001D34FF03208D4F804A02AF03F0A4AEAFD
:103F7000080AC4F804A02748864218D82448B7FB8A
:103F8000F0F000F10109B9F1320F02D332202062C2
:103F900001E0C4F820907000B7FBF0F5042D00D2CA
:103FA0000425E069C5F30B010843E0612EE01A48DF
:103FB00086422BD84FF4967008FB00F04FF47A71CC
:103FC000B0FBF1F0401C2062BBF1000F08D106EB02
:103FD0004600B7FBF0F5E06920F48040E06109E0BD
:103FE00006EBC60000EB0610B7FBF0F5E06940F405
:103FF0008040E061C5F30B0008B945F00105E069B8
:1040000040F40040E061E0692843E061BDE8F09FD2
:1040100040420F00A0860100801A06000146086990
:10402000C0B27047CAB202617047016841F0010135
:104030000160704710B540F20152914202D14269CD
:1040400082690AE000EB9112126801F01F0401235B
:10405000A3409A4300EB91131A6010BD10B50246BD
:1040600002EB9110006801F01F040123A3401840E7
:1040700008B1012010BD0020FCE712F1020F02D1AF
:1040800021F0010101E041F001010161704730B50B
:104090000C460021016821F0020121430160C3F3B5
:1040A000090342EA0305856030BD016841F480716F
:1040B00001607047016841F40071016070470000C1
:1040C000ADF6280D0024FEF7F5FDFEF73BFE42207D
:1040D000FEF7BEF96420FFF75FFD7BE0FFF772F8A3
:1040E000FFF77CFA28B3FFF7E1FB04460CB33A4D27
:1040F000294603A8FFF77EFB214602A8FFF77AFBBB
:10410000FEF7BCF83548039901600299416004F15B
:10411000080082B200213148FEF7BAF908220021D6
:104120000DF61C00FEF7CAF800208DF824080024C4
:1041300000BFFFF72FFA68B12948007880F001002E
:10414000274908700846007810B1FEF7A3FB01E08C
:10415000FEF7A8FBFFF730FAFFF70AFA002839D07C
:10416000002500261F48FEF7A5FB1F48FEF7EAFBC7
:104170001D488368426801681CA0FCF7DFF82946E7
:1041800020A0FCF7DBF831460DF61C00FFF732FBF0
:10419000314621A0FCF7D2F82448007800F0010055
:1041A000B8B1FEF773FA07A8FFF72EFC88B14FF4F9
:1041B000006704A805AB06AA3946009007A8FEF7D9
:1041C00073FA28B19DF8181019A0049AFCF7B6F8F4
:1041D00000BF00BF82E700007A563412F8000020CA
:1041E0000A000020C8000020BC000020783A256C9E
:1041F000642C20793A256C642C207A3A256C640A68
:104200000000000063757256657273696F6E3A3014
:104210007825780A00000000666C61736856657244
:1042200073696F6E3A25780A0000000020000020B4
:10423000726573705F636F64653A25642C636F6E9B
:10424000745F6C656E3A25640A00000010B5044680
:104250000C4951F824104A000B4951F82400002160
:1042600000F09EF8094951F8242007490C3951F80B
:104270002400002100F094F8012103480C3001557E
:1042800010BD0000D04E0108AC000020E84E01082F
:104290002DE9F04704460F460025A9462348005D56
:1042A00020B9224820380168204688471FB94FF0BE
:1042B000FF30BDE8F0871E4850F82400B7FBF0F649
:1042C0001B4850F82400B7FBF0F100FB117000B15F
:1042D000761C184850F82400451E22E013480C387C
:1042E00050F8240030F8150010B909F1010901E077
:1042F0004FF00009B14513D14FF0000809E00B4819
:104300000C3850F8240005EB080220F8126008F180
:104310000108B045F3D3064850F824006843C8E7C5
:104320006D1E002DDADA4FF0FF30C2E7B800002032
:10433000DC4E0108D04E010810B5014600230022D2
:1043400007E00B4850F8210030F8120000B15B1C68
:10435000521C084850F821009042F2D8642058437B
:10436000044C54F82140B0FBF4F0C0B210BD000082
:10437000AC000020D04E010870B504460E46314610
:104380002046FFF785FF0546681C08B9002070BD70
:10439000024850F824002844F9E70000A00000205B
:1043A00030B5034601E003F8011B141EA2F101021F
:1043B000F9D130BD2DE9F04103460D4616460024E3
:1043C0000027A0462A48006800F4E060B0F5E06FDE
:1043D00003D100BF4FF0040830E02548006800F426
:1043E000E060B0F5C06F03D101274FF0030825E06E
:1043F0001F48006800F4E060B0F5A06F02D102270A
:10440000B8461BE01A48006800F4E060B0F5806F21
:1044100003D103274FF0010810E01548006800F4AD
:10442000E060B0F5407F03D104274FF0000805E0BD
:104430004FF4A06000F020F80227B846C7F104004E
:1044400005FA00F4C8F104010F20C84030400443CD
:1044500024010848C45403F01F0101208840591169
:10446000890001F1E021C1F80001BDE8F081000000
:104470000CED00E000E400E002490143024A116053
:10448000704700000000FA050CED00E0024A0A4007
:104490000243024B1A60704780FFFF1F08ED00E0E7
:1044A0002DE9F04F8CB0064600200A903EA090E81F
:1044B000004CC068CDE905BECDF810A007900FF202
:1044C000EC0ADAE9000ACDE9020A0FF2E00ADAE9B9
:1044D000000ACDE9000A38480068C0F381000B905B
:1044E0000B9820B1012804D0022828D103E03349D9
:1044F00027E0334925E03048001F006800F03F07FF
:104500002D48001F0068C0F3881C2B48001F00685E
:10451000C0F30140401C4FEA40092748001F0068D3
:1045200000F48008B8F5800F01D1254B00E0234B43
:10453000B3FBF7F000FB0CF0B0FBF9F101E01F4911
:1045400000BF00BF1C480068C0F3031404A8055D49
:1045500021FA05F218480068C0F3822402A8055D1C
:1045600022FA05F0099014480068C0F342341DF89F
:10457000045022FA05F0089036B1012E06D0022E22
:1045800006D0032E0AD106E00A9108E00A9206E05E
:1045900009980A9003E008980A9000E000BF00BF65
:1045A0000A980CB0BDE8F08F000000000000000089
:1045B0000102030406070809083802400024F40039
:1045C00000127A00074A02EB9011D1F8001800F0AF
:1045D0001F0301229A401143024B03EB9012C2F8D1
:1045E0000018704700300240074A02EB9011D1F8E2
:1045F000001800F01F0301229A409143024B03EB85
:104600009012C2F80018704700300240074A02EBCF
:104610009011D1F8001800F01F0301229A401143B5
:10462000024B03EB9012C2F80018704700300240B2
:104630006FF08071884205D1054909680140044A3C
:10464000116004E0024909680143014A11607047A2
:104650008C380240016841F040010160704701461A
:10466000C86880B27047C1607047000010B504464A
:104670002749601A8C422CD009DC26482044B0B16E
:10468000B0F5806F1CD0B0F5784F3DD106E0B0F5A5
:10469000E05F27D0B0F5005F36D12CE040F60C107B
:1046A000FFF7B4FF40F60C10FFF79EFF2DE040F639
:1046B0000E00FFF7ABFF40F60E00FFF795FF24E07A
:1046C00040F60F00FFF7A2FF40F60F00FFF78CFF48
:1046D0001BE040F60D10FFF799FF40F60D10FFF7B5
:1046E00083FF12E040F61410FFF790FF40F614101D
:1046F000FFF77AFF09E040F61510FFF787FF40F655
:104700001510FFF771FF00E000BF00BF10BD0000F3
:104710000034014000C8FFBF02469068084008B15D
:10472000012070470020FCE702460020106800F4DA
:1047300041500B6818434B6818438B681843CB688B
:1047400018430B6918434B6918438B691843106071
:10475000D36923F40063D361704770B504460E46F5
:10476000254604E0FF2000F009F805F8010B301E93
:10477000A6F101018EB2F5D170BD000070B50446FE
:10478000264600BF02210B48FFF7C6FF0028F9D0DC
:1047900031460848FFF767FF00BF01210548FFF7D2
:1047A000BBFF0028F9D00348FFF759FFC5B22846E0
:1047B00070BD0000003C004000210160416081604C
:1047C000C1604161816101617047000000203B4987
:1047D000096841F48031394A116000BF37490968DE
:1047E00001F4003129B90146401C4FF6FF72914295
:1047F000F4D13249096801F4003109B900BFFEE77C
:104800002E494031096841F080512C4A40321160F4
:104810002B49096841F44041294A11602749083170
:104820000968264A083211601146096841F40041BE
:1048300011601146096841F4A05111602149121F0D
:104840001160111F096841F08071121F116000BFD3
:104850001A49096801F000710029F9D0184909685E
:1048600041F48031164A116000BF1549496801F4CE
:1048700080310029F9D01249096841F40031104A09
:10488000116000BF0E49496801F400310029F9D0D8
:104890000A490831096821F00301084A0832116009
:1048A0001146096841F00201116000BF0349083157
:1048B000096801F008010029F8D07047003802406B
:1048C000007000400854400710B5FFF77FFF10BD8F
:1048D00010B5124800684FF47A71B0FBF1F4601E15
:1048E000B0F1807F01D301200FE0601E4FF0E02186
:1048F00048610F214FF0FF30FEF7C6F900204FF05E
:10490000E021886107200861002008B100BFFEE7B0
:104910000021481EFEF7B8F910BD0000000000207D
:10492000016841F0800101607047000010B5044645
:104930005C49601A8C426FD019DC5B49A4EB010022
:104940008C424ED009DCB4F1804F2ED05748204421
:10495000A0B3B0F5806F72D13AE0B0F5806F49D066
:10496000B0F5006F4FD0B0F5406FF4D17BE0B0F5FB
:10497000923F5BD009DCB0F5806F73D0B0F5644F27
:104980000AD0B0F5684F5AD147E0B0F5943F57D000
:10499000B0F5963F53D15CE04FF41060FFF736FE60
:1049A0004FF41060FFF720FE79E04FF40060FFF74E
:1049B0002DFE4FF40060FFF717FE70E0FFE740F6B2
:1049C0000100FFF723FE40F60100FFF70DFE66E051
:1049D00040F60200FFF71AFE40F60200FFF704FE61
:1049E0005DE040F60300FFF711FE40F60300FFF71D
:1049F000FBFD54E040F60400FFF708FE40F604001B
:104A0000FFF7F2FD4BE040F60500FFF7FFFD40F633
:104A10000500FFF7E9FD42E02EE040F60110FFF748
:104A2000F5FD40F60110FFF7DFFD38E04FF41160AF
:104A3000FFF7ECFD4FF41160FFF7D6FD2FE02DE0FE
:104A400040F61110FFF7E2FD40F61110FFF7CCFD24
:104A500025E040F61210FFF7D9FD40F61210FFF7DF
:104A6000C3FD1CE011E040F60600FFF7CFFD40F665
:104A70000600FFF7B9FD12E040F60700FFF7C6FD9C
:104A800040F60700FFF7B0FD09E040F60800FFF729
:104A9000BDFD40F60800FFF7A7FD00E000BF00BF26
:104AA00010BD0000001C0040000C004000FCFFBFD7
:104AB000016821F0010101607047016841F00101C6
:104AC00001607047CA430261704700000A88826231
:104AD0001D4A90420ED0B0F1804F0BD01B4A90423D
:104AE00008D01B4A904205D01A4A904202D01A4A76
:104AF00090420BD1026822F07002026002684B887B
:104B00001A43026002688B881A4302608A68C26294
:104B1000124A90420AD0124A904207D0026822F408
:104B2000407202600268CB881A430260064A9042D3
:104B300002D0094A904201D10A7B0263426942F0E5
:104B40000102426170470000000001400004004083
:104B500000080040000C004000040140001000402C
:104B600000140040C2680A43C26070470246D06821
:104B700000EA01031069084010B10BB10120704731
:104B80000020FCE70FB438B505A800900F48009A44
:104B90000499FBF7C1FB002000900C48FBF7A7FD30
:104BA00085B200240DE000BF0621094800F0F9F8A5
:104BB0000028F9D00548005D0549091D0860601C02
:104BC00084B2AC42EFDB38BC5DF814FB1804002063
:104BD000001401402DE9F04704460D460027B84671
:104BE000B94600263349601A8C4235D00CDC324875
:104BF0002044E8B1B0F5806F1FD0B0F5006F21D030
:104C0000B0F5406F32D122E0B0F5806F29D0B0F519
:104C1000184F03D0B0F51C4F28D104E00320FFF754
:104C20003FFC074623E00320FFF73AFC07461EE05F
:104C30000220FFF735FC074619E00220FFF730FCA1
:104C4000074614E00220FFF72BFC07460FE0022086
:104C5000FFF726FC07460AE00220FFF721FC074683
:104C600005E00220FFF71CFC074600E000BF00BF84
:104C7000E06800F4004070B1780000EB5500B0FB34
:104C8000F5F64FF6F07006EA0008C6F3420948EA66
:104C90000900A0600CE007EB5500B0FBF5F64FF6FD
:104CA000F07006EA000806F00F0948EA0900A06063
:104CB000BDE8F0870078004000BCFFBF10B5044697
:104CC0003349601A8C424DD00CDC32482044E0B1AC
:104CD000B0F5806F22D0B0F5006F31D0B0F5406FE5
:104CE00052D136E0B0F5806F45D0B0F5184F03D003
:104CF000B0F51C4F48D11AE040F60410FFF786FCCF
:104D000040F60410FFF770FC3FE040F61100FFF79B
:104D10007DFC40F61100FFF767FC36E040F612001C
:104D2000FFF774FC40F61200FFF75EFC2DE040F642
:104D30000510FFF76BFC40F60510FFF755FC24E06B
:104D400040F61300FFF762FC40F61300FFF74CFC3F
:104D50001BE040F61400FFF759FC40F61400FFF783
:104D600043FC12E040F61E00FFF750FC40F61E0028
:104D7000FFF73AFC09E040F61F00FFF747FC40F65A
:104D80001F00FFF731FC00E000BF00BF10BD0000B6
:104D90000078004000BCFFBFC16841F40051C16011
:104DA000704710B5024602EB9110006801F01F0435
:104DB0000123A340184008B1012010BD0020FCE7EA
:104DC00010B500EB9112126801F01F040123A340FB
:104DD0001A4300EB91131A6010BD70B50246002310
:104DE0000024C1F38910105801F01F060125B540B9
:104DF00000EA050302EB91500068C1F30446012567
:104E0000B54000EA050414B10BB1012070BD0020CB
:104E1000FCE7C26822F4C062C260C2680A43C26092
:104E200070470A460021C16821F004011143C160A6
:104E30007047026922F44052026102690A4302612A
:104E400070470A460021C16821F008011143C16082
:104E50007047C26822F48052C260C2680A43C260CE
:104E60007047000010B500290AD00878002807D044
:104E700005487844FCF74CFC002801D0002010BD08
:104E80000248784410BD0000A20100009A01000011
:104E900010B500290AD00878002807D005487844C2
:104EA000FCF736FC002801D0002010BD02487844F1
:104EB00010BD0000860200007E0200004FF040702E
:104EC000E1EE100A7047FBF7F7BFFCF72BB90000C3
:104ED000800C000000780000800700002000000027
:104EE00020000000200000000090010000000F00E2
:104EF00000F0000030313233343536373839414232
:104F0000434445464030580030313233343536372B
:104F100038396162636465664030780004000008D7
:104F2000000000000000000200010000100000006E
:104F300000000000000000003031323334353637D5
:104F400038396162636465667870003031323334B9
:104F50003536373839414243444546585000000001
:104F600002400000000000A000000000054000001A
:104F7000000000C8000000000C4000000000409C41
:104F800000000000194000000020BCBE000000002E
:104F900034400000BFC91B8E00000004B540000073
:104FA000504BCFD06607E2CF010000006C410000FB
:104FB0003E8251AADFEEA73401000000D942000072
:104FC000DCB5A0E23A301F97FFFFFFFFB4450000B9
:104FD000FD25A0C8E9A3C14FFFFFFFFFFF3F000071
:104FE0000000008000000000FF3F00000000008083
:104FF000000000004051010800000020BC0000003B
:10500000C4010108FC510108BC00002044C9010092
:10501000E00101081001000043000000F8FFFFFF5D
:1050200000404040404040404040414141414140BB
:105030004040404040404040404040404040404070
:1050400040050202020202020202020202020202FF
:105050000220202020202020202020020202020204
:10506000020290909090909010101010101010105C
:105070001010101010101010101010100202020268
:1050800002028888888888880808080808080808AC
:1050900008080808080808080808080802020202A8
:1050A00040000000000000000000000000000000C0
:1050B00000000000000000000000000000000000F0
:1050C00000000000000000000000000000000000E0
:1050D00000000000000000000000000000000000D0
:1050E00000000000000000000000000000000000C0
:1050F00000000000000000000000000000000000B0
:10510000000000000000000000000000000000009F
:10511000000000000000000000000000000000008F
:10512000000000001C00000043000000F8FFFFFF2B
:105130000C0000000E0000000F0000002E00000018
:10514000007A030A000000000000000000000000D8
:10515000000000000000000000000000000000004F
:10516000000000000000000100000100000000003D
:10517000000000000100000000000000000000002E
:10518000000000000000000000000000000000001F
:10519000474554202F696F622F646F776E6C6F6183
:1051A000642F6170702E62696E20485454502F3104
:1051B0002E310D0A486F73743A3130312E33372E49
:1051C00038392E3135370D0A0D0A00000000000075
:1051D00000000000000000004D42010839430108B2
:1051E00000100020000000680000001000B1012045
:0C51F00000000F6800F00010000000003C
:040000050801018964
:00000001FF
