:020000040800F2
:100000000094002031020008590700086D0600081E
:1000100055070008C9040008750A00080000000020
:10002000000000000000000000000000450800087B
:10003000CD040008000000008507000847080008FC
:100040004B0200084B0200084B0200084B0200085C
:100050004B0200084B0200084B0200084B0200084C
:100060004B0200084B0200084B0200084B0200083C
:100070004B0200084B0200084B0200084B0200082C
:100080004B0200084B0200084B0200084B0200081C
:100090004B0200084B0200084B0200084B0200080C
:1000A0004B0200084B0200084B0200084B020008FC
:1000B0004B0200084B0200084B0200084B020008EC
:1000C0004B0200084B0200084B0200084B020008DC
:1000D0004B020008710900084B0200084B0200089F
:1000E0004B0200084B0200084B0200084B020008BC
:1000F0004B0200084B0200084B0200084B020008AC
:100100004B0200084B0200084B0200084B0200089B
:100110004B0200084B0200084B0200084B0200088B
:100120004B0200084B0200084B0200084B0200087B
:100130004B0200084B0200084B0200084B0200086B
:100140004B0200084B0200084B0200084B0200085B
:100150004B0200084B0200084B0200084B0200084B
:100160004B0200084B0200084B0200084B0200083B
:100170004B0200084B0200084B0200080000000080
:100180004B0200084B02000800F002F800F041F8B2
:100190000AA090E8000C82448344AAF10107DA45E2
:1001A00001D100F036F8AFF2090EBAE80F0013F0F3
:1001B000010F18BFFB1A43F0010318475814000041
:1001C00078140000103A24BF78C878C1FAD85207D2
:1001D00024BF30C830C144BF04680C6070470000C1
:1001E0000023002400250026103A28BF78C1FBD840
:1001F000520728BF30C148BF0B607047782900F014
:100200007980002070471FB501F0EBF91FBD10B5D4
:1002100010BD00F027F91146FFF7F5FF00F088FD4B
:1002200000F045F903B4FFF7F2FF03BC00F024FC33
:100230000948804709480047FEE7FEE7FEE7FEE77A
:10024000FEE7FEE7FEE7FEE7FEE7FEE704480549B6
:10025000054A064B70470000510800088901000854
:100260004009002000940020400D00200090002054
:10027000704700000FB4044910B503AA029800F0BB
:10028000C3F810BC5DF814FB0C0000202DE9F04110
:100290000E460446002020622046E168884730B3BD
:1002A000252805D0D4E901219047206A401CF2E7B7
:1002B000E168204600278847050018D0A5F14100D5
:1002C000192802D820354FF40067324629462046C7
:1002D0002760FFF793FF40B1012804D0F61D26F0F8
:1002E00007060836D8E7361DD6E72846DAE7206A3B
:1002F000BDE8F08170B504460D4621461068AFF3A5
:1003000000802188090502D50F4A7A4402E00E4A8E
:100310007A440E32002104F1240305E000F00F06B8
:100320000009965D5E54491C0028F7D1207800230F
:10033000000704D5702D02D009B1022311322046E6
:10034000BDE8704000F006B8DE120000704770474C
:10035000704770472DE9F0470D469946924604468E
:1003600000F124080168880604D5E06921F0100135
:10037000216000E00120A84201DD471B00E00027CA
:10038000A1697A1902EB0900081AA0612078C00659
:1003900002D42046AFF30080002608E0D4E9012112
:1003A0001AF806009047206A401C761C20624E45D1
:1003B000F4DB2078C0060AD52046AFF3008006E0C3
:1003C000D4E9012130209047206A401C2062381E69
:1003D000A7F10107F4DC07E0D4E9012118F80500D2
:1003E0009047206A401C2062281EA5F10105F3DC1D
:1003F0002046AFF300802078000602D50220BDE839
:10040000F0870120FBE70000074B70B50D467B44E9
:1004100000F011F80446284600F020F810B14FF023
:10042000FF3070BD204670BDFB07000001694A1C0B
:1004300002610878704700B58FB0CDE90131002125
:10044000059105497944CDE9031011466846FFF747
:100450001DFF0FB000BD0000E5FFFFFF007B00F0B7
:1004600080007047754600F02BF8AE4605006946DF
:10047000534620F00700854618B020B5FFF7E6FE8A
:10048000BDE820404FF000064FF000074FF0000895
:100490004FF0000B21F00701AC46ACE8C009ACE816
:1004A000C009ACE8C009ACE8C0098D46704710B57A
:1004B0000446AFF300802046BDE81040FFF7B2BE0F
:1004C00000487047DC08002000BFFEE770470000CE
:1004D000F8B506460C461546032700200090200C70
:1004E0008DF80000200A8DF80100E0B28DF80200BE
:1004F00000220121104800F0CEFB0A2000F0BEFAD5
:10050000384600F071FE9DF8000000F06DFE9DF889
:10051000010000F069FE9DF8020000F065FE29462A
:10052000304600F050FE01221146034800F0B3FBB4
:100530000A2000F0A3FAF8BD000C024001461C4856
:10054000814201D2002070471A48814201D208201E
:10055000F9E71948814201D21020F4E71748814297
:1005600001D21820EFE71648814201D22020EAE7A5
:100570001448814201D22820E5E71348814201D284
:100580003020E0E71148814201D23820DBE71048F3
:10059000814201D24020D6E70E48814201D2482054
:1005A000D1E70D48814201D25020CCE75820CAE75C
:1005B000004000080080000800C00008000001089A
:1005C00000000208000004080000060800000808F7
:1005D00000000A0800000C0800000E080146086828
:1005E000704700002DE9F04704460E4617464FF0CD
:1005F00000080025A946B4F1006F02D304F00300FF
:1006000008B1BDE8F08700F0C5FA254604EB87097C
:100610001548854214D210E02846FFF7DFFF401C42
:1006200050B12846FFF78AFF824600F059FA80460B
:10063000B8F1000F01D002E02D1D4D45ECD300BFF5
:10064000B8F1000F0BD107E02046316800F0B4FA92
:1006500000B103E0241D361D4C45F5D300BF00F06A
:1006600023FA00BFCDE700000000FF1F00BFFEE738
:1006700010B50446206808490840B0F1005F09D170
:10068000606806490860206880F3088800BF084653
:100690000068804710BD00000000FE2F0800002009
:1006A0002DE9F05F07468846914600250026BB46A7
:1006B0004446AA461DE0E0780506A07845EA0045D4
:1006C000607845EA002520780543241D3046711CDA
:1006D0008EB20D4941F82050B6F5007F07D10026B3
:1006E0004FF400725846FFF77DFF0BF5006B0AF1DF
:1006F000040ACA45DFD326B1324603495846FFF7FC
:1007000071FFBDE8F09F00001400002010B540F616
:10071000014000F09FFC102300220121044800F05A
:10072000BFFA102302220021014800F0E0FA10BDB8
:100730000004024010B51021014800F0A8FA10BDD5
:100740000004024010B51021014800F0A2FA10BDCB
:100750000004024000BFFEE77047000010B500280B
:1007600007DA0A07140E054A00F00F031B1FD454C2
:1007700003E00A07130E024A135410BD18ED00E0FF
:1007800000E400E07047000000B587B040F602408A
:1007900000F060FC40F6034000F05CFC41F20F000A
:1007A00000F058FC4FF480620621234800F040FA24
:1007B0004FF400620621204800F03AFA4FF48052CC
:1007C00006211D4800F034FA4FF4E05300220221C4
:1007D000194800F065FA4FF4E05302220021164850
:1007E00000F085FA012300221946144800F058FA57
:1007F000012302220021114800F079FA104800F08C
:100800006BFC684600F00EFD002001904FF48270F2
:1008100000900020029005904FF40070039030206B
:100820000690002004906946054800F0B3FC044897
:1008300000F046FC07B000BD00080240000C02407A
:10084000003C0040704710B500F022F910BD0000D8
:1008500008B52948006840F4700027490860274817
:10086000006840F00100254908602448083000680D
:1008700040F080002149083108600020009002E02B
:100880000098401C00904CF2503100988842F7D3F9
:100890001A480830006840F0900018490831086094
:1008A0000020009002E00098401C00904CF2503173
:1008B00000988842F7D3002010490831086000BF33
:1008C0000E480830006800200028F9D10B48006865
:1008D0000B490840094908600A48091D0860081FBB
:1008E000006820F48020091F0860002003490C31B3
:1008F000086000F01FFD08BD88ED00E000380240F0
:10090000FFFFF6FE1030002410B54FF4406000F0F9
:10091000A1FB41F2041000F09DFB4FF4007207218F
:10092000124800F085F94FF40073002202210F48AD
:1009300000F0B6F94FF40073022200210B4800F0DA
:10094000D6F94FF480620721084800F071F94FF49E
:10095000806300220221054800F0A2F94FF4806371
:1009600002220021014800F0C2F910BD000002403F
:1009700010B505211C4800F0F0FD08B31A48406886
:10098000C4B21A48008800F40040C8B9174800886B
:1009900000F4804060B10A2C03D000201349088085
:1009A00020E01248008840F400401049088019E017
:1009B0000D2C06D10D48008840F480400B4908807A
:1009C00010E00A480088C0F30D0009490C5407489C
:1009D0000088401C0549088008460088C72801DDBA
:1009E0000020088010BD0000001001401000002011
:1009F00014080020F8B504460D4600261C48204483
:100A000040B9FFF781FF00208DF800008DF801004C
:100A1000252600E000BF00BF204600F02BFD294640
:100A2000204600F0B3FC0021204600F0D2FD00215A
:100A3000204600F0BEFD0021204600F0AAFD08215E
:100A4000204600F0BEFD0421204600F0AAFD20460D
:100A500000F07EFD9DF801209DF80010304600F06A
:100A6000FBF940F20531204600F086FDF8BD00009C
:100A700000F0FEBF00BFFEE700BF704703490860FB
:100A800000BF024909680029FBD17047040000201B
:100A90000448006820B103480068401E014908600E
:100AA00070470000040000200348006840F0004048
:100AB0000149086070470000103C024000B5034641
:100AC000012200BF00F03CF802465B1E012A01D162
:100AD000002BF7D1012A00D10822104600BD0000EA
:100AE00030B5044600254FF47020FFF7E7FF0546B8
:100AF0000DBB1248006820F0F80010490860084655
:100B0000006844F0020108430C4908600846006888
:100B100040F4803008604FF47020FFF7CFFF0546A7
:100B20000648006820F00200044908600846006892
:100B300020F0F8000860284630BD0000103C02405C
:100B400000201349096801F48031B1F5803F01D1DB
:100B500001201CE00E49096801F0100109B10520CF
:100B600015E00B49096801F4807109B102200EE01B
:100B70000749096801F0EF0109B1072007E00449BE
:100B8000096801F0020109B1062000E00020704769
:100B90000C3C02400548006800F0004028B10448C1
:100BA00002490C390860034808607047103C024055
:100BB00023016745AB89EFCD70B504460D4600268D
:100BC0004FF47020FFF77AFF0646DEB90E48006842
:100BD00020F440700C4908600846006840F400703A
:100BE00008600846006840F00100086025604FF486
:100BF0007020FFF763FF06460348006820F00100FD
:100C000001490860304670BD103C024070B5044692
:100C10000D4600BF0621054800F09FFC0028F9D0D2
:100C2000C4F3080001494860204670BD001001402F
:100C3000F0B503461C6A5D6A00200DE0012686407F
:100C400016403EB187000F26BE40B443860001FA2D
:100C500006F63443461CB0B20828EFD3082011E052
:100C60000126864016405EB1A0F10806B7000F26A7
:100C7000BE40B543A0F10806B60001FA06F63543BA
:100C8000461CB0B21028EBD31C625D62F0BD8162DD
:100C90007047816170470AB1816100E081627047ED
:100CA000F0B504460D4616462168E268002019E0BA
:100CB000012787401F409FB14FEA400C032707FAE6
:100CC0000CF7B943470005FA07F739434FEA400CE0
:100CD000032707FA0CF7BA43470006FA07F73A4327
:100CE000471CB8B21028E3D32160E260F0BDF0B534
:100CF0000C461546012C03D146681E43466002E0AF
:100D000046689E434660826800210DE001268E40C1
:100D10001E403EB14F000326BE40B2434E0005FACE
:100D200006F632434E1CB1B21029EFD38260F0BDFB
:100D30001CB50025002400F001FB4FF4E1313348DD
:100D4000FFF758FEFFF720FDFFF7E0FC30A0FFF7AC
:100D500091FA0422002101A8FFF7BAFB04221146F0
:100D60006846FFF7B5FB30A0DDE90021FFF782FA06
:100D70003048FFF733FC04460198A04201D8601CBC
:100D800028B922462CA00199FFF774FA01253BE00F
:100D900085B3009882B208212C48FFF799FB2B49B4
:100DA0002B48009AFFF77CFCFFF7CCFC4FF4FA705D
:100DB000FFF764FEFFF7BEFC4FF4FA70FFF75EFE2C
:100DC000FFF7C0FC4FF4FA70FFF758FEFFF7B2FCD4
:100DD0004FF4FA70FFF752FEFFF7B4FC4FF4FA70CD
:100DE000FFF74CFEFFF7A6FC012201A91148FFF70F
:100DF000F9FB00251748406800F07F40B0F1006F14
:100E000002D11448FFF734FCC2E700000010014093
:100E10004941502050726F6772616D206265676949
:100E20006E202E2E2E0A0000307825780A30782584
:100E3000780A000000C000086E65773A2025780A1D
:100E4000206F6C643A2025780A0000000010002012
:100E500000000208000001082DE9F04103460D469C
:100E6000164600240027A0462A48006800F4E060E7
:100E7000B0F5E06F03D100BF4FF0040830E0254823
:100E8000006800F4E060B0F5C06F03D101274FF0B7
:100E9000030825E01F48006800F4E060B0F5A06F8B
:100EA00002D10227B8461BE01A48006800F4E0604F
:100EB000B0F5806F03D103274FF0010810E015480B
:100EC000006800F4E060B0F5407F03D104274FF0E4
:100ED000000805E04FF4A06000F020F80227B846B3
:100EE000C7F1040005FA00F4C8F104010F20C8405E
:100EF0003040044324010848C45403F01F0101207A
:100F000088405911890001F1E021C1F80001BDE8D4
:100F1000F08100000CED00E000E400E00249014334
:100F2000024A1160704700000000FA050CED00E075
:100F30002DE9F04F8CB0064600200A903EA090E8C4
:100F4000004CC068CDE905BECDF810A007900FF2A7
:100F5000EC0ADAE9000ACDE9020A0FF2E00ADAE95E
:100F6000000ACDE9000A38480068C0F381000B9000
:100F70000B9820B1012804D0022828D103E033497E
:100F800027E0334925E03048001F006800F03F07A4
:100F90002D48001F0068C0F3881C2B48001F006804
:100FA000C0F30140401C4FEA40092748001F006879
:100FB00000F48008B8F5800F01D1254B00E0234BE9
:100FC000B3FBF7F000FB0CF0B0FBF9F101E01F49B7
:100FD00000BF00BF1C480068C0F3031404A8055DEF
:100FE00021FA05F218480068C0F3822402A8055DC2
:100FF00022FA05F0099014480068C0F342341DF845
:10100000045022FA05F0089036B1012E06D0022EC7
:1010100006D0032E0AD106E00A9108E00A9206E003
:1010200009980A9003E008980A9000E000BF00BF0A
:101030000A980CB0BDE8F08F00000000000000002E
:101040000102030406070809083802400024F400DE
:1010500000127A00074A02EB9011D1F8001800F054
:101060001F0301229A401143024B03EB9012C2F876
:101070000018704700300240074A02EB9011D1F887
:10108000001800F01F0301229A409143024B03EB2A
:101090009012C2F80018704700300240074A02EB75
:1010A0009011D1F8001800F01F0301229A4011435B
:1010B000024B03EB9012C2F8001870470030024058
:1010C000016841F04001016070470146C86880B284
:1010D0007047C1607047000010B504462749601A88
:1010E0008C422CD009DC26482044B0B1B0F5806F8A
:1010F0001CD0B0F5784F3DD106E0B0F5E05F27D0C9
:10110000B0F5005F36D12CE040F60C10FFF7C6FFBB
:1011100040F60C10FFF7B0FF2DE040F60E00FFF791
:10112000BDFF40F60E00FFF7A7FF24E040F60F00DA
:10113000FFF7B4FF40F60F00FFF79EFF1BE040F6FD
:101140000D10FFF7ABFF40F60D10FFF795FF12E013
:1011500040F61410FFF7A2FF40F61410FFF78CFFC3
:1011600009E040F61510FFF799FF40F61510FFF75C
:1011700083FF00E000BF00BF10BD0000003401404D
:1011800000C8FFBF02469068084008B101207047C0
:101190000020FCE702460020106800F441500B6874
:1011A00018434B6818438B681843CB6818430B6986
:1011B00018434B6918438B6918431060D36923F4B3
:1011C0000063D361704770B504460E46254604E0BF
:1011D000FF2000F009F805F8010B301EA6F101010F
:1011E0008EB2F5D170BD000070B50446264600BF32
:1011F00002210B48FFF7C6FF0028F9D03146084806
:10120000FFF767FF00BF01210548FFF7BBFF00287C
:10121000F9D00348FFF759FFC5B2284670BD00005A
:10122000003C00400021016041608160C16041617B
:10123000816101617047000000203B49096841F469
:101240008031394A116000BF3749096801F4003123
:1012500029B90146401C4FF6FF729142F4D1324940
:10126000096801F4003109B900BFFEE72E49403199
:10127000096841F080512C4A403211602B490968BD
:1012800041F44041294A1160274908310968264A3A
:10129000083211601146096841F40041116011469D
:1012A000096841F4A05111602149121F1160111FFA
:1012B000096841F08071121F116000BF1A49096866
:1012C00001F000710029F9D01849096841F4803112
:1012D000164A116000BF1549496801F480310029A0
:1012E000F9D01249096841F40031104A116000BF79
:1012F0000E49496801F400310029F9D00A49083142
:10130000096821F00301084A083211601146096892
:1013100041F00201116000BF03490831096801F082
:1013200008010029F8D070470038024000700040E2
:101330000854400710B5FFF77FFF10BD10B51248E5
:1013400000684FF47A71B0FBF1F4601EB0F1807F59
:1013500001D301200FE0601E4FF0E02148610F2112
:101360004FF0FF30FFF7FAF900204FF0E0218861DD
:1013700007200861002008B100BFFEE70021481ED9
:10138000FFF7ECF910BD0000000000202DE9F04748
:1013900004460D460027B846B94600263349601A70
:1013A0008C4235D00CDC32482044E8B1B0F5806F77
:1013B0001FD0B0F5006F21D0B0F5406F32D122E0E0
:1013C000B0F5806F29D0B0F5184F03D0B0F51C4FA1
:1013D00028D104E00320FFF7ABFD074623E00320FC
:1013E000FFF7A6FD07461EE00220FFF7A1FD074616
:1013F00019E00220FFF79CFD074614E00220FFF7EA
:1014000097FD07460FE00220FFF792FD07460AE02E
:101410000220FFF78DFD074605E00220FFF788FD5B
:10142000074600E000BF00BFE06800F4004070B174
:10143000780000EB5500B0FBF5F64FF6F07006EAC9
:101440000008C6F3420948EA0900A0600CE007EB77
:101450005500B0FBF5F64FF6F07006EA000806F00E
:101460000F0948EA0900A060BDE8F0870078004055
:1014700000BCFFBF10B504463349601A8C424DD002
:101480000CDC32482044E0B1B0F5806F22D0B0F5DA
:10149000006F31D0B0F5406F52D136E0B0F5806FBB
:1014A00045D0B0F5184F03D0B0F51C4F48D11AE025
:1014B00040F60410FFF7F2FD40F60410FFF7DCFDE4
:1014C0003FE040F61100FFF7E9FD40F61100FFF79D
:1014D000D3FD36E040F61200FFF7E0FD40F61200C3
:1014E000FFF7CAFD2DE040F60510FFF7D7FD40F6E7
:1014F0000510FFF7C1FD24E040F61300FFF7CEFD15
:1015000040F61300FFF7B8FD1BE040F61400FFF7AC
:10151000C5FD40F61400FFF7AFFD12E040F61E00D7
:10152000FFF7BCFD40F61E00FFF7A6FD09E040F600
:101530001F00FFF7B3FD40F61F00FFF79DFD00E021
:1015400000BF00BF10BD00000078004000BCFFBF1E
:10155000C16841F40051C160704710B5024602EB0A
:101560009110006801F01F040123A340184008B146
:10157000012010BD0020FCE710B500EB91121268AD
:1015800001F01F040123A3401A4300EB91131A60DA
:1015900010BDC26822F4C062C260C2680A43C26061
:1015A00070470A460021C16821F004011143C1605F
:1015B0007047026922F44052026102690A430261E3
:1015C00070470A460021C16821F008011143C1603B
:1015D0007047C26822F48052C260C2680A43C26087
:1015E00070474FF04070E1EE100A704730313233EF
:1015F0003435363738394142434445464030580047
:101600003031323334353637383961626364656678
:10161000403078003416000800000020140000005C
:10162000C40100084816000814000020EC930000D4
:10163000E0010008007A030A00000000000000003A
:081640000000000000000000A2
:040000050800018965
:00000001FF
